:020000040800F2
:100000003011002009010008B3160008751400081B
:10001000B116000899010008292D00080000000011
:10002000000000000000000000000000FD190008B2
:10003000850400080000000079190008FF19000875
:100040002301000823010008230100082301000800
:1000500023010008230100082301000823010008F0
:1000600023010008230100082301000823010008E0
:1000700023010008230100082301000823010008D0
:1000800023010008230100082301000823010008C0
:10009000A52C000823010008230100082301000803
:1000A00023010008230100082301000823010008A0
:1000B0002301000823010008230100082301000890
:1000C0002301000823010008230100082301000880
:1000D0002301000823010008230100082301000870
:1000E0002301000823010008230100082301000860
:1000F00023010008DFF80CD000F03CF8004800476E
:10010000692D000830110020064880470648004746
:10011000FEE7FEE7FEE7FEE7FEE7FEE7FEE7FEE7B7
:10012000FEE7FEE7691A0008F500000840EA01034F
:100130009B0703D009E008C9121F08C0042AFAD29D
:1001400003E011F8013B00F8013B521EF9D2704761
:10015000D2B201E000F8012B491EFBD27047002209
:10016000F6E710B513460A4604461946FFF7F0FFB6
:10017000204610BD064C074D06E0E06840F0010344
:1001800094E8070098471034AC42F6D3FFF7B6FF67
:10019000382E0008582E0008FEE7000010B5D0F8F1
:1001A0009022044692F81834022B07D0032B05D076
:1001B000052B03D0062B01D0092B13D1022082F886
:1001C0001804002382F8103482F8113482F81234B3
:1001D00082F8133482F8140482F81534C2F800341B
:1001E000C2F804340848407DC00607D5204602F016
:1001F000DEFA2046BDE8104002F07CB94888BDE830
:10020000104000F0A3B90000C400002030B40B4639
:10021000D0F89012DC8891F818248CB1022A01D011
:10022000052A11D15A88C1F80024DA880323C1F8BD
:10023000042481F8183481F8143430BC01F05EBC19
:10024000052A05D0022A03D030BC194601F04BBC68
:10025000012081F81904062281F81824002081F871
:10026000110481F8120481F8130481F8142430BCBD
:100270007047000070B5D0F890420546002194F810
:100280001804032802D0062845D128E0D4F8040435
:1002900018B3042084F8180484F8111484F8121494
:1002A00084F8131484F81404D4F8000410B92078E6
:1002B000412809D0D5F89412D4F8080404F58262D4
:1002C0008B690121984726E0D5F89412D4F80804E8
:1002D00004F582628B690021F4E7052011E094F8AF
:1002E0001904012801D038B115E0072084F818045A
:1002F000012284F8112408E00B48007D40070AD54C
:10030000022084F8180484F8111484F8121484F874
:10031000131484F8140404F582612846BDE8704083
:10032000062201F005BC0000C400002010B5044600
:10033000D0F890121848002281F81924007D400757
:100340000BD5062081F8180481F8112481F81224B5
:1003500081F8132481F8140410BD082081F81804D2
:1003600081F8112481F8122481F8132481F81404EF
:10037000204602F01CFAD4F8940280688047BFF34C
:100380004F8F06480168064A01F4E061114301609D
:10039000BFF34F8F00BFFDE7C40000200CED00E06D
:1003A0000400FA0570B50B460546C988D0F890429E
:1003B0000020B1B394F81814022906D0092904D0FA
:1003C000C4F80404C4F800044AE05988C4F80014CE
:1003D000DA88C4F8042401B3012936D9092384F842
:1003E000183484F8110484F8120484F8130484F88F
:1003F00014348802D4F80814A0F500600844D5F835
:1004000094124B69214698470146B4F8040482B21D
:100410002846BDE8704001F08BBB032A02D90221B7
:1004200001E023E0092184F8181484F8110484F809
:10043000120484F8130484F81414207021206070CE
:100440004120A07003222146E2E70F2184F818140E
:1004500084F8110484F8120484F8130484F8141442
:100460002846BDE87040194601F03DBB022184F8E2
:10047000181484F8110484F8120484F8130484F81E
:10048000141470BD70477047074900224A6107493C
:100490000B6843F400730B600B6843F008030B60B8
:1004A00020F0FF0002607047140C0020043C024062
:1004B0000F4A00211068C3050E4804D5416941F078
:1004C00002014161911513689B0505D5436943F00D
:1004D0000103436141F4007113681B0505D54369AD
:1004E00043F00403436141F4006111607047000070
:1004F000183C0240140C002070B5054600F09AF933
:100500000646114C09E0681C07D025B100F092F9AD
:10051000801BA84201D9032070BD2068C007F2D11A
:100520002068800701D5022020602068C00505D41E
:100530002068000502D42068800503D5FFF7B8FFC6
:10054000012070BD002070BD183C024070B504460B
:1005500000F070F90546601C02D00448406804446D
:1005600000F068F9401BA042FAD370BD740000206F
:100570002DE9F0471C4E05460F46307C012808D077
:10058000012030744CF250384046FFF7B5FF18B1E7
:1005900027E00220BDE8F0874FF0FF313960C14607
:1005A000DFF848806C6816E02046FFF76DFF48468C
:1005B000FFF7A2FFD8F8002022F00802C8F80020B8
:1005C000D8F8002022F40072C8F8002008B13C607E
:1005D00007E004F58074D5E9011201EB0221A14284
:1005E000E2D800213174D5E7140C0020043C02400D
:1005F0000348016841F002010160002070470000DB
:10060000043C02402DE9F0410C4C16460F46207C7C
:10061000012809D0012020744CF250384046FFF7E1
:100620006BFF002518B107E00220BDE8F08165618D
:100630003E604046FFF760FF2574F6E7140C00208B
:100640000E480168890716D50168C90708D00B490B
:100650000B4A08310A600B4A0A600168C90708D1D1
:100660000649094A0C310A60084A0A600068800796
:1006700001D501207047002070470000043C024073
:10068000EFCDAB8905040302BFAE9D8C1615141384
:100690002DE9F84FDFF860B100234FF0010C4FF067
:1006A000030A4FF00F090BF1040E9DE00CFA03F65C
:1006B00014EA06027ED04C68022C01D0122C0ED116
:1006C000DC0800EB8408D8F820405D07EF0E09FA3B
:1006D00007F5AC430D69BD402543C8F820500768B5
:1006E0005D0091F804800AFA05F408F00308A743B6
:1006F00008FA05F848EA0708C0F800804F68012F9B
:1007000005D0022F03D0112F01D0122F11D18768ED
:10071000D1F80C80A74308FA05F848EA0708C0F8A2
:1007200008804768B7430E79C6F300169E403E43E3
:100730004660C668A6438C68AC403443C4604C68CD
:10074000E40050D52D4C256845F00105256024684E
:1007500023F0030504F001040094294C2E19B46819
:100760009D072F0F09FA07F5AC43264DA84201D18A
:1007700000250FE0244DA84201D101250AE0234DB8
:10078000A84201D1022505E0214DA84201D103254F
:1007900000E00525BD402543B560DBF800405D461F
:1007A0004E689443F60300D514432C607546DEF87A
:1007B000004000E017E04E689443B60300D51443B0
:1007C0002C600D4D08352C684E689443F60200D518
:1007D00014432C60084D0C352C684E689443B602C7
:1007E00000D514432C605B1C0A681446DA407FF481
:1007F0005DAFBDE8F88F00000004014020380240E2
:1008000000000140000002400004024000080240D5
:10081000000C02400069084000D001207047426986
:100820000A4200D00904816170470AB181617047B2
:100830000904FBE70148806870470000740000204D
:10084000024881684268114481607047740000204A
:100850000B4910B50868002440F0040008600868DF
:1008600040F002000860032000F07AF8002000F059
:1008700009F808B1012401E000F026F8204610BD77
:10088000003C024070B50E4E05460024706898B1D9
:100890004FF47A71B1FBF0F00A490968B1FBF0F04E
:1008A00000F0D4FD40B9102D06D200222946501E7A
:1008B00000F036F8356000E00124204670BD0000ED
:1008C00074000020800000200D4808B5016841F048
:1008D00000410160016801F000410091011F0A68B8
:1008E00042F001020A60096801F00101009101680B
:1008F00041F080510160006800F08050009008BD18
:1009000024380240002809DB00F01F020121914039
:100910004009800000F1E020C0F80011704700009D
:10092000F0B40E4B1B680C46C3F30223C3F107055A
:10093000042D00D90425191D072901D2002300E048
:10094000DB1E012606FA05F1491E214099409E4012
:10095000761E16403143F0BC02F0E7B90CED00E022
:10096000064900F0070208684FF6FF03184040EA06
:100970000220034A10430860704700000CED00E0BD
:100980000000FA0510B50C0605D501F0070100EBD3
:100990004110283003E000EB411000F5947099B24B
:1009A00032B1012202730181190C4181002010BD76
:1009B00000220273C180F9E7704700EB4112D0F8C2
:1009C0006802D26B01F099BB00EB4112D0F86802CB
:1009D000D2F83C2101F0F4BB70B5044601F00F00E1
:1009E0006268904201D9012070BD0B0601F007003A
:1009F00004EB40114FF001024FF0000503D581F8E0
:100A00002920283103E081F8295101F594718D7076
:100A1000087094F82802012808D084F82822206859
:100A200002F022F884F82852002070BD022070BD28
:100A30002DE9F04104460F0601F0070004EB4011D8
:100A40004FF001064FF0000503D581F829602831E9
:100A500003E081F8295101F5947108700A61CB70A7
:100A60004A7802B1C881022B00D10D7194F8280296
:100A7000012809D084F82862206801F0ABFE2846DE
:100A800084F82852BDE8F0810220FBE770B50C46DF
:100A900001F0070500EB4511C1E94F230022C1F821
:100AA000442181F8292181F8285101F594716207C8
:100AB000006802F02EF8002070BD70B504460D46A7
:100AC00001F007006168884201D9012070BD290644
:100AD0004FF000064FF0010205D504EB401181F8FC
:100AE0002920283105E004EB451181F8296101F541
:100AF00094718A70087094F82802012807D084F84D
:100B00002822206801F0ECFF680702D006E00220EE
:100B100070BD04F50C71206801F0A4FF84F8286210
:100B2000002070BD70B50C4601F0070500EB4511C3
:100B3000C1E90F2300224A64012281F8292001F82B
:100B4000285F6207006801F0E4FF002070BD10B567
:100B50000446006802F0ACF8000402D5204600F01C
:100B6000A9FD206802F0A4F840050CD5206830F8F3
:100B7000441F21F480610180204600F0DBF8002151
:100B8000204600F0F2F8206802F092F8400405D503
:100B9000206830F8441F21F480410180206802F071
:100BA00087F8800405D5206830F8441F21F40051EF
:100BB0000180206802F07CF8C00414D5206830F869
:100BC000401F21F004010180206830F8401F21F00F
:100BD00008010180204600F0C0F8206830F8441F6A
:100BE00021F480510180206802F062F800051AD5D6
:100BF000206830F8401F41F008010180206830F87B
:100C0000441F21F400610180206830F8401F41F04A
:100C100004010180206802F04BF8C043C00402D5F3
:100C2000204600F0EBF8206802F042F8800508D575
:100C3000206830F8441F21F400710180204600F044
:100C400090F8206802F034F8C00505D5206830F827
:100C5000441F21F48071018010BD70B586B004007E
:100C600004D094F82902002518B107E0012006B04D
:100C700070BD84F82852204600F03EF8032084F826
:100C80002902206801F0E7FE002001260CE004EBB9
:100C9000401181F8296001F8280FC881CD700D61DD
:100CA0004D61401CC0B28D6161688142EFD8002067
:100CB0000FE004EB401181F8295181F8280181F8F7
:100CC0002B51C1F83851C1F83C51401CC0B2C1F899
:100CD000405161688142ECD8142204F11001684649
:100CE000FFF724FA94E80F0001F0A6FE84F82450E0
:100CF00084F829620020BAE708B500680B498842E9
:100D000012D10B48016841F4000101600068002223
:100D100000F40000009003211420FFF701FEBDE85D
:100D200008401420FFF7EEBD08BD0000005C004045
:100D30002438024070B5044680680125022801D09D
:100D4000FFF7A1FB2946D4F8680201F004FBD4F8B0
:100D50006802BDE8704001F0C4BAD0F8680201F042
:100D6000E8BAD0F8680201F0EABA10B5044690F883
:100D7000280201280BD0012084F8280284F82410CE
:100D8000206801F0AFFF002084F8280210BD022087
:100D900010BDD0F8682200F50C71104601F0E7BADA
:100DA00010B5044690F82802012810D0012084F8DC
:100DB000280201462046FFF7FFFD206801F03AFEB9
:100DC000206801F067FF002084F8280210BD02208F
:100DD00010BD10B5044690F8280201280CD001205F
:100DE00084F82802206801F036FE206801F080FFB8
:100DF000002084F8280210BD022010BD10B5044662
:100E0000D0F8680201F0FBFAA069002804D003487A
:100E1000016841F00601016010BD000010ED00E026
:100E20002DE9F0470E46050079D0DFF88481D8F827
:100E3000000000F00100B04214D2012E05D1D8F814
:100E4000001041F00401C8F80010D8F8001021F09B
:100E500001013143C8F80010D8F8000000F001008B
:100E6000B0425CD12878534C800705D52068A9682A
:100E700020F0F000084320602878C0075CD04D497E
:100E80006868083902281AD003281BD0096801288D
:100E90001BD08905002966DA216821F0030101438E
:100EA0002160FFF7C7FC6968074641F288300229D4
:100EB00014D0032920D0012981462AD038E00968BE
:100EC0008903E7E709688901E4E78907E2E700BFEA
:100ED000FFF7B0FCC11B494501D926E081462068D7
:100EE000C0F381000228F3D126E000BFFFF7A2FC87
:100EF000C11B494501D918E081462068C0F3810033
:100F00000328F3D118E000BFFFF794FCC11B49454B
:100F10000BD82068C0F381000128F5D10CE022E055
:100F2000FFF788FCC11B494502D90320BDE8F087C3
:100F3000206810F00C0FF3D1D8F80010404601F0F3
:100F40000101B14211D9012E03D1016841F0040120
:100F50000160016821F0010131430160006800F087
:100F60000100B04201D00120E0E72878400705D514
:100F70002068E96820F4E0600843206028780007D2
:100F800006D52068296920F4605040EAC10020603D
:100F900000F018F82168084AC1F30311515CC840F9
:100FA0000649086006480068BDE8F047FFF76ABCDC
:100FB000003C024008380240ED2D0008800000206F
:100FC00074000020134A116801F00C0004280CD0B2
:100FD00008280CD00C280CD0101F0068C0F3423138
:100FE0004FF40040491C884070470B4870470B483D
:100FF00070470B48C1F383431268C05CC1F3815151
:10100000491CD20301D5054A00E0034A5043B0FB16
:10101000F1F07047083802400024F40000127A0012
:10102000E42D00082DE9F84F04007DD0FC4801684C
:10103000006801F00C0700F480362078F94DC007F5
:1010400041D0082F12D00C2F02D1B6F5803F0DD021
:101050006068012811D008B1052818D0286820F44C
:1010600080302860286820F4802009E02868800308
:1010700029D560680028D8D025E0286840F4803061
:101080002860606890B1FFF7D5FB80460AE02868C9
:1010900040F480202860F0E7FFF7CCFBA0EB0800CD
:1010A00064287BD828688003F6D50CE0FFF7C2FBE4
:1010B000804605E0FFF7BEFBA0EB08006428F0D8EF
:1010C00028688003F6D42078DFF85CB3DFF85C830F
:1010D00080074FF001094FF0000A35D5042F0AD0E0
:1010E0000C2F00D13EB1E068F8B1C8F80090FFF7CE
:1010F000A1FB06460BE0286880070BD5E0680128B5
:1011000012D107E0FFF796FB801B0228C9D8286898
:101110008007F7D5DBF80010226921F4F85141EA85
:101120000221CBF800100FE077E1C8F800A0FFF72C
:1011300081FB064605E000BFFFF77CFB801B022811
:10114000AFD828688007F7D42078C00674D53FB19F
:10115000A069E0B3C8F82090FFF76CFB06464AE0B0
:101160002868800502D5A069002884D0206ADBF8B1
:1011700000105E4601F46041884210D900F0FEFB89
:101180000028BDD13068216A20F4604008433060F7
:10119000217F306861F31F6030600FE096E03168B6
:1011A00021F4604101433160217F306861F31F60A9
:1011B0003060206A00F0E2FB0028A1D1216A4FF4E0
:1011C000004009EB513188409549096800E025E06D
:1011D000974AC1F30311515CC8409649086096488C
:1011E0000068FFF74FFB00286FD125E0FFF722FBD7
:1011F000801B02286AD828688005F7D5DBF8001024
:10120000226A21F460411143CBF80010227FDBF801
:10121000001062F31F61CBF800100DE0C8F820A0A9
:10122000FFF708FB064604E0FFF704FB801B0228DB
:101230004CD828688005F7D42078804E000722D546
:101240007F48616981B1C0F80090FFF7F3FA8346E7
:1012500006E000BFFFF7EEFAA0EB0B00022835D83E
:1012600030688007F6D50EE0C0F800A0FFF7E2FA7C
:10127000834605E0FFF7DEFAA0EB0B00022825D835
:1012800030688007F6D4207840076DD56B484FF062
:10129000000B10380068C0000BD468481038016893
:1012A00041F08051016000684FF0010B00F0805068
:1012B000009064480168C90514D4016841F4807144
:1012C0000160FFF7B7FA009008E08DE079E000BF19
:1012D000FFF7B0FA0099401A642872D8594800689C
:1012E000C005F5D5A06801280AD008B1052811D09D
:1012F000306820F480703060306820F4806002E054
:10130000306840F480703060A068A8B1FFF792FAAE
:1013100000900DE0306840F480603060F0E700BF7E
:10132000FFF788FA0099411A41F2883081425AD871
:1013300030688005F4D50EE0FFF77CFA009007E0F6
:10134000FFF778FA0099411A41F2883081424AD871
:1013500030688005F4D4BBF1000F05D03748103851
:10136000016821F080510160606A58B30C2F41D0B0
:101370000228504605D0C8F86000FFF75BFA044623
:1013800034E04746C8F86000FFF754FA064604E028
:10139000FFF750FA801B022825D828688001F7D46F
:1013A000D4E90A1001431E48226B036823F47D032D
:1013B0001A4311430160C7F86090FFF73BFA0446F7
:1013C00007E010E040E000BFFFF734FA001B0228FE
:1013D00009D828688001F7D536E000BFFFF72AFA60
:1013E000001B022802D90320BDE8F88F286880017D
:1013F000F4D429E00128F7D009480068A26A00F473
:101400008031914209D1E26A00F47011914204D115
:10141000216B00F44000884216D00120E4E7000070
:1014200008380240003802400438024000004742B9
:10143000ED2D0008800000207400002034380240A8
:1014400080064742007000400020CDE710B5401EE6
:10145000B0F1807F01D3012010BD4FF0E024606126
:101460000F21601701F061FC0020A06107202061BE
:10147000002010BDFEE70000F0B500230A2430254F
:1014800037261F4611E000BFB4EB107F02D905EBF1
:10149000107C01E006EB107C01F813C001EB430C5B
:1014A00000015B1C8CF80170DBB29342ECD3F0BD01
:1014B000016809B1491C03D1406818B1401C01D032
:1014C000012070470020704710B540210348FFF706
:1014D000A1F908B1002010BD012010BD0008024094
:1014E00010B580210348FFF795F908B1002010BD21
:1014F000012010BD0008024010B5FFF779F8002068
:1015000010BD00001FB50020039000904FF48071C3
:101510000548CDE9010103A96846FFF729F800282D
:1015200000D0012004B010BD0000010800203223CB
:1015300053709070D070704710B5FFF781F8034971
:1015400040F202300860002010BD0000183C02404C
:1015500010B5002304E000BF10F8014BCC545B1C15
:101560009342F9D3084610BD2DE9F04117460D46C8
:10157000064600240FE0325929190220FFF742F8ED
:1015800010B10120BDE8F08130592959884201D0BD
:101590000220F7E7241DBC42EDD30020F2E7000053
:1015A000F0B587B014216846FEF7D9FD27480168D9
:1015B00041F020010160016801F0200105910168FE
:1015C00041F001010160016801F00101059101682C
:1015D00041F004010160016801F004010591016816
:1015E00041F0020101600068194E00F0020048F26B
:1015F00001040590002221463046FFF716F9154FE9
:10160000002220213846FFF710F9012280213846B8
:10161000FFF70BF90125CDE9004500240294694646
:1016200030460394FFF734F8C0208DE83100694656
:101630000948FFF72DF8A0200090CDE90154694634
:1016400038460394FFF724F807B0F0BD1C38024079
:1016500000000240000402400008024010B50022D1
:101660000F49104800F02BFD08B1FEF70CFF0E49A2
:101670000C4800F0EAFE08B1FEF705FF0B490948E7
:1016800000F048FB08B1FEF7FEFE064800F032FF0E
:10169000002803D0BDE81040FEF7F5BE10BD0000E5
:1016A00008000020EC0000208800002058000020E6
:1016B000FEE770472DE9F05F044648F60F7B4FF0D8
:1016C000020A4FF480684BE1B0F8441011F00F06A5
:1016D0002BD030F8267039047BD530F8261040F630
:1016E0008F72114041F0800120F8261004EB46155E
:1016F000D4F800C095F8340105F59475002869D038
:1017000028783CF8201049047ED5BCF850100AEB2C
:10171000C000014408EB41003CF80000C0F30900A0
:101720005FEA000971D02A89CFE0C9062DD401886B
:1017300001EA0B0141F400410180206804F1280511
:10174000B0F850202B780AEBC3010A4408EB4201A1
:10175000405AC0F309006064E16B0844E063002173
:101760002046FFF72AF994F824000028ABD0A86996
:101770000028A8D194F82400216840F08000A1F846
:101780004C00002084F82400EAE0018804F59475F8
:101790000A0520D5B0F850102B78062202EBC302C0
:1017A0000A4408EB4201405A04F50C71C0F30903E6
:1017B000EB61EA88206801F07FFA2168088840F62A
:1017C0008F72104040F0800008802046FFF7E1FA59
:1017D000C6E0A1E052E0090443D5028840F68F71CB
:1017E0000A4042F0800101802068B0F850102B7848
:1017F000062202EBC3020A4408EB4201405A830569
:101800009B0DEB610BD001E04FE063E0EA88696972
:10181000206801F051FAE9696869084468610021AB
:101820002046FFF7D1F82068B0F85010014428692D
:1018300001F20C41B0B13E281AD24208C00700D0D4
:10184000521C4FF6FF7000EA822008802168088849
:101850004BF68F72104080F4405048F280021043E3
:1018600008807DE0088820F4F84040F40040ECE770
:1018700040094FF4004242EA8020E6E7BCF85020DD
:101880002878062101EBC000111808EB41003CF854
:101890000000C0F309005FEA000927D00346EA8888
:1018A0006046696901F008FA20E0BCF85020062182
:1018B00001EBC000111808EB41003CF80000C0F338
:1018C00009005FEA000905D06A8903466046696934
:1018D00001F0F2F92978226832F8210048F68F7376
:1018E000184048F2C003184322F82100E96901EBCF
:1018F0000900E861696901EB09026A61AB6913B12A
:101900002869484504D929782046FFF75DF803E0A7
:1019100029782046FFF7BAF8380621D5226804EB6B
:10192000461032F8261001EA0B0141F4004122F87A
:1019300026102168B1F8502090F828500AEBC50312
:101940001A4408EB4202895AC1F309014164C26B8F
:101950000A44C263036CE9B2204653B1FFF7E2F8D0
:101960002068B0F8441009043FF5AEAE0020BDE891
:10197000F09FFFF722F8F3E77047000038B51C49E5
:10198000002309681B4A11F0F00F23D118491C31BC
:101990000C68E500184C03D5216801F4C0540EE032
:1019A0000D6845F080550D600D6805F08055009577
:1019B00024680D6804F4C05425F080550D60B4F51A
:1019C000C05F07D1B0F5404F04D11068012340F04B
:1019D00004001060106820F00100184310601068C7
:1019E00000F00100984201D0012038BD002038BD30
:1019F00008380240003C0240007000407047FEF78B
:101A00001FBF000010B592B034216846FEF7A7FB57
:101A100014210DA8FEF7A3FB1248016821F4C05160
:101A200041F40061016003200124CDE9000410208D
:101A3000CDE9034002200990C0030A9000010B90F9
:101A400080000C906846FFF7EDFA0F20CDE90D04F9
:101A500000200F901090014611900DA8FFF7E0F9BB
:101A600012B010BD007000400F48016841F4807151
:101A700001600D4908310A680C4B1A400A6002687F
:101A80000B4B1A400260026822F480220260086850
:101A900020F47D0008600020091D086005494FF012
:101AA0000060086070470000003802400CC0FF88EA
:101AB000FEFFFEEE08ED00E010B5D0F88C22526873
:101AC0009047002010BD134610B50A46002100F0D3
:101AD000FFFB002010BD134610B50A46002100F0A0
:101AE00097FC002010BD10B50446802100F06CFC6E
:101AF0002046BDE81040002100F066BC10B503236D
:101B0000C0F84821C0F86C32C0F84C2113460A4690
:101B1000002100F0DDFB002010BD10B505210023E1
:101B2000C0F86C121A46194600F0D2FB002010BD16
:101B300010B50223C261C0F86C32026213460A4635
:101B4000002100F065FC002010BD10B50421002329
:101B5000C0F86C121A46194600F05AFC002010BD5D
:101B6000002070470020704770B50446D0F89002FE
:101B700000250221C0F80054C0F8045480F818145D
:101B800080F8105480F81414D4F8900248B1D4F8B6
:101B9000940204F5247480688047206800F014FEE5
:101BA0002560002070BD002070477CB5D0F89042C1
:101BB00094F81814042902D0072963D064E0D4F8FB
:101BC0000014002589B101293AD9D0F8940289027C
:101BD000D4F80824A1F5006111440369D4F8042461
:101BE0002046984760B302207CBD217821B121298D
:101BF00007D0412916D019E0D4F8041401291FD0C8
:101C000014E0D4F80414052910D16078A17800EB11
:101C10000120E17800EB0140217900EB0160C4F87C
:101C200008040DE0D4F80414052919D0C4F80454AC
:101C30000121ADF806108DF800506946FFF753FFFB
:101C4000C4F804540320C4F8005484F8180484F839
:101C5000115484F8125484F8135484F8140413E0D3
:101C60006178A27801EB0221E27801EB024122794E
:101C700001EB0261C4F80814D0F89402C268084667
:101C80009047AFE7FEF752FB00207CBD1B2101808F
:101C900000487047C40000200A21018000487047B6
:101CA000E000002010B5062907D8D0F894020449B6
:101CB000006800F0D4F9024810BD002010BD0000FB
:101CC0002C0C002010B5044640F21C4000F07EFDB4
:101CD000C4F89002B0B100F5806000210A4AC0E962
:101CE0000221016041604176022202760174417452
:101CF0008174C17402754175D4F8940240688047BC
:101D0000002800D0022010BD00000108002070470C
:101D10000020704709B1C0F89412002070470020DD
:101D200070470000F8B500260D46ADF800602F782A
:101D3000D0F8901232463346344617F0600760D030
:101D4000202F6ED16E780222072E6AD2DFE806F0CD
:101D50005504080C0F3236002946FEF757FA83E087
:101D60002946FEF71FFB7FE0FEF784FA7CE091F83E
:101D700018040A2811D00A2081F818040E2281F8CC
:101D8000102481F8113481F8123481F8133481F869
:101D9000140400BF81F8153466E081F8182481F836
:101DA000103481F8113481F8123481F8133481F839
:101DB0001424EFE7012201F583613EE091F8180455
:101DC000022807D0032805D0052803D0062801D013
:101DD000092849D181F8182481F8103481F8113488
:101DE00081F8123481F8133481F8142481F8153401
:101DF000C1F80034C1F8043436E02946FEF7CEF9C4
:101E000032E06B7833B1062B0CD00A2B18D00B2B99
:101E100026D11DE090F87412032921D102226946CF
:101E20000BE01DE069882123B3EB112F04D1EA8870
:101E3000104E092A00D909223146FFF779FE13E036
:101E400090F87422032A0BD1012201F20C41F4E72D
:101E50006A8812F0FF0F03D190F87432032B05D07B
:101E60002946FFF740FE02242046F8BDD0B2C1F853
:101E70000C04F9E7D600002010B50A46024903A079
:101E800000F0EDF8004810BD140A0020444655202B
:101E9000436F6E6669670000122008800048704733
:101EA0002800002010B50A46024903A000F0D7F828
:101EB000004810BD140A002044465520496E746540
:101EC0007266616365000000042008800048704766
:101ED0002400002010B50A46024903A000F0BFF814
:101EE000004810BD140A002053544D6963726F6599
:101EF0006C656374726F6E696373000010B50A4697
:101F0000024903A000F0ABF8004810BD140A0020FD
:101F100053544D333220446F776E4C6F61642046CA
:101F200069726D7761726520557064617465000037
:101F300010B51A2008800948D0E91414806D0818DB
:101F400009D008220649FFF797FA05490422103103
:101F50002046FFF791FA0248801E10BD0000F81FCE
:101F60003E000020F8B5044648880D46010A0829BD
:101F700054D2DFE801F05304091753534951D4F800
:101F80008812207C0A6819E0207C02260028D4F8F8
:101F90008C0205D0C16A68468847014646704AE00F
:101FA000816AF8E7C1B2062926D2DFE801F0030A08
:101FB0000F14191ED4F88812207C4A68694690478D
:101FC00018E0D4F88812207C8A68F7E7D4F88812E1
:101FD000207CCA68F2E7D4F88812207C0A69EDE711
:101FE000D4F88812207C4A69E8E7D4F88812207C6B
:101FF0008A69E3E701461EE0C1B2D4F88C026A4662
:10200000836B20469847F5E7207C38B9D4F88C02DA
:10201000416B68468847EDE7207C20B12946204681
:10202000FFF761FDF8BDD4F88C02016B6846884764
:10203000014607204870BDF8000048B1EA8852B157
:10204000824200D90246ADF800202046FFF770FD1D
:10205000E8880028E6D12046FFF777FDF8BD70B587
:10206000002300281ED00446002502E06D1CEDB2BE
:10207000641C2678002EF9D1022404EB4504148058
:102080001278CA545B1C0322CA5400245B1C06E06D
:10209000CA545B1CDAB28C54521CD3B2401C027876
:1020A000002AF5D170BD01004FF0000004D00129D5
:1020B00001D0022901D0022070470120704710B5DD
:1020C00080B1D0F88C3213B10023C0F88C3209B142
:1020D000C0F88812012180F87412027000F0B2F882
:1020E000002010BD022010BD10B5D0F89802FEF7F8
:1020F00073FCBDE81040FFF7D6BF2DE9F04117464D
:10210000044651B1D4F88C0242691AB194F87402B1
:10211000032851D00220BDE8F081D4F86C320025AC
:1021200004F11400022B03D0042B3AD0C3B33CE0DB
:10213000D0E903639E4207D9F11AC1608AB23946D9
:102140002046FFF7C8FC12E08068B0FBF3F103FB08
:10215000110199B9984211D3D4F8701288420DD266
:10216000002211462046FFF7B6FCC4F87052002347
:102170001A461946204600F0ABF816E0D4F88C0257
:10218000C16829B194F87402032801D12046884718
:102190008021204600F018F92046FFF7BEFC04E03D
:1021A000FFE78021204600F00FF994F8780201281B
:1021B00004D184F8785201E0204690470020AAE735
:1021C00070B51546044649B1D4F88C0282691AB13B
:1021D00094F87402032830D0022070BDD4F86C1239
:1021E00004F5A070032902D005291ED027E0D0E90C
:1021F00003218A420BD9531AC3600846834200D395
:1022000003469AB229462046FFF75DFC17E0D4F852
:102210008C02016929B194F87402032801D1204687
:1022200088472046FFF791FC09E000200146C4F8EA
:102230006C02204600F0C8F801E0204690470020DC
:1022400070BD000010B513490446C1F86802C0F81B
:1022500098121148086008204860022088600861D0
:102260000020886108620846FEF7F7FC08B1FEF717
:102270000AF9002218231146D4F89802FEF782FBCF
:10228000582300228021D4F89802FEF77BFB00201F
:1022900010BD0000A8070020005C00400A06D0F82E
:1022A000980201F07F0100EB411002D590F82A005E
:1022B000704790F82A01704710B51C461346D0F8B5
:1022C00098022246FEF7B4FBBDE81040FFF7EBBED4
:1022D00010B5D0F89802FEF7D9FBBDE81040FFF723
:1022E000E2BE70B50022044640231146FFF7E4FF2A
:1022F00040260125C4F85061334600228021204643
:10230000C4F84451FFF7D8FF6662A56184F874529F
:102310000020C4F86C026060C4F87C02D4F890021B
:1023200028B1D4F88C020021426820469047002052
:1023300070BD90F8751280F874120020704710B5C7
:1023400090F87412032904D1D0F88C12C96901B134
:102350008847002010BD01740020704710B5D0F8E8
:102360009802FEF702FDBDE81040FFF79CBE70B575
:10237000044600F52070054600F053F80120C4F82B
:102380006C02B4F88602C4F8700294F8800210F06F
:102390001F010AD001290DD0022910D000F08001C0
:1023A000204600F011F8002070BD2946204600F0BC
:1023B000A6F8F8E72946204600F0D2F9F3E72946C7
:1023C000204600F025F9EEE710B5D0F89802FEF7A8
:1023D00074FBBDE81040FFF766BE10B5D0F8980258
:1023E000FEF7DEFCBDE81040FFF75DBE10B5D0F88B
:1023F0009802FEF7EEFCBDE81040FFF754BE90F8DF
:10240000741280F87512042180F87412002070474D
:1024100010B5D0F89802FEF785FBBDE81040FFF735
:1024200042BE0A7802704A7842708A78CB7802EB12
:10243000032242800A794B7902EB032282808A7957
:10244000C97902EB0121C18070470246002011B119
:10245000C2F88C1270470220704710B5D0F88C2259
:1024600002241AB11268904700B90024204610BD1A
:1024700070B50E461E4D897804462970012931D861
:1024800094F8740202280BD003280FD0314620465E
:10249000FFF729FB29782046BDE87040FFF70CBB09
:1024A000D9B10320616084F8740209E071B16068F9
:1024B000884212D0C1B22046FFF7FEFA2978616047
:1024C0002046FFF7CAFF02280CD006E0022084F85D
:1024D000740220466160FFF7EFFA2046BDE87040C5
:1024E000FFF733BB31462046BDE87040FFF7FBBA2B
:1024F0008400002010B5FFF770FF002010BD2DE90B
:10250000F0410A78002612F0600208D0202A01D09B
:10251000402A70D1D0F88C22926890476DE04B78B9
:10252000002201250A2B66D2DFE803F0405D6557E3
:10253000650805652C29FFF715FD5EE004468888CF
:10254000D8B9C888C8B94888802816D200F07F0753
:1025500094F87402032810D084F876723946204625
:10256000FFF7FCFE2046FFF7F0FA1FB1022084F8C7
:10257000740242E084F874523FE020463BE0FFF7EB
:1025800077FF3AE0CB88012B35D190F87432012BDC
:1025900004D0022B02D0032B2DD104E08260012253
:1025A00000F1080116E00122011D13E090F87422E9
:1025B000012A03D0022A01D0032A1CD1CA88022A88
:1025C00019D1C560D0F87C1209B10321C160022283
:1025D00000F10C01FFF7ACFA0FE0498801290CD19A
:1025E000C0F87C5211E090F87432012B08D0022B15
:1025F00006D0032B04D0FFF776FA3046BDE8F08111
:1026000049880129F9D1C0F87C22FFF79EFAF4E746
:102610002DE9F0410A46044610780027097910F0A8
:1026200060030AD0202B01D0402B50D1D4F88C026B
:1026300011468368204698478FE0C0F34110012877
:1026400006D05078D0B301282AD003283FD107E024
:10265000D4F88C02114683682046BDE8F041184743
:1026600094F87402022802D0032872D10AE071B3F0
:1026700080296ED02046FFF7A7FE80212046FFF775
:10268000A3FE6AE0508838B931B1802904D0D088DF
:1026900010B92046FFF798FE2046FFF756FA5CE097
:1026A00094F874020228E2D0032852D1508898BBD3
:1026B0004806F1D02046FFF717FDEDE7FFE794F855
:1026C00074020026022803D0032842D112E040E021
:1026D00009B180293DD1080601F07F0000EB8000A0
:1026E00004EB800101D5143101E001F5A071022253
:1026F0000E602AE0080601F00F0000EB800004EBFA
:1027000080000AD5806920B301F07F0000EB8000D3
:1027100004EB800514350BE01FE0D0F84401C0B194
:1027200001F07F0000EB800004EB800505F5A0754B
:1027300041B1802906D02046FFF7B0FD10B101203D
:10274000286000E02E60022229462046FFF7F0F9BB
:1027500003E011462046FFF7C6F93846BDE8F08190
:1027600070B5054608780C4610F0600003D02028AC
:1027700001D0402816D195F87402012803D0022810
:1027800001D003280ED1207901280BD8D5F88C026E
:10279000826828469047E188014306D12846FFF722
:1027A000D4F902E02846FFF79EF9002070BD10B56D
:1027B00004460179D0F88C024268204690472046B2
:1027C000FFF714FE002010BD70470000004870475E
:1027D000880300202DE9F0470C784FF0000C30F80A
:1027E000243048F68F121340CA78002A7ED0012A7E
:1027F0007DD0022A03D0032A7AD04FF0010C48F290
:102800008002134320F824300D7830F8254048F634
:102810008F731C402C43144320F825400F7B48F64F
:10282000BF744BF68F7948F2C0054CF28006EFB3C7
:1028300091F80080C24630F8287048F280181F4096
:1028400047EA080720F82A70B0F8507091F8008025
:10285000074407EB0817B1F8088028F00108A7F82B
:102860000084B0F8507091F80080074407EB081717
:10287000B1F80A8028F00108A7F808844F78002FE3
:102880007ED091F8008030F828707F0405D530F8AC
:1028900028701F40374320F8287091F8008030F8E6
:1028A00028707F0607D530F8287000E02FE01F4021
:1028B0002F4320F828700F7830F827501D403543FB
:1028C00020F82750CB780D78012B30F8253003EA1B
:1028D000040301D083F02003134320F825300B7844
:1028E00030F8231001EA0901114302E006E00BE091
:1028F00007E020F823106046BDE8F08743F400733A
:102900007DE743F4C0637AE743F4806377E74F7869
:1029100027B3B0F850600F78064406EB0716CF884F
:1029200027F00107A6F800740F7830F827607606C4
:1029300005D530F827601E402E4320F82760CB785D
:10294000012B06D00B7830F82310214081F02001B4
:10295000CAE70B7830F823102140C5E7B0F85040A3
:102960000D78044404EB0514CD8825F00105A4F886
:102970000854B0F850400D78044404EB051400E00E
:102980002DE00D6904F20C44EDB13E2D21D26F080B
:10299000ED0700D07F1C4FF6FF7505EA87252580DF
:1029A0000D7830F82540640405D530F825401C40EA
:1029B000344320F825400B7830F8231001EA090150
:1029C00081F4405190E7258825F4F84545F4004509
:1029D000E5E76D094FF4004747EA8525DFE70F7803
:1029E00030F827805FEA484807D530F8278008EAA2
:1029F000030848EA060820F827800F7830F8276097
:102A0000760605D530F827601E402E4320F8276053
:102A10000F7830F827601E402E4320F827600D788D
:102A200030F8253003EA090383F44053134320F8B8
:102A300025308EE70020704700B50121A0F8401036
:102A40000021A0F84010A0F84410A0F8501000F0A9
:102A500021F9002000BD30F8401F21F43F410180E2
:102A6000002070470020704730B50A7BB2BB4A781F
:102A700048F68F7548F28004C2B10B7830F82320F5
:102A8000520607D530F823202A4048F2C0052A43D1
:102A900020F82320CA78012A20D00A7830F82210A2
:102AA00048F6BF73194081F0200114E00A7830F82D
:102AB00022305B0407D530F822302B404CF28005E1
:102AC0002B4320F822300A7830F822104BF68F730F
:102AD000194081F44051214320F82210002030BDDC
:102AE00010B54A780978002A48F2800330F821208E
:102AF00005D048F6BF74224082F0100204E04BF685
:102B00008F74224082F480521A4320F82120002042
:102B100010BDF0B50E46054691F801C00022097BB4
:102B20003469B06948F28007BCF1010F04D0A042BB
:102B30004FD9001BB0614EE0A04202D9001BB0612A
:102B400001E00446B26169B1307835F820104906D9
:102B5000B5F85010294401EB001012D5A0F80C4430
:102B6000728911E0A3B2F2882846716900F0C9F8B1
:102B7000B5F850003178284400EB0110A0F8044467
:102B80001EE0A0F804443289A3B22846716900F01F
:102B9000B8F8707848F68F7110B1012807D00FE0AF
:102BA000327835F82200084048F2C00105E032785A
:102BB00035F8220008404CF28001084325F8220035
:102BC000317835F8210048F6BF72104080F03000AF
:102BD0005BE00446B2614FF6FF724FF4004319B157
:102BE000BCF1000F19D02BE0B5F850003178284423
:102BF00000EB011000F20C402CB13E2C30D36109E7
:102C000043EA812107E0018821F4F84141F40041C1
:102C100001E002EA812101802FE0B5F8500031780F
:102C2000284400EB011000F204407CB13E2C13D28A
:102C300061085FEAC47C00D0491C02EA812101805E
:102C400070780028D0D001280FD016E0018821F438
:102C5000F84141F40041F2E7610943EA8121EEE7DE
:102C60006108E307D5D0491CD3E7B5F850104819DF
:102C7000317800EB0110A0F80C44317835F82100D0
:102C80004BF68F72104080F44050384325F82100F5
:102C90000020F0BD30F8401F41F43F41018000208A
:102CA000704700000148FDF752BF0000A807002050
:102CB000B0F844007047000010B500EB42005C081B
:102CC00000F5806009D000BF30F8042B01F8012B1B
:102CD000120A01F8012B641EF6D1DA0701D0007840
:102CE000087010BD11B98021A0F84C100020704769
:102CF000012120F8401F0021818003210180002054
:102D0000704710B55B1C00EB42005B0800F580606B
:102D100009D011F8012B5B1E11F8014B42EA042285
:102D200020F8042BF5D110BDFEE70907090E002895
:102D300004DB00F1E02080F80014704700F00F0081
:102D400000F1E02080F8141D704702E008C8121F4F
:102D500008C1002AFAD170477047002001E001C184
:102D6000121F002AFBD1704708B5FDF771FDFEF771
:102D700049FEFEF715FC174C2046FEF799FBC8B13B
:102D8000154D2846FEF794FBA0B1FEF7A9FB88B9C4
:102D9000FEF79AFB20B12A462846FEF789FB00B9C8
:102DA0002246009250680D4948600860116881F31E
:102DB00008888047FEF7F4FBFEF750FC084C4FF400
:102DC000967520212046FDF72AFD2846FDF7BEFB1B
:102DD000F7E70000000001080030000800000020B4
:102DE00000040240030406080C1018203000000004
:102DF00000000000000102030406070809000000AB
:102E000040496E7465726E616C20466C6173682017
:102E100020202F307830383030303030302F332A87
:102E200030344B612C31332A30344B672C2031360F
:102E30002A30344B67000000582E000800000020A4
:102E4000EC0000004A2D0008442F0008EC00002090
:102E5000441000005A2D000800000000000000008F
:102E6000991E0008C91E0008D51E0008FD1E000896
:102E7000311F0008791E0008A51E0008040309047C
:102E80001201000200000040830411DF0002010271
:102E9000030100001A030000000000000000000011
:102EA0000000000000000000000000000000000022
:102EB000002E000839150008F9140008051500084F
:102EC00069150008511500082D15000810000000B4
:102ED000010000000000000068FF1F00000000006B
:102EE000C51C0008691B0008251D0008AB1B000855
:102EF000A71B0008611B0008651B00081F1D0008B8
:102F00000D1D0008111D00088D1C00088D1C0008F7
:102F10008D1C0008991C0008A51C000809021B0054
:102F2000010102C0320904000000FE01020609216D
:102F30000BFF0000041A01000A0600020000004016
:042F4000010000008C
:04000005080000F5FA
:00000001FF
