:020000040801F1
:100000002816002009010108D72A0108F92501084E
:10001000D52A0108F3010108ED480108000000009D
:10002000000000000000000000000000E5300108B2
:100030006B020108000000007D2E0108B5310108A7
:1000400023010108230101082301010823010108FC
:1000500023010108230101082301010823010108EC
:1000600023010108230101082301010823010108DC
:1000700023010108230101082301010835020108B9
:1000800023010108230101082301010823010108BC
:10009000894801082301010823010108850201089C
:1000A000230101082301010823010108230101089C
:1000B000230101082301010823010108230101088C
:1000C000230101082301010823010108230101087C
:1000D000352F01082301010823010108230101082C
:1000E0002301010823010108230101085D320108F1
:1000F00023010108DFF80CD000F03CF8004800476D
:100100007549010828160020064880470648004720
:10011000FEE7FEE7FEE7FEE7FEE7FEE7FEE7FEE7B7
:10012000FEE7FEE715320108F500010840EA010389
:100130009B0703D009E008C9121F08C0042AFAD29D
:1001400003E011F8013B00F8013B521EF9D2704761
:10015000D2B201E000F8012B491EFBD27047002209
:10016000F6E710B513460A4604461946FFF7F0FFB6
:10017000204610BD064C074D06E0E06840F0010344
:1001800094E8070098471034AC42F6D3FFF7B6FF67
:100190005C4F01087C4F010870B58C1810F8015BAA
:1001A00015F0070301D110F8013B2A1106D110F810
:1001B000012B03E010F8016B01F8016B5B1EF9D114
:1001C0002B0705D40023521E0DD401F8013BFAE79A
:1001D00010F8013BCB1A921C03E013F8015B01F805
:1001E000015B521EF9D5A142D8D3002070BD02F0A8
:1001F00085BFFEE770B5804D286904F0D7FD0B4C34
:10020000E9780B4E201DB047297904F10800B0476A
:10021000A9782046B047697904F10C00B047A97964
:1002200004F110003246BDE8704010470000080895
:1002300009490108014800F008B900BF440900203D
:10024000F0B5D0E90045D0E90F60012700F01C00AF
:10025000102D07FA00F070600846636008BF104672
:10026000A06008BF0A46E260F0BD704701F0F6FAF0
:1002700000F0A0F902484FF00061016004F068FB53
:1002800008ED00E080B54FF4807000F0DFFA4FF425
:100290000070BDE8804000F0D9BA000010B5564C9F
:1002A000608980B1B4F90A00012804DCB4F90A00BD
:1002B00010F1020F07DCB4F90A00002804DDE92080
:1002C00002F0E6FB05E010BDB4F90A00B0F1FF3F13
:1002D00007DD002001216081E068BDE8104004F0E6
:1002E00057BDEA20ECE700BFB0B5154D4FF40071E3
:1002F000284600F081FB044628464FF4807100F048
:100300007BFB3D490A89B2F5807F08D0B2F5007FBA
:100310000BD14A89012814BF501E501C04E04889A3
:10032000012C14BF01380130488100200881486940
:1003300004F03CFD1720BDE8B04000F025BC00BF34
:10034000000402407047000026480168C90501D436
:10035000002106E0B8494A6942F002024A614FF4BE
:1003600080710268920506D5B34A01F500715369A0
:1003700043F0010353610268120506D5AE4A01F548
:100380000061536943F0040353610160704700BF8B
:10039000F8B5144E044600F039FB0546671C30687A
:1003A000C00709D0002FFAD024B100F02FFB401B6A
:1003B000A042F4D90320F8BD3068800744BF022072
:1003C00030603068C0055CBF30685FEA005003D51C
:1003D000FFF7BAFF0120F8BD306880055CBF002040
:1003E000F8BDF5E7183C02400349C878B0FA80F040
:1003F0004009C87002F08EBEB4010020B0B590F87C
:10040000211002291CD10168426BD0E90F340D681C
:1004100025F00E050D600D6825F001050D6004F056
:100420001C014FF0010404FA01F159604FF0000182
:1004300080F8201080F821402AB19047002102E086
:100440000421816301210846B0BDF0B5D0E90F1346
:1004500002680C68156803F01C036E070ED50426AD
:100460009E4016EA040709D013689B0603D413685C
:1004700023F0040313604E60C16A2BE0AE0714D56D
:1004800002269E4016EA04070FD013689B0606D486
:10049000136823F00A031360012280F82120002250
:1004A00080F820204E60816A14E02D0716D50825BB
:1004B0009D402C4012D0146824F00E0414600122D8
:1004C00002FA03F34B600021826380F8201080F869
:1004D0002120016B11B1BDE8F0400847F0BD0000DC
:1004E0000146012061B32DE9F043022201F10C0E17
:1004F00047F6F07481F8212091E804039EE8E0506B
:100500001368A3430F4C43EA080343EA09032B4350
:1005100033433B4343EA0C0343EA0E0313600023D7
:100520008B6381F82030084B1A441423B2FBF3F29A
:100530009200C1E90F4281F821000020BDE8F0439C
:10054000704700BF00600240F89FFDBFB0B5044691
:1005500090F8200001281DD0012084F8200094F894
:100560002100012813D1022084F821000020A0637B
:100570002068056825F0010505602046FFF760FE4C
:100580002068E26A01683AB141F00E010AE00020F9
:1005900084F820000220B0BD21F004010160016850
:1005A00041F00A010160016841F001010160002091
:1005B000B0BD000080B507484FF0FF3100228160D8
:1005C0008260416042600160026000F0A7FA002092
:1005D00080BD00BF10380240B0B5044600F016FAE6
:1005E00005460548611C406818BF044400F00EFA37
:1005F000401BA042FAD3B0BD00000020B0B50546B4
:100600004CF250300C46FFF7C3FE00B1B0BD72494A
:100610000020486135B1012D06D0022D04BF002015
:10062000206003E0207001E0002020804CF2503078
:10063000BDE8B040FFF7ACBE8C0D00206D480168EE
:1006400041F0010101600020704700BF2DE9F04139
:10065000DFF88481074698F81000012801D10224B0
:100660000BE0012016460D4688F810004CF2503081
:10067000FFF78EFE044618B10FE02046BDE8F0817A
:1006800000200124082FC8F8140012D8DFE807F072
:1006900009202805310505054100002088F81000D3
:1006A000EBE74CF25030FFF773FE04460028F4D11C
:1006B0002BE0102FF1D14CF25030FFF769FE0446C9
:1006C0000028EAD14B48016821F4807101600EE0F6
:1006D0004CF25030FFF75CFE04460028DDD124E0E8
:1006E0004CF25030FFF754FE04460028D5D12E605E
:1006F0001EE04CF25030FFF74BFE04460028CCD1F0
:100700003C48016821F480710160300616D02E70DB
:100710000EE04CF25030FFF73BFE04460028BCD1FF
:100720003448016821F480710160300425D02E80A6
:100730004CF25030FFF72CFE0446AEE725F00306DE
:100740000220022437683146FFF758FF0020FF21BE
:1007500088F81000182000EAC50001FA00F03146C0
:1007600027EA00021020FFF771FF98F81010012906
:1007700093D0012188F81010DEE705F00306002071
:10078000032E88F810000BD10420294600220024F3
:10079000FFF75CFF691C04200022FFF757FF12E0FF
:1007A00025F00304022025682146FFF727FFF0000B
:1007B0004FF6FF7101FA00F0214625EA00021020F1
:1007C000FFF744FF044698F8100001281ABF0120E3
:1007D00088F81000022460E78C0D002005480168AD
:1007E000C90704BF01207047034981600349816044
:1007F00000207047043C0240EFCDAB8905040302A2
:1008000070B57B4E04464FF40071304600F0F4F8AA
:10081000054630464FF4807100F0EEF8B4F5007FE5
:1008200008BF012D05D0B4F5807F08BF002800D097
:1008300070BD054D17202C8100F094F968690121E5
:10084000BDE8704004F0A4BAB401002003490A686E
:10085000024208BF70470860FFF7D2BF140401408E
:100860002DE9FC4F5E4A05234FF0000B4FF0010AC3
:100870004FF0030E4FF000080025904208BF0323FD
:1008800000930C6834FA05F208BFBDE8FC8F0AFA41
:1008900005F214EA020900F09D804F68122F63D818
:1008A0000AFA07F414F0061F5ED08368CE680EFAC9
:1008B00008F46FEA040CA34306FA08F63343836096
:1008C0003B094668AB4026EA02021A4342606A00CE
:1008D000C3688E6803EA0C0396403343C36047F055
:1008E0001003122B11D10BF01C030F2404FA03F692
:1008F0006FF0030404EA550707443C6AB4430E69E9
:1009000006FA03F323433B624F68036807F00304CE
:1009100004FA02F203EA0C031A430260FA0059D502
:100920008F4B304E1A68A6F57E7742F001021A60AE
:100930001A680F2302F0010201920BF00C02019CD5
:100940009340AC0857F8246026EA030E274B9842E0
:1009500010D0274B984210D0264BDDF800C09842AB
:1009600008BF4FF0020C0AE00EFA08F26FEA020C20
:100970004246ADE74FF0000C01E04FF0010C0CFADD
:1009800002F242EA0E024FF0030E47F82420154F00
:100990003A684C6842EA0903E60358BF22EA0903B1
:1009A0003B60A6037A6842EA090358BF22EA0903BA
:1009B0007B60E602BA680C4E42EA090358BF22EA9D
:1009C0000903BB60A402326842EA090358BF22EA65
:1009D000090333600BF1040B08F10208013550E7FD
:1009E000000C0240000401400C04014000000240E1
:1009F00000040240000802400069084018BF0120BE
:100A00007047002A08BF09048161704729480068BF
:100A1000704700BF90F8382001460220012A0DD00F
:100A2000242281F839200A68D36860F38303002008
:100A3000D360202281F8380081F83920704770B3E4
:100A400010B5044690F8390028B9002084F8380021
:100A5000204601F09DFD242084F839002068C168FB
:100A600021F40051C160204602F0A6FC2068016913
:100A700021F490410161416921F022014161416904
:100A800041F008014161C16841F40051C16000209A
:100A90002021E06384F8391084F83A1010BD012059
:100AA000704700001B48034940680A68104408600A
:100AB000704700BFA40D002080B5032000F08EF821
:100AC000002000F007F808B1012080BD00F028F8F0
:100AD000002080BD70B50F4E04467068B0B14FF471
:100AE0007A71B1FBF0F00C490968B1FBF0F001F04C
:100AF00005FB01250F2C0AD848B94FF0FF302146DD
:100B00000022002500F04EF8346000E00125284660
:100B100070BD00BF00000020A8000020704700004A
:100B200083B00F48416841F000414160416801F0E5
:100B3000004102910299016841F0010101600168E0
:100B400001F0010101910199416841F0805141603A
:100B5000406800F080500090009803B0704700BFDC
:100B60002038024000280CD400F01F010122400967
:100B700002FA01F1034A42F82010BFF34F8FBFF38E
:100B80006F8F704780E100E0002808D400F01F015B
:100B90000122400902FA01F1014A42F8201070478F
:100BA00000E100E070B5134B4FF0FF351B68C3F355
:100BB0000223DC1E83F0070338BF0024042B28BF68
:100BC000042305FA04F605FA03F3B2439943A1405E
:100BD0001143BDE8704003F0A9BE00BF05494FF6C0
:100BE000FF030A681A4060F30A22034810430860B2
:100BF000704700BF0CED00E00000FA05B0B501F051
:100C0000070501EB8104090605EB850500EBC4042B
:100C100000EBC50000F1280058BF04F5B4702AB1FC
:100C2000012103810173190C418102E00021C3807D
:100C300001730020B0BD000004480129026822F0C1
:100C4000010308BF42F00103036070470400014044
:100C500001EB810200EBC202D0F8E802D26B02F095
:100C600006BE01EB810200EBC202D0F8E802D2F826
:100C70007C2102F05BBE10B5044601F007000906B6
:100C800000EB800104EBC1015DBF002281F8692106
:100C900001F5B471012244BF81F829202831087080
:100CA00094F8A802012804BF022010BD012084F896
:100CB000A802206803F0AAFA002084F8A80210BD58
:100CC000B0B50446406801F00F02824201D9012507
:100CD00023E001F0070009064FF0000500EB80015A
:100CE00004EBC1015DBF002281F8692101F5B471F7
:100CF000012244BF81F82920283108708D7094F8B2
:100D0000A802012801D1022507E0012084F8A802E9
:100D1000206803F006FB84F8A8522846B0BD01F015
:100D2000070101EB810100EBC100D0F8840170479D
:100D3000B0B5044601F00700090600EB800104EBA2
:100D4000C1015DBF002581F8695101F5B47101252C
:100D500044BF81F8295028310A61CB7008704A7865
:100D600002B1C881022B04BF0020087194F8A802C8
:100D7000012804BF0220B0BD012084F8A802206829
:100D800003F022F9002084F8A802B0BDB0B501F04C
:100D90000701002501EB810400EBC40404F5BE77D4
:100DA0002CC784F8681104F5B47184F8695100689F
:100DB00003F008FB0020B0BDB0B50446406801F068
:100DC0000705854284BF0120B0BD080609D401EBA8
:100DD0008100002104EBC00080F8691100F5B471B6
:100DE00008E005EB8500012104EBC00080F8291024
:100DF00000F1280194F8A82201200D708870012AC2
:100E000004BF0220B0BD84F8A802206803F0C2FA33
:100E100025B9206804F52C7103F081FA002084F8CC
:100E2000A802B0BDB0B501F00704002504EB8401B1
:100E300000EBC10101F8284F012401F1140781F8EA
:100E400024402CC70B624C70006803F0BBFA0020F2
:100E5000B0BD00002DE9F84F0446006803F01AFD0C
:100E600000047ED4206803F015FD40050DD52068F0
:100E7000B0F8441021F48061A0F84410204600F03E
:100E8000CBFB2046002100F0E1FB206803F002FDCF
:100E900001462068490405D5B0F8441021F480418A
:100EA000A0F8441003F0F6FC01462068890405D53B
:100EB000B0F8441021F40051A0F8441003F0EAFC0B
:100EC00001462068C90415D5B0F8401021F004018E
:100ED000A0F84010B0F8401021F00801A0F8401030
:100EE000204600F0ABFB2068B0F8441021F480519C
:100EF000A0F8441003F0CEFC000515D52068B0F82A
:100F0000401041F00801A0F84010B0F8441021F45E
:100F10000061A0F84410B0F8401041F00401A0F8BE
:100F20004010204600F0C6FB206803F0B3FC8005AB
:100F300009D52068B0F8441021F40071A0F84410DD
:100F4000204600F07FFB206803F0A4FCC00506D516
:100F50002068B0F8441021F48071A0F84410BDE876
:100F6000F88F04F52C70009040F60F752068B0F9EA
:100F70004410B1F1FF3F3FF776AFB0F8442012F0D4
:100F80000F084DD030F828904FEA480A5FEA09412F
:100F900040F1458130F81A102940803120F81A10AC
:100FA00008EB880104EBC10B9BF874110BF5B476C8
:100FB000002900F0A3809BF86B11022940F0AE805D
:100FC0003178B0F850205FEA494302EBC10200EBF0
:100FD000420200F1DB80B2F80C74DBF880316FF371
:100FE0009F27DA1B4FF0000338BF1A46CBF8802149
:100FF00009D830F8212043F60F731A404AF28003D3
:101000005A4020F821205FEA496200F19E8030F8C2
:10101000212048F2C0032A401A4320F8212094E0FE
:101020000188D2062BD4294001F50041018094F8B3
:101030002810B0F8502002EBC10100EB4100E16B39
:10104000B0F804046FF39F20606408440021E0635B
:101050002046FFF7FDFD94F82400002886D0206C80
:1010600000287FF483AF206894F8241041F08001B9
:10107000C9B2A0F84C10002084F8240076E70A05D5
:1010800068D409047FF572AF01882940803101805E
:1010900094F86811B0F8502002EBC10100F20C4244
:1010A00032F811306FF39F23C4F88431A3B1D4F820
:1010B0007C1189B1B4F86E2103F0EFFBD4F87C0108
:1010C000D4F8841108440021C4F87C012046FFF7BD
:1010D000C8FD206800F20C42D4F87831B0F8501006
:1010E000002B00F0A1803E2B00F2A68003F001054A
:1010F00005EB530340F60F759B02AAE03178B0F878
:10110000502002EBC10100EB4101B1F80C746FF308
:101110009F27002F6BD0BBF86E2162E0317848F238
:10112000C00330F821202A401A4320F8212030F84B
:101130002120B0F8503003EBC101520400EB410113
:1011400048D4B1F80C746FF39F27002F4FD0BBF831
:10115000722146E094F86811B0F8502002EBC1010A
:10116000B4F86E2100EB4101B1F80C3400996FF333
:101170009F23C4F8843103F090FB20680188294044
:1011800080310180204600F075FAEFE6B2F8047471
:10119000DBF880316FF39F27DA1B4FF0000338BF75
:1011A0001A46CBF8802109D830F8212043F60F7376
:1011B0001A404AF280035A4020F821205FEA49622F
:1011C0000CD530F8212048F2C0032A401A4320F8F9
:1011D000212003E0B1F804746FF39F273FB1BBF8FF
:1011E0007021DBF87C113B4603F057FB00E0002741
:1011F0000BF5BE7207CA3A443844CBF88421CBF8C9
:101200007C0119B1DBF87801B84204D93178204665
:10121000FFF727FD03E02068314603F0D3F85FEACB
:1012200009607FF5A3AE20E08B5AC14E23F4F8434A
:101230008B528B5A33430CE0DD064FF0FF364FEAFA
:10124000531508BF06EB5315B94B43EA852340F607
:101250000F758B5243F60F72018811404AF28002DB
:1012600002F580525140018080E6206840F60F76FA
:1012700030F81A10294001F5004120F81A1008EB47
:10128000880104EBC1025FEAC95102F1280A46D580
:1012900092F82B10022942D19AF80010B0F8503081
:1012A0005FEA496503EBC10300EB430354D4B3F891
:1012B0000C34156C00276FF39F23ED1A38BF3D46A1
:1012C000156440F284805FEA494509D430F8215022
:1012D00035404AF2800606F50056354320F8215085
:1012E000154615F84C6F012E40F01381174657F83C
:1012F000488F57E904E657F8049C06EB030C09EB0A
:101300000306F04547F80CCC47F8046C7BD2B8F1E3
:10131000000F00F0C6800023C6462B7075E0156CE8
:101320009AF80010B0F85030002603EBC10300EB30
:101330004303B3F804346FF39F23ED1A38BF3546E7
:10134000156440D9D16B556C1944D163E9185164C7
:10135000514603F037F807E6B3F80434156C00275C
:101360006FF39F23ED1A38BF3D46156436D95FEA07
:10137000494509D530F8215035404AF2800606F536
:1013800000573D4320F82150174617F84C5F012DB8
:1013900040F0BF80154655F848EF55E9049C55F8D4
:1013A000048C9C4408EB0306CE4545F80CCC45F86C
:1013B000046C45D24FF00008BEF1000F87F80080A2
:1013C00041D19E4641E02046FFF742FCCCE5204655
:1013D000FFF73EFC5FEA494007D59AE02046FFF759
:1013E00037FC5FEA494040F194809AF80000216898
:1013F0004AF2800303F5005331F8202032401A43AB
:1014000021F8202085E0A8EB0E033B6092F82930FC
:10141000012B34D0002B66D10901B0F85030BEF159
:10142000000F01F10C01014401F580613DD0BEF1D6
:101430003E0F4AD80EF0010505EB5E05AD0251E006
:10144000AEEB0908CE46C5F8008092F82930012B92
:101450001ED0002B57D10901B0F85030BEF1000F5B
:1014600001F10401014401F5806126D0BEF13E0F77
:101470003BD80EF0010505EB5E05AD0242E0090127
:10148000B0F850300C3101441944A1F800E42AE0CE
:101490000901B0F85030043101441944A1F800E4C6
:1014A00031E000269E462E70B0E75D5A25F4F845DF
:1014B0005D525D5A45F4004514E05D5A25F4F84547
:1014C0005D525D5A45F400451CE05FEACE654FF081
:1014D000FF364FEA5E1508BF06EB5E154FF4004677
:1014E00046EA85255D52528E0EE05FEACE654FF0EA
:1014F000FF364FEA5E1508BF06EB5E154FF4004657
:1015000046EA85255D52128E1FFA8EF3614603F07E
:10151000DFF99AF80000216840F63F7331F8202087
:101520001A4048F2C003103B5A4021F820201BE526
:101530000080FFFF00284ED0F0B585B0044690F83B
:10154000A90228B9002084F8A802204600F046F835
:10155000032084F8A902206802F0D8FE6168002008
:1015600001220023DDB2A9420FD905EB850604EB69
:10157000C60686F82830F58686F82920C6E90E00CA
:10158000306486F82B000133ECE700200022D3B250
:1015900099420FD903EB830304EBC303C3E95E0055
:1015A00083F86821C3F8800183F86B0183F869012F
:1015B0000132ECE704F1080E20689EE8EC508DE85B
:1015C000E05002F097FE0020012184F8240084F806
:1015D000A91205B0F0BD012070470000E0B5006819
:1015E0000B49884218BF8CBD0A480022016841F4AB
:1015F000000101600321006800F4000001900198DF
:101600001420FFF7CFFA1420BDE88C40FFF7BCBAD6
:10161000005C00402438024010B50446806802286F
:1016200018BFFEF78FFED4F8E802012102F053FA4A
:10163000D4F8E802BDE8104002F013BAD0F8E8028E
:1016400002F037BAD0F8E80202F039BA10B5044611
:1016500090F8A802012804BF022010BD84F82410CD
:10166000012084F8A802206803F02CF9002084F8F7
:10167000A80210BDD0F8E82200F52C71104602F047
:1016800036BA10B5044690F8A802012804BF02201B
:1016900010BD012084F8A802206803F0EBF8204672
:1016A0000121FFF7C9FA206802F022FE002084F829
:1016B000A80210BD10B50446D0F8E80202F054FAB2
:1016C000A06920B10248016841F00601016010BD27
:1016D00010ED00E02DE9F04100286DD0884F044660
:1016E0000D46D7F8000400F00100884214D2012D05
:1016F00005D1D7F8000440F00400C7F80004D7F87B
:10170000000420F001002843C7F80004D7F80004C3
:1017100000F00100A8424FD12068810705D5A168DB
:10172000BA6822F0F0021143B960C0073CD1D7F883
:10173000000400F00100A84214D9012D05D1D7F80A
:10174000000440F00400C7F80004D7F8000420F0BB
:1017500001002843C7F80004D7F8000400F0010096
:10176000A84229D12068410705D5E168BA6822F46A
:10177000E0621143B960000706D52069B96821F419
:10178000605141EAC000B86000F0DAF8B968324A46
:10179000C1F30311515CC8406649086059480068AC
:1017A000BDE8F041FFF796B96068032807D002282A
:1017B00049D13968890305D40120BDE8F081396831
:1017C0008901F9D5B96821F003010843B860FFF732
:1017D0001DF90646606841F28838032821D00228A6
:1017E0002BD001280BD1B86800F00C0004289ED043
:1017F000FFF70CF9811B03204145F4D909E0B868D3
:1018000010F00C0F93D0FFF701F9811B0320414525
:10181000F5D9BDE8F081FFF7F9F8811B03204145B8
:10182000F7D8B86800F00C000C28F4D17FE7FFF778
:10183000EDF8811B03204145EBD8B86800F00C009F
:101840000828F4D173E73968012802D18907B3D594
:10185000B8E78905B0D5B5E71A4E010870B5284D2F
:10186000686820F0FF2000F530406860286840F488
:1018700080702860FFF7CAF804462868800505D400
:10188000FFF7C4F8001B0228F7D90EE0A86841F260
:10189000883620F00300A860A86810F00C0F06D06E
:1018A000FFF7B4F8001BB042F6D9032070BD214801
:1018B0003649016013480068FFF70CF900B170BDAC
:1018C0002868114908402860286820F48020286092
:1018D000FFF79CF804462868800105D5FFF796F8C5
:1018E000001B0228F7D9E0E700204FF43F01A86071
:1018F000E860E960696B41F08071696370BD00BFA9
:101900000038024000000020FEFFFEEE09480A49B0
:101910000A4A00680968C1F30221515CC840704757
:1019200004480549054A00680968C1F3C221515CB1
:10193000C8407047A8000020083802402A4E01081D
:1019400010B5114911484A68C2F38103DFE803F07A
:1019500002090A0C08684FF48031C0F3423001FAE2
:1019600000F010BD0B4810BD094CC2F38343C2F315
:10197000815249680132E35CC90348BF05485843B6
:10198000B0FBF2F010BD00BF043802400024F400A8
:10199000524F010800127A002DE9F843002800F0A8
:1019A0007981E44E0446B06800F00C09B06800F498
:1019B00080372078C00710D0B9F1080F06D0B9F1F0
:1019C0000C0F40F0BC80002F00F0B980306880031D
:1019D00003D56068002800F05D81207880072AD553
:1019E000B9F1040F19D0B9F10C0F08BF002F14D0B2
:1019F000E168D148002900F02C8101210160FFF746
:101A000005F80546306880070ED4FEF7FFFF411B3E
:101A100003200229F6D9BDE8F8833068800703D592
:101A2000E068012840F036812069716821F4F8519E
:101A300041EA002070602078C00624D42078000796
:101A400038D4207840074AD4676ACFB1B9F10C0F77
:101A500040F0D180012F00F01D81A16AB06800F430
:101A600080328A4240F01681E16A00F470128A42A4
:101A700040F01081216B00F44000884240F00A8160
:101A80000020BDE8F883B9F1000F37D0A069002825
:101A900000F0A080CC4801210162FEF7B7FF0546A7
:101AA0003068800500F1C780FEF7B0FF401B0228B8
:101AB000F6D911E0606900287AD0C3480121C0F846
:101AC0008016FEF7A3FF0546706B8007B9D4FEF7BA
:101AD0009DFF401B0228F7D90320BDE8F883706AF8
:101AE000C0003DD4706A4FF0010840F08050706231
:101AF000706A00F080500090009833E030688005F4
:101B000003D5A069002800F0C580206A716801F43F
:101B10006041884240F2AD8001F0B2F9002840F007
:101B2000B980D4E90710726822F4604202437260FF
:101B3000726822F07F4242EA016171602EE16068C2
:101B4000002800F0C180012806D03168052840F047
:101B5000F58041F480203060306840F48030F3E05C
:101B60004FF000089C4F3868C00510D4386840F426
:101B700080703860FEF74AFF05463868C00506D415
:101B8000FEF744FF411B03206429F6D943E7A06810
:101B9000002800F08280012806D0716B052840F0F3
:101BA000A98041F480607063706B40F48070A7E09E
:101BB00085480021C0F88016FEF728FF0546706BA7
:101BC00080077FF53EAFFEF721FF411B032002296E
:101BD000F5D920E77C4800210162FEF717FF054692
:101BE000306880057FF52AAFFEF710FF411B032008
:101BF0000229F5D90FE77449002088460866FEF7E8
:101C000005FF0546022F0BD147463068800140F1A1
:101C1000AA80FEF7FBFE411B03200229F5D9FAE654
:101C2000306880017FF52CAFFEF7F0FE411B0320EA
:101C30000229F5D9EFE6D4E90701726822F460427F
:101C400011437160716821F07F4141EA006070606A
:101C5000F4E600210160FEF7D9FE054630688007F2
:101C60007FF5E9AEFEF7D2FE411B03200229F5D92C
:101C7000D1E6716821F4604101437160E1697268E5
:101C800022F07F4242EA0161716001F0F9F8002818
:101C900000F083800120BDE8F883706B20F4807031
:101CA0007063706B20F480607063FEF7AFFE0546D2
:101CB00041F28837706B800532D5FEF7A7FE411BD5
:101CC0000320B942F6D9A6E6306820F480303060AF
:101CD000306820F480203060FEF798FE05463068BA
:101CE00080037FF57AAEFEF791FE411B0320642945
:101CF000F5D990E621F480707063706B20F48060F9
:101D00007063FEF783FE054641F28837706B8005ED
:101D100006D4FEF77BFE411B0320B942F6D97AE6D2
:101D2000B8F1000F3FF490AE706A20F080507062FE
:101D30008AE600BF003802400000474221F48030AC
:101D40003060306820F480203060FEF75FFE05468A
:101D5000306880033FF541AEFEF758FE411B03207B
:101D60006429F5D957E604F1280207CAB36823F4B9
:101D70007D03184308431043B06001203866FEF726
:101D800045FE0446306880013FF57AAEFEF73EFE20
:101D9000011B03200229F5D93DE6206A400B4FF4D0
:101DA00080310A4A01FA00F0B168C1F30311515CB5
:101DB000C8400749086007480068FEF78BFE002806
:101DC0007FF429AE3AE600BF000047421A4E0108F0
:101DD000A80000200000002000700040704790F82C
:101DE000510070471FB504460068416882684B0681
:101DF00005D502F04103012B01D1216C05E00B0652
:101E000008D512F0020305D0616C204604B0BDE88D
:101E1000104008478B0610D512F060030DD012F069
:101E2000400316D094F85130032B07D100210291C2
:101E3000C16802918068029002981FBD636D43F0F3
:101E40000403636500230393C368039383680393C8
:101E5000039B12F020020CD0626D42F00102626519
:101E60000022019282680192026822F04002026020
:101E7000019A626D002AE0D04268890722F0E002F0
:101E800042604FF0010284F851201CD0416821F0DB
:101E900003014160E06C40B10E494163FEF7AEFAC8
:101EA00018B1606D40F040006065A06C0028C4D09F
:101EB00008494163FEF7A2FA0028BED0606D40F0E9
:101EC000400060651FBD204604B0BDE81040FFF72C
:101ED00085BF00BF3D2F0108F8B538B10446406A00
:101EE00030B10020206104F1140007E0012546E034
:101EF0006068B0F5827F03D004F11C00002101600E
:101F00000025A56294F8510000284FF0000007D189
:101F1000204684F8505000F035F8A06A00F40050D4
:101F2000022184F8511094E84E0002F4827203F406
:101F300004430F681A4406F400631A4427F040076C
:101F40000F60236903F002031A44636903F001037D
:101F50001A44A36903F400763244E66906F03806B1
:101F60003244266A06F0800632431043086004209B
:101F700000EA134048600120656584F85100284656
:101F8000F8BD000070B586B0044601A81421FEF724
:101F9000E6F82168574881423ED12049002600F5E5
:101FA000E6308A6842F480428A608A6802F480429D
:101FB0000092009A0A6842F002020A60096801F081
:101FC000020100910521039605910321049102214C
:101FD00002914FF460410191009901A9FEF740FC84
:101FE0000F4D104A10218020C5E90021C5E902608B
:101FF0002846C5E90466C5E90666FEF771FA08B128
:10200000FEF7A0F92420002100226C62A564FEF7EF
:10201000C9FD2420FEF7B8FD06B070BD1C38024093
:102020004409002058600240F8B5044690F850007A
:10203000012804BF0220F8BD012084F8500094F864
:102040005100012831D1012081B37AB3032000234C
:1020500084F851006365E286A2862163A363C4E924
:102060001033A387E387A0682268B0F5004F07D13B
:10207000106820F040001060106840F4804010604C
:10208000A06C154D164F154E0C32C0E90A75C0E90B
:102090000C63E38EFEF75AFA60B1606D40F01000F9
:1020A0006065012084F8510000E00220002184F8DE
:1020B0005010F8BD20680168490603D4016841F05A
:1020C00040010160416841F020014160416841F0F8
:1020D000020141600020E9E7672F0108492F01084C
:1020E0006D2F010800680349884208BF01F03AB823
:1020F000704700BF0038004070470000411E0020BC
:10210000B0EB116F1CBF01207047044AF0235160EF
:1021100003490B70072190601160704710E000E0E8
:1021200023ED00E010B590F838300222012B24D0C6
:1021300080F83920012280F8382002680B68546842
:10214000B2F1804F24F0700444EA030493685460B1
:1021500008D0E14CA24205D03C4CA24202D03C4CFB
:10216000A24204D1496823F0800319439160002200
:10217000012180F8382080F83910104610BD00BFCA
:1021800000B310B5044690F8390028B9002084F84F
:102190003800204600F018F80220211D84F839008C
:1021A000206801F061F8012084F83E0084F83A00CC
:1021B00084F83B0084F83C0084F83D0084F8390042
:1021C000002010BD01207047E0B500680B4988422F
:1021D00018BF8CBDC1480022016841F010010160A8
:1021E0000021006800F01000019001982B20FEF7FC
:1021F000D9FC2B20BDE88C40FEF7C6BC0010004087
:1022000090F8391001291CBF01207047022180F885
:1022100039100068C168B0F1804F41F00101C16020
:1022200008D0D149884205D0D049884202D0D0494F
:10223000884204D1816801F00701062903D00168B2
:1022400041F0010101600020704700BF000801401B
:1022500000080040704710B504460068016989070E
:1022600044BFC1685FEA81712BD40169490744BF4B
:10227000C1685FEA417130D40169090744BFC16890
:102280005FEA017136D40169C90644BFC1685FEADB
:10229000C1613BD40169C9071CBFC1685FEAC17154
:1022A00041D10169490644BFC1685FEA416100D478
:1022B00010BD6FF0400101612046BDE8104000F004
:1022C00065B96FF002010161012121768069800703
:1022D00031D02046FFF7BEFF33E06FF0040101610B
:1022E00002212176806910F4407F2ED02046FFF72E
:1022F000B1FF30E06FF00801016104212176C0696F
:1023000080072CD02046FFF7A5FF2EE06FF01001CC
:10231000016108212176C06910F4407F29D0204650
:10232000FFF798FF2BE06FF001010161204600F0FC
:1023300021F92068B5E7204600F04AF8204600F071
:10234000CFF80020207620688FE7204600F040F884
:10235000204600F0C5F80020207620688CE7204653
:1023600000F036F8204600F0BBF800202076206808
:1023700089E7204600F02CF8204600F0B1F8002054
:102380002076206886E7000010B586B0044601A8D4
:102390001421FDF7E4FE21687348814216D1954966
:1023A00000F500300A6842F002020A600022096863
:1023B00001F002010091022104920591CDE902127F
:1023C00020210191009901A9FEF74AFA06B010BD3B
:1023D00070470000B0B5044690F83800012804BFEB
:1023E0000220B0BD012084F838004FEAB200032873
:1023F00037D80D46DFE800F0020A1222206829468D
:1024000000F07DFF206850F8181F0EE02068294674
:1024100000F08BFF206850F8181F16E0206829464E
:1024200000F09BFF206850F81C1F41F0080101607C
:10243000016821F004010160E9680FE02068294685
:1024400000F0A2FF206850F81C1F41F400610160F9
:10245000016821F480610160E968090202681143A2
:102460000160002084F83800B0BD00B310B5044608
:1024700090F8390028B9002084F83800204600F090
:1024800019F80220211D84F83900206800F0ECFEC4
:10249000012084F83E0084F83A0084F83B0084F878
:1024A0003C0084F83D0084F83900002010BD012074
:1024B0007047000081B000682B49884209D1074865
:1024C000016841F002010160006800F00200009024
:1024D000009801B0704700BF00040040243802405B
:1024E0007047000010B5044641B1082909D00429FD
:1024F00014BF04F13D0004F13B0004E004F13A0094
:1025000001E004F13C00007801281CBF012010BD4F
:10251000022041B1082909D0042914BF84F83D00E4
:1025200084F83B0004E084F83A0001E084F83C00C1
:102530002068012200F0D4FE2068B0F1804F08D05E
:102540000949884205D00949884202D00849884291
:1025500004D1816801F00701062903D0016841F028
:1025600001010160002010BD00040040000801408E
:1025700000080040044900680968884200D070479C
:1025800022480121C17170470C0D002070470000E6
:1025900010B586B0044601A81421FDF7E0FD2168BE
:1025A0001348814221D1134900F54C404A6842F456
:1025B00080424A604A6802F480420092009A0A68A7
:1025C00042F002020A60096801F00201009107214D
:1025D00005910321049100210391122102914021D0
:1025E0000191009901A9FEF73BF906B010BD00BFAB
:1025F000003801401C380240FEE700000348017922
:10260000B1FA81F14909017100F078BDB4010020EF
:10261000F0B55200002337240025AA4208BFF0BDC0
:1026200004EB1076070FB0F1204F4FEA001038BFCF
:1026300007F130064E5545F0010602358B55ECE7A3
:102640002DE9F84F1F481D4E1D4F4FF000094FF068
:1026500000088346B8F1090F08BFBDE8F88F5FFA9C
:1026600088FA504600F030F858460024DBF80000A5
:10267000C04385B2102C1CD005FA04F03A5D00046A
:102680000BD5305D632812D80130082830550ED1A3
:10269000E1B2504600F098FA09E032B1305D082806
:1026A00003D3E1B2504600F057FB06F80490013422
:1026B000E0E71037103608F10108CBE7FA010020F7
:1026C000324E0108100802407CB50D4D044640F220
:1026D000FF11012201262846FEF793F906FA04F0BD
:1026E000002281B22846FEF78CF90520ADF80600DD
:1026F000BDF80600411E0028ADF80610F8D17CBDDB
:102700000000024080B5EA480B49002201F088F839
:1027100008B1FDF717FEEE48084901F042FA08B18A
:10272000FDF710FEEA4801F050FA18B1BDE880400C
:10273000FDF708BE80BD00BF08000020C0000020DB
:1027400010B5A849087850B1B9280AD037280AD05E
:1027500073280AD0142814BF0020372006E0142064
:1027600004E0FA2002E0732000E0B920087000F0D5
:1027700013F9FDF73CFD564C2046FFF730FB0128CE
:10278000FAD110BDE0B58DF80700012004218DF8C5
:1027900006000020ADF8040001A800F0F5FC8CBD97
:1027A000B0B5044600791E2809D3E1799548002583
:1027B00008448278002000F027F92560B0BD3C3144
:1027C0001E2201302160874920710978C1F1FE0184
:1027D00091FBF2F16FF0010200FB1120E179C2B22E
:1027E0000020BDE8B04000F00FB900BF10B50A4CA2
:1027F0000146674A207852F83030013B8B4204D2C0
:1028000002EBC000FFF7CCFF20780130C1B20F29E6
:1028100088BF0020207010BD8A0200207CB52A4CA1
:102820002A4E082101222046B04704F50060042109
:1028300000220025B047204604210022B047012095
:10284000FDF7CAFE83200321ADF805508DF807007F
:102850000DF1050000F098FC4D480021102903D02F
:1028600040F831500131F9E7194C0320009020461F
:10287000FFF7B5FA0128FAD10098411E002800910F
:10288000FADC5848007800F087F8114C2046FFF732
:10289000A6FA0128FAD1032000900098411E0028D2
:1028A0000091FADC0120FFF76DFF094C2046FFF78D
:1028B00096FA0128FAD1032000900098411E0028C2
:1028C0000091FADC7CBD00BF00040240030A01084D
:1028D000740C00202DE9F84380462C4814460078FB
:1028E00018B329482A4D8946002600EB0810475C9A
:1028F0000020802E19D0A95931B1A9190836CA79FA
:10290000BA4208BF0871F4E7FEF780F83C300021B6
:10291000FF22A851A8190171C77180F8069080F8AC
:1029200005800020394600F06FF8F02C11D0F22C11
:1029300018BFBDE8F88329492A480978007800299A
:1029400008BF08462F49C2B281F8900000208E21AE
:1029500015E0234823492B4C0022007809780028F1
:1029600018BF114684F8CE1084F8C210CAB20020F5
:10297000C02100F049F894F8CE200020CC21BDE819
:10298000F84300F041B800BFC24E0108B901002071
:10299000A80D00207047000080B51A49002292B2AD
:1029A000F02A03D28B1802329870F8E7E7480078D3
:1029B00010B9002081F89000E648007820B100208E
:1029C00081F8CE0081F8C200012000F00DF8054822
:1029D0000078BDE8804000F097BB00BFB801002040
:1029E000B7010020B60100200649002201284A70E4
:1029F0004FF00402084608BF02220A70F22100F0DC
:102A0000C3BB00BFA8050020E0B502208DF806106A
:102A100003218DF807208DF805000DF1050000F069
:102A2000B3FB8CBDB0B5154C0023362B0CD0E5188C
:102A30000333ED78002DF8D1E254E21802F8020CCD
:102A4000012002F8011CB0BD0020B0BDB0B50B4C98
:102A5000207800EB400121440D4615F8032F32B1D8
:102A600048788978FFF736FF0020287020780130F9
:102A7000C1B2112988BF00202070B0BD67010020BD
:102A800080B5FDF7C3FFBDE88040FFF7AFBE000093
:102A9000E0B58DF806000220002103228DF8050024
:102AA00047488DF807100DF1050100F05BFE8CBD65
:102AB000A8060020E0B500200DF1050103228DF8E5
:102AC00007000220ADF805003D4800F04BFE8CBD2C
:102AD000A8060020FEE770471FB5002053210922F9
:102AE0008DF80710012102908DF80C003448ADF8E4
:102AF000041001A900F036FE324CE06902F056F9EC
:102B0000A069012102F044F91FBD00BF10B52D4C92
:102B10000020062807D02118013091F827105329EA
:102B200008BF10BDF5E7206A02F040F9E069012115
:102B3000BDE8104002F02CB922488179B1FA81F148
:102B40004909817100F0DABA10B51E48817999B14E
:102B5000002200F11C0100F12003062A06D084188F
:102B6000013294F82740532CF7D119460868012107
:102B7000BDE8104002F00CB910BD00BF10B5114CFB
:102B8000A07938B1206A02F011F9E069BDE810407F
:102B900002F00CB910BD00BFF8B5002001210922D8
:102BA000CDF80700ADF80B000548ADF8041001A9F9
:102BB00000F0D8FD0348806902F0F8F88FBD00BF2F
:102BC000A8060020B401002070B5064602F0F80007
:102BD00014460D46E02802D1A44801210170A4F159
:102BE000E000182813D8DFE800F00D21262B353A35
:102BF0003F4518181818181818185058185E6062B1
:102C0000186466009B48417841F0010130E0492C8E
:102C10005BD0652C01D1964869E095483A2C007844
:102C20005ED100285CD000F06FF969E091484178EE
:102C300041F002011CE08F48417841F0040117E0A7
:102C400044488C490078013818BF01204A7842EA8C
:102C5000C00018E08748417841F0100108E085483D
:102C6000417841F0200103E08248417841F0400181
:102C7000417023E037487F490078013818BF0120B0
:102C80004A7842EAC010487018E07948007808B1E4
:102C9000FDF7ECFAFDF7A8FB10E07548007828B3C3
:102CA00000F068FA0AE0B52006E0B62004E0B7209C
:102CB00002E0CD2000E0E220FFF7EAFE30462946A0
:102CC0002246BDE87040FFF7ADBE6948007888B184
:102CD000FFF794FC30462946F222FFF7A3FEEDE70A
:102CE000532C0DD160B1FFF727FFE7E7184801210A
:102CF0000170E3E715485F49007849780843DDD063
:102D00005A480121017004F0070001FA00F05A4905
:102D100001EBD4018A7810438870564900200628B8
:102D200009D00A18D278A242C8D00130002AF6D1C0
:102D300008448470C2E74E4900200628BED00A1815
:102D400001305278002AF8D10C54B7E7B8010020BE
:102D5000B5010020B7010020F8B5064602F0F800E2
:102D600014460D46E02802D1404801210170A4F12B
:102D7000E000182811D8DFE800F03B40454A4F54E6
:102D8000595E16161616161616166363160D0D0DD9
:102D9000160D0D00FFF78EFE52E0652C03D134486E
:102DA000002101704CE031480121017004F007005E
:102DB00001FA00F0304901EBD4018A7822EA0000E0
:102DC00088702C490020062843D00A180130D27898
:102DD000A242F8D1264A08440021062937D05318C8
:102DE00001315B78002BF8D000278370575427E01F
:102DF0002048417801F0FE0121E01E48417801F0B1
:102E0000FD011CE01B48417801F0FB0117E0194867
:102E1000417801F0F70112E01648417801F0EF0126
:102E20000DE01448417801F0DF0108E011484178D5
:102E300001F0BF0103E00F48417801F07F014170CC
:102E4000304629462246BDE8F840FFF7A3BD0021E1
:102E50008170074900200628F2D00A180130527804
:102E6000A242F8D100220A54EAE700BFB4010020D0
:102E700060010020D8010020E1010020704700001F
:102E800081B01D490A6812F0F00F01D0002223E042
:102E9000CA69D200DE4A0ED4CB6943F08053CB61BD
:102EA000CB6903F080530093009B1368CA6922F03A
:102EB0008052CA6100E013680022B0F5404F0BD188
:102EC00003F4C050B0F5C05F06D1D1F8F803012279
:102ED00040F00400C1F8F803D1F8F80320F0010035
:102EE0001044C1F8F803D1F8F80300F00100801A8B
:102EF00018BF012001B07047083802409C480421E7
:102F00000022FDF77EBD00BF084C25686668FEF70D
:102F1000A5FCFDF74FFB0648002101604160816080
:102F2000CD48046085F30888B047FEE7003000080C
:102F300010E000E09E48FEF755BF00BF406A002148
:102F4000C187C186FEF74ABF406A01684A6822F01D
:102F500003024A60416D41F010014165012180F892
:102F60005110FEF73BBF406AFFF7C6B8BCB5446AD4
:102F70000546FDF74BFD024628680068800627D409
:102F80002068416821F020014160416821F0020180
:102F900041602046642100F021F818B1606D40F0D6
:102FA00020006065A06838B9002001902068C168E1
:102FB00001918068019001980020E086012084F84A
:102FC0005100606D20B12046BDE8BC40FEF706BF51
:102FD0002046BDE8BC40FFF785B800001CB504469C
:102FE0003F4813460A4611490068B0FBF1F04FF420
:102FF0007A71484301906068B0F5827F0AD120461B
:10300000802100F015F870B1606D40F0200060651F
:1030100003201CBD019830B101980138019020684F
:1030200080680006F6D400201CBD00BF00366E018B
:103030002DE9FC411E4617460D468046FDF7E6FC8D
:10304000301AC419FDF7E2FC06462548013700682E
:10305000C0F3CB3060430190D8F80000816829406C
:10306000A9420ED1002FF9D0FDF7D0FC801BA04261
:103070000AD20198019901390028019108BF04463C
:10308000EAE70020BDE8FC81D8E900014268B1F51B
:10309000827F22F0E00242600BD1D8F80810B1F52F
:1030A000004F02D0B1F5806F03D1016821F04001DB
:1030B0000160D8F82810B1F5005F07D1016821F44C
:1030C00000510160016841F400510160002088F85E
:1030D0005000012088F851000320BDE8FC8100BFAA
:1030E000A8000020704700000246002820484FF04A
:1030F000010118BF0122FDF784BC00BF2148012156
:10310000006901F045BE00BF014909688863704746
:10311000CC0C00200246002815484FF4006118BF6F
:103120000122FDF76EBC00BF10B504460028024620
:103130000F484FF4806118BF0122FDF762FC002C9C
:10314000BDE8104018BFFFF719BDFFF7FDBC00BF79
:103150000246002806484FF0020118BF0122FDF781
:1031600050BC00BF024804210122FDF74ABC00BF49
:103170000004024003484179B1FA81F149094171E3
:10318000FFF7BCBFB401002070B5094D0C460646E0
:103190002846FEF724FE0128FAD1FFF7AFFE2846A5
:1031A00031462246FEF740FF28688168C06870BD3E
:1031B000740C0020FDF776BC10B592B005AC1C2154
:1031C00004F10800FCF7CBFF11480122016862F30B
:1031D000CC2101604FF4000011904FF4801010904A
:1031E0004FF480300F9002200E902046CDE905224A
:1031F000FEF7D2FB002001210490CDE9020003205C
:1032000001900F2000906846FEF764FA12B010BDDE
:10321000007000400D480E4A016841F48071016061
:10322000816811400B4A81600168114001600168AA
:1032300021F480210160816821F47D0181600021F9
:10324000C16005484FF000610160704700380240DE
:103250000CC0FF88FEFFFEEE08ED00E00148FEF71F
:10326000FABF00BF0C0D002010B50268B0F1804F0E
:1032700005D0164B984202D0154B984203D14B68AB
:1032800022F070021A43B0F1804F0ED0104B9842DA
:103290000BD00E4B984208D00E4B984205D00E4BE7
:1032A000984202D00D4B984203D1CB6822F4407271
:1032B0001A430B688C68096922F08002114301608F
:1032C0000121C4628362416110BD00BF000800405B
:1032D000000400400008014000100140000C0140C3
:1032E00010B501F01F010123046A8B4002FA01F1BD
:1032F00024EA03030362026A1143016210BDB0B500
:10330000026A22F001020262026A43688469436031
:1033100024F0730422F00202D1E9003589682343C6
:103320001143836145630162B0BDB0B5026A22F00A
:1033300010020262026A43688469436024F4E6442E
:1033400022F02002D1E90035896844EA032342EAE9
:103350000111836185630162B0BDB0B5026A22F4D8
:1033600080720262026A4368C469436024F0730495
:1033700022F40072D1E900358968234342EA012131
:10338000C361C5630162B0BDB0B5026A22F4805268
:103390000262026A4368C469436024F4E64422F48A
:1033A0000052D1E90035896844EA032342EA013139
:1033B000C36105640162B0BDB0B50446006804F1A4
:1033C00008030ECB056925F4405519432A4349F2F9
:1033D0000C650261C26863691943E369AA43194332
:1033E0001143C1604169A26921F4407111434161F7
:1033F0001E49884202D0FEF789FA01E0FEF790FAF2
:103400001921E26948436168B2F5004F15D14900BE
:103410006FF06303B0FBF1F06421B0FBF1F202FB4B
:103420000300322303EBC000B0FBF1F14FF4F8705E
:1034300000EA410001F0070112E089006FF0630328
:10344000B0FBF1F06421B0FBF1F202FB0300322388
:1034500003EB0010B0FBF1F101F0F00001F00F01FF
:1034600000EB0210084321688860B0BD00380140BD
:1034700080B5D0F88C2252689047002080BD80B57E
:1034800013460A46002100F0E3FA002080BD80B513
:1034900013460A46002100F070FB002080BD10B5E5
:1034A0008021044600F04EFB20460021BDE810407C
:1034B00000F048BB80B5052100220023C0F86C1243
:1034C000002100F0C5FA002080BD80B513460A46F1
:1034D0000221C0E90733C0F86C12002100F04DFB57
:1034E000002080BD80B5042100220023C0F86C12AA
:1034F000002100F042FB002080BD000010B5274CE9
:103500000A4603A0214600F065F8204610BD00BF22
:1035100048494420436F6E666967000012200880A6
:1035200000487047AC00002010B51C4C0A4603A0B0
:10353000214600F04FF8204610BD00BF4849442006
:10354000496E74657266616365000000042008803E
:10355000004870474001002010B5104C0A4603A0F7
:10356000214600F037F8204610BD00BF4C696E6759
:103570006578000010B5094C0A4603A0214600F00A
:1035800029F8204610BD00BF4C696E67657820524F
:10359000656275696C642047363130008C0200200A
:1035A000B0B51A200880094908688A6880180BD0CD
:1035B000074D4C680822A91CFFF72AF805F11201F3
:1035C00020460422FFF724F80148B0BD5000F81F40
:1035D00044010020B0B5D8B100230446257815B1C8
:1035E00001340133FAE7DCB2022303EB4404148014
:1035F0000C70032201240A5502784AB1DCB29D1CEA
:1036000001300A5543F001022B46D4B20022F2E702
:10361000B0BD0000032884BF022070470249C000EB
:1036200021FA00F0C0B2704700020102D0F8900207
:103630000021017300207047F8B5404D04462E4626
:1036400056F80C0B013001C5204600F0AEF90746D4
:10365000284631463A46FCF769FD204601213246AC
:10366000082300F0F5F92846394600F027F8002035
:10367000F8BD00BFB0B50A4D81210446A8472046D9
:103680000121A84720468221A847D4F8900220B102
:1036900000F095FC0020C4F890020020B0BD00BFEF
:1036A0005D3801083021018000487047F800002093
:1036B0000A210180004870473401002010B50446FB
:1036C0000078012818BF10BD607800F00100FFF7F6
:1036D0002BFD607800F00200FFF706FD607800F037
:1036E0000400BDE81040FFF733BD000070B5124E76
:1036F0008121032220230446B047204601210322D2
:1037000008230125B0472046822103221A23B0470F
:10371000102000F055FCC4F8900258B10748012170
:10372000082300F10C02204600F092F9D4F8900230
:1037300000250573284670BD393A0108A001002014
:1037400010B513460A4690F87412032908D1D0F830
:1037500090120C7B24B901240C73812100F00DFA26
:10376000002010BD10B513460A4690F874120329C4
:1037700008D1D0F890120C7B24B901240C7381215C
:1037800000F0FBF9002010BD10B50B78D0F89022A6
:1037900013F060030ED0202B28D14B78023B092B6D
:1037A00026D8DFE803F0051F252525252525292C0A
:1037B000111D18E04B780B2B0ED00A2B0FD0062BC7
:1037C00014D1CA78212A1DD0222A21D1CA881349AE
:1037D000832A28BF832207E08878906006E002F100
:1037E000080100E011460122FFF76FFE002010BD26
:1037F000FFF755FE022010BDC8785060F6E78878C4
:103800001060F3E7CA880449092A28BF0922EBE7B8
:1038100000220021E8E700BF28010020240000204A
:1038200088B180B5D0F88C3213B10023C0F88C3247
:1038300009B1C0F888120121027080F8741200F0FA
:10384000B9F8002080BD0220704780B5D0F89802FA
:10385000FDF736FABDE88040FFF7DCBE80B5D0F852
:103860009802FDF708FABDE88040FFF7D3BEB0B577
:10387000044669B1D4F88C0242693AB194F87402F2
:10388000032803D1204690470020B0BD0220B0BDE0
:10389000D4F86C0280B104280ED002283DD1D4E9BE
:1038A000081081420DD9081A114683B220622046C1
:1038B0001A46FFF7ECFD18E02046802100F042F99F
:1038C0002BE0E169814217D3B1FBF0F202FB10104B
:1038D00090B9D4F8700281420ED220460021002215
:1038E0000025FFF7D4FDC4F87052204600210022C5
:1038F000002300F0ADF810E0D4F88C02C16829B1C3
:1039000094F87402032801D120468847204680217C
:1039100000F018F92046FFF7CDFD94F8781200204A
:10392000012904BF84F87802B0BDB0BDB0B504462B
:1039300061B1D4F88C02826932B194F87402032820
:1039400002D1204690472DE002252CE0D4F86C02ED
:103950000025052812D0032825D1D4E9531081422F
:1039600013D9091AC4F84C11814238BF084683B2F2
:10397000114620461A46FFF782FD13E0204600213B
:10398000C4F86C5200F0DEF80DE0D4F88C02016946
:1039900029B194F87402032801D1204688472046B3
:1039A000FFF7A0FD00252846B0BDD0F89802FDF72E
:1039B000B6B90000B0B5044614480021144B0822E3
:1039C000016281610221C4F89802C0F8E8420161F5
:1039D000C0E900328160FDF7ADFD08B1FCF7B2FC33
:1039E000D4F898020B4D002100221823A847D4F8E0
:1039F0009802802100225823A847D4F898028121F8
:103A000000224FF48073A8470020B0BD8809002031
:103A1000005C0040FD0B010801F07F02D0F8980225
:103A2000090602EB820200EBC20000F12A0258BF35
:103A300000F5B5721078704710B51446D0F89802AA
:103A40001A462346FDF774F9BDE81040FFF7E2BDC2
:103A500080B5D0F89802FDF799F9BDE88040FFF7EE
:103A6000D9BDF8B500210022402304460025402698
:103A7000FFF7E2FF01272046802100224023C4F8FF
:103A80005061C4F84471FFF7D7FFD4F8900284F86E
:103A900074726662A761C4F86C52C4F87C526560A7
:103AA00028B1D4F88C0200214268204690470020BB
:103AB000F8BD90F8751280F874120020704780B538
:103AC00090F87412032904D1D0F88C12C96901B19D
:103AD0008847002080BD01740020704780B5D0F871
:103AE0009802FDF7B3FDBDE88040FFF793BDB0B588
:103AF00000F520750446284600F048F8B4F8861210
:103B00000120C4E99B0194F8800200F01F01022902
:103B100007D001290AD071B92046294600F05AF889
:103B20000EE02046294600F085F909E020462946A6
:103B300000F01FFA04E000F08001204600F002F8D7
:103B40000020B0BD80B5D0F89802FDF735F9BDE88A
:103B50008040FFF75FBD80B5D0F89802FDF791FD7A
:103B6000BDE88040FFF756BD90F8741280F87512DA
:103B7000042180F874120020704780B5D0F89802B4
:103B8000FDF750F9BDE88040FFF744BD0A780270A8
:103B90004A7842704A8842808A888280C988C18077
:103BA000704719B1C0F88C1200207047022070478E
:103BB00080B5D0F88C2232B112689047002818BF27
:103BC0000120400080BD022080BD80B5FFF7C3FF0B
:103BD000002080BDBCB5044608780D4610F060009A
:103BE0000BD0402802D0202840F0D680D4F88C0298
:103BF0002946826820469047D1E06878092800F27B
:103C0000CB80DFE800F0051BC927C95274C92F3DDE
:103C100094F874020138022800F2BE80E888022875
:103C200040F0BA80D4F87C0203222146002808BF65
:103C3000012241F80C2F2046022273E094F874020E
:103C40000138022800F2A8806888012840F0A78087
:103C5000002004E06888012840F0A1800120C4F819
:103C60007C02C7E0E888012840F0968094F874024E
:103C7000411E022951D20020214641F8080F4FE091
:103C800068886B4DC1B22870022980F0858094F855
:103C90007402032849D0022840F06580002900F012
:103CA000A980032084F8740249E0A888002840F025
:103CB0007380E888002840F06F8068887F2800F2D1
:103CC0006B8094F87412032900F06680C5B284F802
:103CD000760220462946FFF701FF2046FFF702FC47
:103CE000002D0CBF0120022084F8740257E0688880
:103CF0004FF0FF3101EB102106294DD8DFE801F02C
:103D0000043B264C4C414A00D4F88812207C0A68B7
:103D10000DF10601904701465CE003283CD1211DCE
:103D200020460122FFF7D1FB39E0002939D0606835
:103D300088425FD0C1B22046FFF79AFB297820461F
:103D40006160FFF735FF022826D053E0C0B2052896
:103D500022D8DFE800F00353585D6267D4F8881278
:103D6000207C4A68D4E72046FFF799FB2978204653
:103D7000FFF77EFB13E0217CD4F88C02D1B1C16A3D
:103D800019E0207C40B9D4F88C02416B0DF106009B
:103D90008847C0E7207CA0B12046FFF780FB0020C9
:103DA000BCBD00206060022084F874022046FFF74A
:103DB0005FFB1FE0816A0DF1060088470146022083
:103DC00007E0D4F88C02016B0DF10600884701462C
:103DD00007204870BDF8060048B1EA883AB1904221
:103DE00038BF02462046ADF80620FFF76EFBE88894
:103DF0000028D4D12046FFF775FBD0E7D4F888120D
:103E0000207C8A6884E7D4F88812207CCA687FE71F
:103E1000D4F88812207C0A697AE7D4F88812207CCA
:103E20004A6975E7D4F88812207C8A6970E700BF78
:103E30008B020020B0B5044608780A4610F06000F6
:103E40000AD0402801D0202875D1D4F88C02114620
:103E500083682046984771E0202807D1D4F88C0267
:103E6000114683682046BDE8B04018475078117964
:103E7000A8B101282ED003285DD194F8740203283C
:103E80002CD15088002863D141F0800080285FD079
:103E9000D08800285CD12046FFF754FE58E094F803
:103EA0007402032828D0022845D141F080008028E0
:103EB00041D101F07F00090600EB800004EB800097
:103EC00000F1140258BF00F5A072002011461060E6
:103ED00020464AE094F87402032831D002282AD1FF
:103EE00041F08000802826D02046FFF72BFE204698
:103EF0008021FFF727FE21E001F00F0211F0800082
:103F000002EB820204EB820214BF9269D2F84421D0
:103F10008AB101F07F02002841F0800002EB8202AA
:103F200004EB820202F5A07518BF02F11405802887
:103F300012D1002016E02046FFF7B1FA0020B0BDF4
:103F400050880028FAD1480602D02046FFF77DFCB1
:103F50002046FFF7C7FAF1E72046FFF75DFD00288E
:103F6000E7D001202860204629460222FFF7ADFA5B
:103F7000E4E7B0B5044608780D4610F0600018BFBD
:103F8000402815D194F874020138022812D8A88864
:103F900010F0FE0F0ED1D4F88C022946826820461C
:103FA000904750B9E88840B92046FFF79BFA04E0F3
:103FB0002028E7D02046FFF772FA0020B0BD7047F6
:103FC000004870478C0400202DE9F0430E7891F8EA
:103FD0000380024647F2706400EB860930F8260041
:103FE000B8F1030F20EA040707D80020DFE808F043
:103FF00002070D0A47F4007706E0012005E047F4C8
:10400000806701E047F4C067002048F2800C47EA6F
:104010000C0440F60F77A9F80040B9F800403C4086
:10402000344344EA0C04A9F800400C7B002C52D025
:10403000B9F8004040F60F673C400CF580773C43F0
:10404000A9F8004002F58064B2F850500B8904EBE7
:10405000061723F001037B5333010833B2F85020D5
:1040600023444C8924F001049C52B9F8002049787B
:1040700002F48042002957D04AB1B9F8001040F646
:104080000F7211400CF580421143A9F80010B9F8E5
:104090000010490609D5B9F8001040F60F7211401A
:1040A0000CF140021143A9F80010B9F8001040F6D5
:1040B0003F72B8F1010F01EA02010CF1200282EA1D
:1040C000010208BF41EA0C02A9F80020B9F800106B
:1040D00043F60F724FE0B2F8507002F5806436017B
:1040E00004EB070E4F78002F49D0C98821F0010159
:1040F0002EF80610B9F80010490609D5B9F80010D5
:1041000040F60F7211400CF140021143A9F8001063
:10411000B9F8001040F63F72B8F1010F01EA020150
:104120002AD00CF1200269E04AB1B9F8001040F63B
:104130000F7211400CF580421143A9F80010B9F834
:104140000010490609D5B9F8001040F60F72114069
:104150000CF140021143A9F80010B9F8001043F621
:104160000F7211400CF54052514040F63F72A9F8D1
:104170000010B9F80010114041EA0C013FE0CF886F
:1041800046F0080527F001072EF8057046F00C05EB
:104190000E69B2F8501025443EB13E2E0DD806F0FF
:1041A000010202EB5602920212E04A5B164C22F424
:1041B000F8424A534A5B22430AE0F4064FF0FF32CA
:1041C0004FEA561408BF02EB56140F4A42EA842203
:1041D0004A53B9F80010490409D5B9F8001040F65F
:1041E0000F7211400CF580421143A9F80010B9F884
:1041F000001043F60F7211400CF540525140A9F8DF
:104200000010BDE8F08300BF0080FFFFB0B50C7860
:104210000D7B4B7848F2800130F8242000EB8400BD
:104220003DB302F480427BB33AB1028840F60F738B
:104230001A4001F580431A4302800288520607D5CE
:10424000028840F60F731A4001F140031A430280BE
:10425000028840F60F731A4001F580431A4340F676
:104260003F73028002881A400A43028043F60F72AD
:104270002EE09BB3520629D5028840F60F731A40F0
:1042800001F140031A4320E03AB1028840F60F736F
:104290001A4001F580431A4302800288520607D56E
:1042A000028840F60F731A4001F140031A4302805E
:1042B000028840F60F731A4001F140031A4343F697
:1042C0000F73028002881A400A43028040F63F7250
:1042D00003881A40114301800020B0BD5204C5D5A7
:1042E000028840F60F731A4001F580431A43BCE779
:1042F000002070470121A0F840100021A0F84010D4
:10430000A0F84410A0F8501000207047B0F84010FA
:1043100044F2FF021140A0F8401000207047002036
:104320007047B0B50A7B9ABB0A784C7830F82230D7
:104330005200BCB15B0648F2A00309D530F8124028
:1043400040F60F752C4003F120052C4320F8124055
:10435000C97801291CD030F8121040F63F74214072
:10436000594013E059044BF2800109D530F812305E
:1043700040F60F74234001F58054234320F8123097
:1043800030F8123043F60F742340594020F81210D1
:104390000020B0BD10B50A784978094B002940F6D5
:1043A0003F7108BF03F57F6308BF43F60F7130F814
:1043B00022402140594020F82210002010BD00BFAB
:1043C0009080FFFF2DE9F041044648780D46012812
:1043D00059D12E69AF69B74288BF3746287B00287C
:1043E00070D0E878022840F09B80287840F60F6271
:1043F00034F820102B6A0A404100B34240F2C880D2
:1044000048F28017000148F280083A4304F58067BB
:1044100024F811209A1B2A6234F81120B4F85010A5
:104420003944520600F10B8140F00400B3B20E5241
:10443000204669692A8900F04BFA68692A6981195E
:10444000286A6961831A38BF00232B6288BF10462F
:104450006A78012A00F04D81002A40F0F081B4F81A
:1044600050202B7800284FEA03133A4403F10C0341
:1044700000F0C8813E2800F2D58100F0010606EB6D
:104480005006B602DAE1297B61B3E978012958D0F8
:1044900002297AD1002840F07B81B4F850002A78B4
:1044A00004F580610B1828691201161D002800F020
:1044B000F4803E2800F22D8100F0010707EB500741
:1044C000BF0231E1EA886969BBB2204600F000FA18
:1044D000B4F8500029780901204404310844A0F8B8
:1044E000007483E02869AA69111A38BF0021A96104
:1044F00088BF0246B4F85000002A297820444FEAC9
:10450000011100F5806001F10C0348F280016FD0C9
:104510003E2A75D802F0010606EB520292027BE0B9
:10452000297834F82120B4F85000090120445206BB
:1045300000F5806040D441F00401475205F10800C5
:104540003FE02A69A9698B1A38BF0023AB6188BF95
:104550001146002840F03781B4F8500004F580621D
:1045600048F2800C002902EB000628784FEA00137D
:1045700003F1040700F0A7803E2900F2E38001F078
:10458000010000EB51008002E7E00120BDE8F0816E
:1045900048F2800600013243043024F81120204400
:1045A000B4F850100844A0F800349BB22046696962
:1045B0002A8900F08DF919E041F00C01475205F10C
:1045C0000A0002886969BBB2204600F081F9697867
:1045D00048F28000012923D041B9297840F60F73B1
:1045E00034F821201A4000F1400321E09F4822E0E6
:1045F0001A5A22F4F8421A521A5A42F400420BE0B4
:10460000D7064FF0FF364FEA521708BF06EB521796
:104610004FF4004242EA87221A5201F54050E5E089
:10462000297840F60F7334F821201A4000F58043B2
:104630001A4324F82120303040F63F71D8E040F092
:104640000C00B3B20E52204669696A8900F040F945
:1046500068692A698119286A6961831A38BF002349
:104660002B6288BF10466A78012A4AD0002A40F09F
:10467000F580B4F850202B7800284FEA03133A4411
:1046800003F1040300F0C6803E2800F2DA8000F057
:10469000010606EB5006B602DFE0F05A20F4F840BF
:1046A000F052F05A40F40040F052B4F85000084480
:1046B00042F00C01425A22F4F8424252425A42F469
:1046C0000042425264E0B85B43F00C0120F4F84031
:1046D000B853B85B40F40040B853B4F850001044ED
:1046E000425A22F4F8424252425A42F400424252A2
:1046F0007AE0B4F850202B781B013A440C33D052A6
:104700009DE0B4F850202B781B013A440433D0527A
:10471000A4E0C7064FEA501E4FF0FF3C544F08BFBD
:104720000CEB501E47EA8E27F75242F00C023E284F
:10473000B4F8503019441ED800F0010303EB5000C8
:10474000800224E0C8064FEA51184FF0FF3E484867
:1047500008BF0EEB511840EA8820B85343F00C0311
:104760003E29B4F85000024431D801F0010000EBBA
:104770005100800237E0C6064FF0FF334FEA501673
:1047800008BF03EB50164FF4004040EA8620505219
:10479000E869C0B12A7844F2400648F2800134F852
:1047A000220000EA060301F54050B34200D0EBB905
:1047B000520040F60F76403134F81230334019433E
:1047C00024F8121012E0294800F540500EE0CE0601
:1047D0004FF0FF304FEA511608BF00EB51164FF46F
:1047E000004040EA862098520CF5405043F60F7185
:1047F0002A7834F822301940484024F8220000205A
:10480000BDE8F0819E5A26F4F8469E529E5A46F420
:10481000004613E09E5A26F4F8469E529E5A46F4ED
:1048200000461AE0C7064FF0FF364FEA501708BFA0
:1048300006EB50174FF4004646EA87269E526A89D7
:104840000DE0C7064FF0FF364FEA501708BF06EBE2
:1048500050174FF4004646EA87269E522A8983B2B3
:10486000204600F035F808F13000E5E68080FFFFD3
:104870000080FFFF0021A0F844104FF43F41A0F852
:1048800040100020704700000148FCF7E3BA00BF69
:1048900088090020B0F84400704710B500EB4200D2
:1048A00000F58062481C590831B132F8044B0139D7
:1048B00020F8014C0230F7E7D9071CBF118800F837
:1048C000011C10BD11B98021A0F84C1000207047C8
:1048D00000EB42005A1C00F5806052082AB131F802
:1048E000023B013A20F8043BF8E77047FEE700007E
:1048F00080B5FEF7DFF80348C068BDE8804000F0EF
:1049000055BA00BFB4010020B0B50C460546FBF710
:1049100065FF02202946FBF771FE02202946224648
:10492000FBF794FEBDE8B040FBF788BE10B5074C1E
:1049300000F00F03044AB0F1FF3F2344C8BF8318BF
:104940000801187010BD00BF00E400E014ED00E0A5
:104950000648BFF34F8F064A016801F4E061114336
:104960000160BFF34F8F00BFFDE700BF0CED00E01B
:104970000400FA0588B0D748D7490160FCF79CF8D5
:10498000FEF71AFC0027D54DD64E40F2FF1101224A
:104990004FF0010ACDE90377286840F00400286051
:1049A000286800F0040006900698286840F020006F
:1049B0002860286800F0200006900698286840F0DB
:1049C00001002860286800F0010006900698286819
:1049D00040F002002860286800F002000690069867
:1049E000286840F008002860286800F00800069059
:1049F0000698BB4800F5FE3980464846B04708F5A2
:104A0000003440F60B410022C3462046B047204602
:104A100084210122B04748464FF400410022B047AC
:104A200008F50238042100224046B0474FF6FF70D7
:104A3000CDE9017A6E4600900BF50130DFF8A8B29F
:104A40003146D84703203146039040F2FF10CDE9AC
:104A500001A700904846D84740F68B400397CDE920
:104A600001A7314600902046D847032031460390E5
:104A70000420CDE901A74FF0010A00902046D84755
:104A80004FF400400397CDE901A731460090484616
:104A9000D84704200397CDE901A73146009040464E
:104AA000D8479249CDF808A001F5801088463146D4
:104AB00001904FF4807000902046D847CDE9018ADC
:104AC0004FF4007820463146CDF80080D8471720B3
:104AD00004210022FCF766F81720FCF755F8286837
:104AE0000021002240F080702860286800F080706B
:104AF000009000980F20FCF755F80F20FCF744F8C1
:104B0000FDF700FE764E7A484FF482710A2506F5CD
:104B10005052C0E90021C0E90277C0E90477C0E93A
:104B20000687C0E90877C0E90A75FDF7D5F9714C29
:104B30000C204FF4E13106F59A32C4E90021C4E9B2
:104B40000277C4E904702046C4E90677FBF777FFD3
:104B50002046FBF75FFF684CFF20CDE90677C4E9EC
:104B60000065C4E902702046C4E90477FDF77DFCC6
:104B700006A92046FDF7D6FA60200397CDE9017714
:104B80006946042200902046FDF724FC20460421BB
:104B9000FDF7A8FC2046FDF7F7FB584C40F2E73044
:104BA0001F2106F54062CDE900776761C4E9002165
:104BB000C4E902702046FDF7E3FA69462046FDF796
:104BC000B1FA2046FDF71CFB4D4C606830B932202D
:104BD000FEF79AFA6420FBF7FFFCF6E749484A4FD4
:104BE0000168B97081683971C16879710069B871FB
:104BF000F878FEF78FFAFDF711FE4448444D142172
:104C000000224FF00008A847F860424841F288317E
:104C10000022A84738614048012100220126A84708
:104C20007861FBF7F3FEC0B2002200F164013B485B
:104C3000A847F8613A4814210022A847B8613948CA
:104C400019210022A847386237480A210122A847C3
:104C5000364801210122A847354801210122A847F1
:104C6000344802210122A847032087F8246007F175
:104C7000240507F12D0687F82D00387890B1F878D3
:104C800087F8008028B9204629460922FEF76AFDE8
:104C900008E097F825003146192287F82E002046B3
:104CA000FEF74EFD787818B187F80180FDF748FDD2
:104CB000F87928B187F8078000F080F800F050F804
:104CC00094F874020328D8D04FF4FA70FBF784FCF0
:104CD000FBF7CCFA08ED00E0000001081C380240A8
:104CE00000040040030A01086108010800001110D7
:104CF000740C00204C0D0020CC0C00200C0D00206A
:104D0000A806002000000808B4010020F1480108AE
:104D1000394D0108F5010108E9020108D92A010805
:104D2000992B01080D2B01089D020108412601085D
:104D30004D2A0108812A010870B52F4C034660688E
:104D40000F28CFBF4FF0FF3004EB00150026C5E958
:104D50000236DEBFC5E90412411C616070BD00BFB0
:104D600070B5254C002604F10C0560688642A8BF8A
:104D700070BD20682968884207D3D5E9011208442C
:104D8000286012B155F8040C804710350136ECE765
:104D90000F280ADC184A0123012902EB00104361A5
:104DA00003DB016912681144C16070470F2804DCFD
:104DB000114901EB0010002141617047F0B50E4828
:104DC00001680131B1F1FF3F016000DDF0BD4368D2
:104DD00000F10C02002400259D4209DAD2E90067A7
:104DE0000135761A38BF2646BE1B16601032F3E72F
:104DF00000210160F0BD00BFA004002002E008C84F
:104E0000121F08C1002AFAD170477047002001E044
:104E100001C1121F002AFBD17047000000000000F2
:104E20000000010203040607080900000000010257
:104E300003040000000000000000F0F1F7F5F3F4B7
:104E400056F8293A3B3C3D3E3F40414243444546AB
:104E500047480000351E1F20212223242526272D08
:104E60002E0000002B141A0815171C180C12132FF3
:104E70003031000039041607090A0B0D0E0F3334C8
:104E800000280000E1001D1B0619051110363738F7
:104E900000E50000E0E3E200002C000000E6E7652A
:104EA000E4502A494A4B535455574C4D4E5F60616C
:104EB0005C5D4F626358595A5E5B515200000000BE
:104EC00000000000000000000000EC96A2AADCB484
:104ED000E2A0000A141E28323C46505A646E788CB8
:104EE0009A980000020C16202A343E48525C6670E4
:104EF0007A000000040E18222C36404A545E687274
:104F00007C86000006101A242E38424C56606A74C3
:104F10000088000008001C26303A444E58626C7627
:104F2000008A0000BEC0C20000C6000000CACCCE8D
:104F3000D0D2848E929CA6B0BAE090949EA4AEB8D3
:104F4000A8ACD8DAE4DEEEB2B6BCD6D400000000DD
:104F50000000030406080C1018203000804F0108E0
:104F6000000000206001000098010108785001084D
:104F700060010020C81400000C4E01080000000071
:104F8000321032011E1D3501084D041A59041A75DC
:104F9000041AA1041EFD3401082908101005010996
:104FA00006A1018501050719E029E715281A250141
:104FB00075019508810295017508810395057501B4
:104FC0000508190129059112180803910395067522
:104FD00008261A653011142965811EC0050C0901C7
:104FE00041130219152A3C02152B263C292A1019B7
:104FF000495A1C03950844795E12812D95B87501B4
:105000000A39421AB729111468FF1F13120132021C
:1050100016408304DB4E1D02010203B91BED36B0BE
:10502000190485893701081A2D101A3904C11AA5E7
:105030001069041AB1041409023013010125A0FA01
:1050400009041B03030B1509211101140122831606
:105050000705810320170107050103082D0A07052D
:10506000820E791E314B0A0688197F11071A040334
:0850700009041A03000000000E
:04000005080100F5F9
:00000001FF
