:020000040800F2
:20300000002000208DA90008C5520008C7520008C9520008CB520008CD5200080000000083
:20302000000000000000000000000000CF520008D152000800000000D3520008D5520008E0
:20304000DDA90008DDA90008DDA900083D530008DDA90008DDA9000869530008795300087A
:203060008953000899530008A9530008DDA90008DDA90008DDA90008DDA90008DDA90008AE
:20308000DDA90008DDA90008DDA90008DDA9000831530008DDA90008DDA90008B95300083C
:2030A000DDA90008DDA90008DDA90008DDA90008DDA90008DDA90008DDA90008DDA90008A0
:2030C000DDA90008DDA90008DDA90008DDA90008DDA90008DDA90008DDA90008DDA9000880
:2030E000CB530008DDA9000835530008DDA90008DDA9000800000000000000000000000070
:2031000000000000000000005FF808F110B5054C237833B9044810B10448AFF30080012125
:20312000217010BDE0050020000000000C31000808B5064B1BB106480649AFF30080064800
:20314000016811B1054A02B1904708BD000000000C310008E4050020E00500200000000053
:2031600073B96AB9002908BF0028BCBF00204FF00041C4BF6FF000414FF0FF3000F03CB858
:2031800082B0EC462DE9005000F006F8DDF804E002B00CBC704700BF2DE9F041164698464D
:2031A00004460D4600F02AF806FB01FCA6FB002300FB08C7FB18A21A65EB0303069CC4E960
:2031C0000023BDE8F08100BF2DE9F041904606460F461D4600F070F900FB05F3A0FB0845A2
:2031E00008FB0138069B4544341B67EB0505C3E90045BDE8F08100BF704700BF00292DE943
:20320000F00F1D46C0F29D800024002DC0F2948080460F4694461E46E3BB8A4255D9B2FAC9
:2032200082F747B1C7F1200520FA05F601FA07F1BA40B8403143170CB1FBF7F61FFA82FC7F
:2032400007FB16110CFB06F5030C43EA01439D4208D9711E9B1880F013819D4240F210811B
:20326000023E9B18591BB1FBF7F507FB15130CFB05FC80B240EA03418C4507D96B1E8A18A1
:2032800080F00081944540F2FD80023D45EA0641002503E08B420CD9002529460A462B46F1
:2032A00014B1524263EB430310461946BDE8F00F7047B3FA83F5002D40F087808B4201D3E7
:2032C0008242EAD800250121E8E712B90126B6FBF2F2B2FA82F6002E39D18E1A130C1FFA8F
:2032E00082FC0125B6FBF3F703FB17610CFB07F84FEA104949EA0146B04506D9791EB618CE
:2033000002D2B04500F2D3800F46C8EB0606B6FBF3F103FB11630CFB01FC80B240EA0343DE
:203320009C4506D94E1E9A1802D2944500F2C280314641EA0741B1E7E443524263EB4303FD
:2033400066E7404261EB41014FF0FF345DE7B240C6F1200921FA09F720FA09F901FA06F15F
:20336000130CB7FBF3F81FFA82FC03FB18770CFB08F549EA01094FEA194141EA0747B04030
:20338000BD420AD9BF1808F1FF3680F08E80BD4240F28B80A8F10208BF18791BB1FBF3F5EA
:2033A00003FB15170CFB05F61FFA89F949EA07418E4206D96F1E891871D28E426FD9023D54
:2033C00089188E1B45EA08458CE7C5F1200122FA01F306FA05F627FA01F207FA05F720FAA7
:2033E00001F11E434FEA1649B2FBF9F81FFA86FA09FB18220AFB08FB0F433B0C43EA02425B
:2034000093450CFA05FC08D9921908F1FF314AD2934548D9A8F102089219CBEB0203B3FB4C
:20342000F9F109FB11320AFB01FABFB247EA02439A4506D94A1E9B1933D29A4531D9023971
:203440009B1941EA08410F0C1FFA8CF808FB07F68AB24FEA1C4C08FB02F80CFB02620CFB40
:2034600007FC02EB1842964288BF0CF5803CCAEB03030CEB124C63450ED305D000250DE79F
:203480000E46EFE61D4601E700FA05F01FFA88F808EB0245A842F1D201390025FEE63D4683
:2034A0008FE71146CDE78846B7E7B04675E7023FB6182AE702393CE72DE9F007144605469D
:2034C0000E46002B3DD18A4249D9B2FA82F747B1C7F1200120FA01F206FA07F6BC40BD4078
:2034E0001643220CB6FBF2F0A1B202FB106601FB00F32F0C47EA0646B34208D9471E3619BB
:2035000080F0FA80B34240F2F78002383619F61AB6FBF2F302FB136201FB03F1ADB245EA04
:203520000242914207D95E1E121980F0E780914240F2E480023B43EA00400021BDE8F00746
:2035400070478B4243D8B3FA83F4002C42D18B4202D3824200F2E18000210120EEE712B9CE
:203560000127B7FBF2F4B4FA84F2002A40F089800A1B230CA7B20121B2FBF3F603FB162269
:2035800007FB06F04FEA154C4CEA0242904207D9121906F1FF3C02D2904200F2D08066467C
:2035A000121AB2FBF3F003FB102307FB00F7ADB245EA03439F4207D9421E1B1980F0A0806C
:2035C0009F4240F29D80023840EA0640B6E700210846B3E7C4F1200622FA06F703FA04F383
:2035E00021FA06F501FA04F120FA06F63B434FEA134CB5FBFCF71FFA83F80CFB175508FBEC
:2036000007F946EA010A4FEA1A4141EA0545A94502FA04F204D97E1EED18C0F081803746DA
:20362000C9EB0501B1FBFCF60CFB161508FB06F81FFA8AFA4AEA0541884503D9751EC918CB
:2036400074D32E4646EA0746370C1FFA82FC0CFB07F5120CB3B20CFB03FC02FB035302FB7C
:2036600007F203EB1C439D4288BF02F58032C8EB010102EB134291424CD343D030460021A2
:203680005CE79440C2F1200521FA05F620FA05F501FA02F1230CB6FBF3FCA7B203FB1C667B
:2036A00007FB0CF829430D0C45EA0646B04500FA02F508D936190CF1FF303ED2B0453CD9A8
:2036C000ACF1020C3619C8EB0602B2FBF3F003FB102607FB00F889B241EA0642904506D915
:2036E000461E121927D2904525D902381219C8EB020240EA0C413FE7384608E733461AE7CF
:20370000104661E700FA04F01FFA8CFC0CEB03439842B3D2701E002110E7214620460DE779
:20372000A9457FF67CAF023FED1879E7884588D9023EC91886E73046D9E78446C3E7023EAF
:2037400012192DE740F0BF60024B40F40031D960704700BF00ED00E0C37813B31749CB6819
:203760004178DA43C2F30223C3F10402D2B201FA02F1CAB20F2141FA03F381780B401A43EF
:2037800003781201D1B203F1604202F5614383F800130078012200F01F03410902FA03F073
:2037A00007E00078012200F01F03410902FA03F02031034B43F82100704700BF00ED00E0FE
:2037C00000E100E0837910B5002B29D01A4B01681C68CA4314401C605C6822405A600279B9
:2037E00002F1804404F5823214682143116002689C68D1430C409C60DC68407921401028B4
:20380000D96006D1986810439860D9680A43DA6010BD00F1804303F5823319680A4308E0A1
:203820000179006801F1804202F582331A6822EA00021A6010BD00BF00040140014B586166
:20384000704700BF00040140044B5A68D20703D503480449D860D960704700BF003C0240EE
:20386000EFCDAB8905040302024B5A6842F0010058607047003C0240084B9A69D10709D410
:203880009869C20508D4996911F4F05F0CBF0420032070470120704702207047003C024036
:2038A00013B5042304468DF80730FFF7E5FF8DF807009DF80700012806D134B1FFF7DCFF5B
:2038C000013C8DF80700F4E714B905218DF807109DF807001CBD000038B504464FF4004086
:2038E0000D46FFF7DDFF04280BD1064B5A6822F4807058604FF400402560BDE83840FFF7AF
:20390000CFBF38BD003C024010B504464FF40040FFF7C6FF042801D10023236010BD38B5FB
:2039200004464FF400400D46FFF7BAFF04281BD135B14FF400402570BDE83840FFF7B0BF20
:2039400024F0030504F00304E000FF2202FA00F12B68284623EA0104FFF7D6FF28462146AF
:20396000BDE83840FFF7B8BF38BD038A19420CBF002001207047018370474183704701F076
:20398000070330B59B000F2404FA03F402FA03F2C908083150F8215025EA040440F8214011
:2039A00050F82140144340F8214030BD0B8810B54C88028823438C8802F441522343CC880E
:2039C00023430C8923434C8923438C892343CC89098A23431A4393B20380828B22F40063D7
:2039E0001A04130C8383018210BD038819B199B241F0400303E023F040010A04130C038039
:203A00007047808980B2704781817047038919420CBF002001207047014B1860704700BF60
:203A200020000E42014B1860704700BF8006474200F44032B2F5403F084B06D1196800F0A6
:203A4000C04021F0C04108431860596B21F440305863596B0A435A63704700BF00380240CF
:203A6000014B1860704700BFD8064742044BDA6909B1104301E022EA0000D861704700BF6A
:203A800000380240044B1A6A09B1104301E022EA00001862704700BF00380240044B5A6A62
:203AA00009B1104301E022EA00005862704700BF0038024006494309012B0CBF0968496BAB
:203AC00000F01F0021FA00F202F00100704700BF003802400388B0F1804F9BB20AD0114A6A
:203AE000904207D002F58062904203D002F58062904203D14A8823F0700313430A4A90424C
:203B000008D002F58062904204D023F440730A899BB2134303804B6809880122C3620185B9
:203B200082827047000400400010004000214FF0FF3343600180018141807047038819B131
:203B400099B241F0800303E023F080010A04130C03807047038819B199B241F0010303E0D0
:203B600023F001010A04130C03807047038C30B523F001021404250C0584038C028B23F03E
:203B8000020322F0730425040C882A0C1D0422432B0C0C894D8849682C43A4B223434163FD
:203BA0000283038430BD038C10B523F010021404230C0384038C028B23F0200322F4E04439
:203BC00022040C88120C42EA04221C04230C0C8992B243EA04134C88496843EA04139BB239
:203BE00081630283038410BD038C10B523F480721404230C0384038C828B23F4007322F0A5
:203C0000700422040C88120C22431C04230C0C8943EA04234C88496843EA04239BB2C16371
:203C20008283038410BD038C10B523F480521404230C0384038C828B23F4005322F4E044E0
:203C400022040C88120C42EA04221C04230C0C8992B243EA04334C88496843EA04339BB278
:203C600001648283038410BD038B23F0080213041A0C114301837047038B23F400621304F1
:203C80001A0C42EA01218BB203837047838B23F0080213041A0C114381837047838B23F49A
:203CA000006213041A0C42EA01218BB283837047014B1860704700BF00300040014B58606F
:203CC000704700BF00300040014B9860704700BF00300040024B4AF6AA221A60704700BF8B
:203CE00000300040024B4CF6CC421A60704700BF0030004001F0030230B592000F2404FAB9
:203D000002F400FA02F0074B8908023153F8215025EA040443F8214053F82140044343F80E
:203D2000214030BD00000140002382B00D490193CA68500613D44FF0FF30C860094BD9681B
:203D4000019801F04002411C01910198B0F5005F01D0002AF2D0DB68C3F3801000E00120C4
:203D600002B0704700280040024BDA6822F08000D86070470028004038B5104C0546CA2379
:203D8000532063626062FFF7CFFF90B1A16821F04002A260A0682B6840EA0301A160AA68EA
:203DA000226120696B6840EA03412161FFF7DCFF0120024BFF225A6238BD00BF00280040FC
:203DC0000F480023CA2282B05321019342624162C36823F0A002C260094BD868019900F0DC
:203DE0002002481C01900199B1F5004F01D0002AF2D0D868FF225A62C0F3401002B07047D7
:203E000000280040074BCA2253215A6259629A6822F0070199609A6810439860FF205862D6
:203E2000704700BF00280040044BCA2253215A6259625861FF205862704700BF002800400E
:203E40001349002382B00193CA2253234A624B628A6820B142F480628A60012012E022F474
:203E6000806088600A4BD968019801F00402411C01910198B0F5005F01D0002AF2D0DB68C8
:203E8000C3F38000024BFF21596202B0704700BF002800400E4BCA225A6253225A6220F0F2
:203EA000040239B199680A439A601A6C00F00401114308E0996800F0040021EA02029A6015
:203EC000196C21EA00011964014BFF2058627047002800400C4B820C30B51D6C9C68D968F8
:203EE00020FA02F305F0040505EAD33200EA04031A4306D089B211EA10130CBF0020012038
:203F000030BD104630BD00BF00280040054BC0F30F10DA6840F0800102F0800262EA010074
:203F2000D86070470028004010B5064C18B9236801221A8210BD044B18680168884720689C
:203F40000A3010BD580700205407002010B5064C18B9236801221A8210BD044B18688168A9
:203F6000884720680C3010BD580700205407002008B5234A18B9136802221A8208BD214B80
:203F8000002012681880117811F07F0113D1507A00F02002D1B209B102221A7000F0400307
:203FA000D8B2184B18B11A7842F001011EE0197821F001011AE001291FD002291ED15079ED
:203FC00000F00F024FEA820110F0800F01F1804000F5B842116803D001F03002102A03E068
:203FE00001F44050B0F5805F01D101211970064B186801698847034808BD184608BD00BF3F
:20400000580700202807002054070020F8B5224B1C68238A267AABB9042E13D11F48017812
:2040200001291F490AD11F4C226894B21E4AA2185200136030220A80037028E010260E80D6
:20404000072624E0A58AA169AB428CBF022604269D4228BF1D46284688470746002000F0A9
:204060007DFD2A460146384600F072FC2946002000F090FD208A638A421BED1808480B4B88
:20408000228230214FF44052018065821A80024B18680672F8BD00BF58070020FC050020FB
:2040A00060070020505C0040023000205E07002010B50A4B0A4918684B78C27893420AD31A
:2040C000817841B9848834B982720648026853689847204610BD022010BD00BF580700204E
:2040E000400100205407002038B50E4A0E4C106823688269D9785879904721688B7A7BB1A4
:2041000070B9087960B98D7855B9084A1168CB68984720684279C178C2720173284638BD65
:20412000022038BD30070020580700205407002010B5314B1B68187810F07F0004D1597A9C
:2041400021F020025A7210BD022853D15A88002A51D1197900294ED15A7922F080004FEA9F
:20416000800404F1804101F5B8442168234C12F0800F247814BF01F0300101F44051A04291
:2041800038D2002936D09B7A002B33D002F08002D1B249B1C4B210B1204600F0A3FC204620
:2041A000302100F019FC1FE0840004F1804303F5B844226802F44051B1F5805F14D130B916
:2041C0000F4B1A6892F82C1000F0F2FC01E000F077FC20684BF68F71014081F4405343F4D2
:2041E000004242F08000206006490B685A699047002010BD022010BD580700204001002033
:20420000300700205407002010B5204B19684B7923F080024FEA820000F1804404F5B84061
:204220001B4C0068247813F0800F14BF00F0300000F44050A24226D24C8824BB18B3897AAD
:2042400009B359061FD0920002F1804103F0800301F5B842D8B2116828B148F6BF730B4011
:2042600083F0100004E04BF68F730B4083F4805040F4004141F080001060064A136899699F
:204280008847002010BD022010BD00BF58070020400100205407002008B5064B1868064B7A
:2042A000427A42F0200141721868C2699047002008BD00BF5807002054070020054B1A684A
:2042C000538A18B98988CB1A138270470868C018704700BF5807002008B50D4B00201968FB
:2042E00091F82C1000F064FC0A480268117A082906D1094B4FF48050188008481022028057
:20430000B1F1090CDCF1000151EB0C0008BD00BF30070020580700205E070020600700206A
:2043200070B52E4B1C68207A02284FD004284DD0032801D0052843D1A169208AA9B1A0B193
:20434000A58A854228BF054628468847228A0646608A531B291861822382002000F00CFCC7
:204360002A460146304600F00AFB228A52B11C4B4FF4405018800020014600F00BFC194AD9
:2043800030211180208AA38A1449834202D80B68032202E018B10B6805221A720CE00A68A1
:2043A0000623114913720A68104993B25A1853000C49186030200880084801680B7A06E057
:2043C000072803D10A490A68D36898470823034A10680372BDE87040FFF77EBF580700208F
:2043E0005E07002060070020505C00400230002030070020934B73B51A68934990B244181A
:20440000924E65002A6835682B7A092B15D090B2410001F1804404F5C04422782A70637825
:204420006B70A08800F0E2FB68802089356800F0DDFBA880A0893168C880844D01242B68FB
:20444000DA881C725C78002A5DD1062C5DD0187810F07F022FD1092C02D1FFF729FE3CE08F
:20446000052C0CD193F90310002901DA082146E098780028FAD19B88002B32D0F6E7032CDD
:2044800010D1D878012807D0714A204611684B699847032823D131E09A88002AF4D1FFF787
:2044A000FBFE1AE0012CEFD1D9780129ECD19B88002BE9D10AE0012A04D10B2CE4D1FFF710
:2044C00013FE0AE0022ADFD1012C02D1FFF730FE03E0032CD8D1FFF797FE10B1D4E70028F7
:2044E000C4D158485B4B026891B2C8185A4B4100002230200A601880062100E00921534A2C
:2045000010680172DAE0062C13D1187842067FD19C784F49012C02D10868C2696EE0022CF5
:2045200002D10A68126A69E0032C71D10B685A6A64E0002C43D15988002969D1586820F42D
:204540007F44B4F5003F63D11A7812F07F0004D19A88002A00F0B5805AE001280CD13C4A5D
:20456000106884695879A047002851D129688B7A002B40F0A6804BE0022849D15A7902F089
:204580000F014FEA810404F1804000F5B8442068324C12F0800F247814BF00F0300000F48D
:2045A0004050A14201D3002205E012F0700FFAD10028F8D02A4A9B7A03BB49BB1EE0082CF4
:2045C00003D11B785B067ED022E00A2C20D1187800F07F0101291BD19C7ACCB15988B9B9A0
:2045E0005A6822F47F40B0F5803F11D1184C587922689469A047002867D009E042B11348A5
:204600000024016820464C828A61904720460AE00F4C21680D4C0A692368587890470328BA
:2046200001D1236806E0094B4FF6FF711B681A8A8A4201D1092103E0022800D092B90821EE
:2046400019723BE0505C004004300020580700203007002002300020600700204001002064
:20466000713F000893F90000002821DAD98801910198824202D9019A1A8211E08A420FD2D3
:204680001349086890F82C108A4201D2002105E092FBF1F001FB102212B901210D48017096
:2046A0000B49086890F82C209A82FFF7AFFC05E003221A72084B4FF440511980FFF70CFE4F
:2046C0007CBD064A9BE7064A99E7064A97E700BF30070020FC0500205E070020713F0008BD
:2046E000293F00084D3F000870B50D4B1C780023A34210D203F1805202F5B855A90043F411
:2047000000420E6842F0800540F60F7232402A430A600133ECE7034940F08000086070BD92
:20472000400100204C5C004010B514490B680C461A7A022A01D0042A04D1FFF767FC2168D3
:20474000087A13E0062A10D15878052809D11978490606D1D878FFF7C7FF094B1A68106AE9
:20476000804708490B689A6890470820034B1A681072BDE81040FFF7AFBD00BF58070020C6
:2047800054070020300700207047000008B5074A074B0220136018720649074B0748084ACF
:2047A0000B6010601B68984708BD00BF580700203807002030070020CC0000201C010020DA
:2047C0005407002037B50023ADF806305848594B026891B21204198040F1A880188856493C
:2047E00000F00F020A70002A6ED1544C2568AAB2534D2A802988534A01F030001080298852
:204800004BF6BF7201F44050288021680A4082F4005080F0200141F4004242F08000206026
:204820001B8803F010018AB23AB9226848F60F7010402060FFF778FF1DE0206883B2ADF8BF
:204840000630BDF8061001F4006290B238B1216840F68F730B402360FFF7CCFD0BE0BDF8E7
:20486000063019B20029B1DA226840F68F7010402060FFF755FD21682A884BF6BF7302F408
:2048800080500B4081B209B183F480532C4A108800F400518AB20AB183F4005329480188B8
:2048A00001F0100291B209B183F01003008800F0200291B209B183F0200343F400401F4A65
:2048C00040F08001116031E0930003F1804000F5B843196888B2ADF80600BDF8061008B283
:2048E000002809DA186840F68F7101401960164B013A53F822008047BDF8061001F080022F
:2049000093B2002B3FF462AF0B480278910001F1804303F5B841086848F60F7303400B6001
:204920000A49013A51F8220080474FE73EBD00BF445C00407A07002034070020005C00404F
:204940005E07002060070020580000207400002030B501F1005101F54053013259005210A0
:2049600000230230934209D010F8015C10F8024C44EA052421F823400133F2E730BD01F1BA
:20498000005110B5013201F54054521064000023934205D054F8231020F813100133F7E7E5
:2049A00010BD0000014B186880B27047485C00404FF6F873014A034013607047505C00403D
:2049C000800000F1804202F5B842106848F68F130340194311607047800000F1804202F56A
:2049E000B842106848F6BF73034001F0100080B208B99BB201E083F0100301F0200188B29E
:204A000008B183F0200343F4004141F0800010607047800000F1804202F5B84210684BF61A
:204A20008F73034001F4805080B208B99BB201E083F4805301F4005188B208B183F40053FE
:204A400043F4004141F0800010607047800000F1804303F5B8410A6802F030007047800016
:204A600000F1804202F5B840016848F6BF730B4083F0300242F4004141F080030360704786
:204A8000800000F1804202F5B84001684BF68F730B4083F4405242F4004141F08003036066
:204AA0007047800000F1804202F5B840016840F60F630B4043F4004242F08001016070477D
:204AC000800000F1804303F5B8400268510408D5016840F60F730B4043F4404242F080013E
:204AE00001607047800000F1804303F5B8431A68500608D5196840F60F70084040F40042CE
:204B000042F0C00119607047800000F1804303F5B8410A6802F00F0070470000064B490881
:204B20001A6893B203EBC00000F1005202F5405358004A0002607047505C0040054B4908EB
:204B40001A6893B2044A03EBC000831858004A0002607047505C004004300020054B19682B
:204B60008AB202EBC00000F1005303F540514A0010887047505C0040044B1968044B8AB29F
:204B800002EBC000C1184A0010887047505C004004300020044B1A6893B2044A03EBC000A4
:204BA0008318580001607047505C0040023000200C4B1A6893B20C4A03EBC00083185A0095
:204BC0003E2908D94B09C90601D1581E83B2990241F4004104E04B08C80748BF0133990200
:204BE00011607047505C004006300020C3B2000A40EA032070470000044B00201860044A93
:204C0000044B4FF43F41118019607047445C00405C070020405C004070B500F07F0528467B
:204C20000E461446FFF79AFFA4B2014622463046FFF78EFE28462146FFF7ACFF002070BD77
:204C4000022307480B7002680823C1F8012000208B71C32238234871CA710B72704700BFB3
:204C60005000F81F30B504780220012C85B00D4674D868464FF000014FF0100233D006F011
:204C800025F8374C374B206819785A782379CDF80B00552431208DF80F3020238DF8014004
:204CA0008DF8020004248DF8033013208DF806108DF807200121C32238238DF804408DF863
:204CC00009208DF805002A468DF808108DF80A306C4604AD234603CB106051600832AB4273
:204CE0001C46F7D139E005F0F1FF1F4A1F48117803781F480432303941EA03110378107870
:204D00008DF80040303840EA0312154B422418681B79CDF80B008DF80F308DF801404F2084
:204D2000142454238DF806108DF80720AA21CD228DF804408DF80A208DF802002A468DF8CF
:204D400003308DF809106C4604AD234603CB106051600832AB421C46F7D1002005B030BDB4
:204D6000FC090020FA090020F82F0008F62F0008FA2F00081D23037000207047002303703E
:204D800018467047064B03F11C0253F8041B934240F8041BF9D11B7803700020704700BF9F
:204DA00060AE000872B6054A054B4FF020201A6080F3088800F02AF9704700BF6927F05AB7
:204DC000700700208B230B7000207047024B187808700020704700BF7507002010B50446A6
:204DE00005F010FC237830B95A1E012A03D9042B01D0082B03D103480370002010BD0220DB
:204E000010BD00BF75070020024B187808700020704700BF6307002010B501310023934206
:204E20000ED0040F092C01D8303400E0373401F8014C01330024000101F8024BDBB2EEE77D
:204E400010BD000008B501214FF08050FEF726FE01210F20FEF70AFE4FF48020FEF7EEFC6E
:204E600005484FF4802308210122036041718271BDE80840FEF7A6BC680700204FF4000095
:204E80000121FEF70BBE0000044B05489A7A0AB1052100E00121016000F0A0BA3807002095
:204EA0004006002013B54FF4A060FEF74BFC0220012414238DF80500002101A88DF80430BA
:204EC0008DF806108DF80740FEF746FC2A2201A88DF804208DF805408DF80740FEF73CFCD3
:204EE0001CBD0000034B4FF4004208B15A8370471A83704700000240094B10B593E814007B
:204F00001433186810180AD008220649FFF784FF054920460422BDE81040FFF77DBF10BD08
:204F20005000F81F3E0000204E00002008B52D4B00222D481A70416A2C488BB22C4A01789D
:204F4000138089B12B490B7803F00200C2B2002A46D1BDE8084002F075BD516AC81A80B203
:204F600041F27071884204D81E4A10781E4A0028F3D0526A1E4B20491A8098780A789042A8
:204F800003D000209A70D87009E0D9784A1CD1B281424FF00000D97024BFD8700120187189
:204FA00004F074F804F0F6F803F0FCFE114B1A7802F00201C8B208B902F044FD0C4B187989
:204FC00003F034FB0D4A117851B10D4803883BB90C4A117821B18B000B4A03800120107044
:204FE00008BD00BF990A0020000C01405B060020FE0500207407002075070020AC06002070
:020000040800F2
:205000000806002020060020980D002037B572B6954A964801230024022101709370D47063
:205020009349944A94489625037015800C700422202101A805F0BBF99DF80430052B0ED10A
:205040009DF80550172D0AD19DF80620182A06D19DF80710132902D1884B1C7002E08748A8
:205060000124047010210422684605F0A0F99DF80050072D11D19DF80120082A0DD19DF8AE
:205080000210102909D19DF80340122C05D17C4B7A4A0120002518701570FFF7D3FE784999
:2050A0000C7814B101F081F916E07648764B05681C469D42054604D001F077F9FFF7F2FEB3
:2050C00001E001F075F901F09DF92A68A24203D0FFF7D4FEFFF75AFB03F004FF04F07EF94C
:2050E00003F08CF903F09CF905F07AFA00F044FF01F038F800F0B8FF6149624D087848B972
:2051000003F034FD604C03F0B5FD2B68A34201D003F07EFA00222A606425FEF7DBFD03F071
:20512000B5FF691E11F0FF05F7D12A462B46574CD0B2A11802284D780FD83A2D02D143F065
:20514000010308E03C2D02D143F0020303E03E2D06D143F00403DBB202E0002D18BF0023FA
:2051600001321A2AE3D1072B1AD1454804783CB100238DF800308DF801308DF8023008E0C4
:20518000082110258DF800308DF801108DF8025012236846102104228DF8033005F04FF960
:2051A0003B4A4FF47A741068B0FBF4F14D1EB5F1807F09D2374B384AF020002407215D6029
:2051C00082F823009C60196062B62D4DFEF782FD2C786CB1254C217839B101F0DDF801F04B
:2051E00041FC227822F002032370FFF79FFEECE72A4B187828B300F09BFD254A4FF47A75BF
:205200001168B1FBF5F3581EB0F1807F08D2214D214AF021686082F82310AC6007242C606F
:205220001F4B012018701C46257815B1FEF752FDFAE70E490A7802F00204E3B20BB902F055
:205240003FFC18480568052DBFD1084C21780029CBD001F00202D3B2002BC6D005480588BE
:20526000002DC2D1B9E700BFFE050020740700207607002004060020750700205A0600206E
:205280005B060020700700206927F05A5E0D00200000002010E000E000ED00E03906002075
:2052A0009F06002040060020054B1868417A01F02002D3B213B1012000F00CBE704700BF8B
:2052C000580700207047FEE7FEE7FEE7FEE7704770477047114B1A880AB1501E18801049C7
:2052E0000B880BB15A1E0A800E48018809B14B1E03800D4802880AB1511E01800B4B188858
:2053000008B1421E1A8005494B880BB1581E48808A8812B1014B511E998070470406002035
:2053200052060020560600208A0600205006002000F0DAB84FF48020FEF780BA08B54FF4BF
:205340008040FEF7C7FD60B1064B01224FF480401A70FEF7DBFD4FF48010BDE80840FEF740
:205360006DBA08BD3806002008B5FFF79DFF0120BDE80840FEF762BA08B5FFF795FF02200C
:20538000BDE80840FEF75ABA08B5FFF78DFF0420BDE80840FEF752BA08B5FFF785FF082067
:2053A000BDE80840FEF74ABA08B5FFF77DFF1020BDE80840FEF742BA08B5FFF775FF4FF460
:2053C0007870BDE80840FEF739BA08B5FFF76CFF4FF47C40BDE80840FEF730BA3C4B82B06E
:2053E0001A6842F48070186099683A4A0A409A60186820F0885121F001121A60186820F429
:20540000802119609A68002122F47D009860D960009101911A6842F4803018602C4B196890
:2054200001F4003201920098411C0091019A1AB90098B0F5A06FF1D11B6813F4003118BF1E
:2054400001210191019A012A04D02348234B986002B070472248036843F0040101600268EC
:2054600042F002030360016841F001020260A0F58060436A1B4A43F080514FF400634162BF
:2054800013605168C906FCD4826882608368836081688160826822F47D038360816841F45C
:2054A00011028260036843F080710160084802689201FBD5836823F003018160826842F0EB
:2054C00003038360816801F00C020C2AFAD1BCE7003802400CC0FF880030000800ED00E085
:2054E000003C0240007000406E4B10B51A686E4C90B26E4B208021881A8888B00A4002F466
:20550000004081B231B16A4B6A4800221A700260FFF758F9654A218813880B4003F4806065
:2055200081B249B15F4B64484FF6FF321A60416888475F4B00221A705C495B4A0B881088B5
:20554000184000F4005081B219B156494DF6FF7008601288134003F4805398B288B1514A24
:205560004EF6FF710020116000F0B4FCFFF71AFA10F4404F02D1504B586880474F4A0021FA
:205580001170494B494918880A88024002F4006398B268B14A490A781AB1484B0120187018
:2055A00002E0022000F096FC3E4A4FF2FF7111603D483E4B01881A880A4002F4007081B29F
:2055C00071B1384B3B484FF6FF521A600022026001794B1CD9B201713548027003F0AAFAAB
:2055E000314A324B11881888084000F4807291B2002955D02B4B4FF6FF6018601A1D116879
:205600002C4811F4004F46D00268511C01600368032B42D92B4A116811F008033DD112683E
:2056200091B2816003F1805000F5B8529100086808AA81B202EB83000133082B40F8201C52
:20564000F0D11C48816841F00102826083681D4A99B21160836823F001018160806883B21A
:20566000136010490A685205FBD54FF6FF300860002303F1805108A801F5B85200EB8301E2
:2056800051F8200C0133920081B2082B1160F0D10023084800E000230360072000F01AFC31
:2056A00008B010BD445C00407A0700205C0700209F0600200C060020CC000020390600201F
:2056C00044010020405C0040014B04221A60704740060020344B1A78092A05D060D30A2A00
:2056E00054D00B2A5CD149E0597859B32F4800225A7002789A702E4B12F0010F198802F019
:20570000020014BF41F0010121F001011980C1B2274B19B1188840F0020102E0188820F0C1
:20572000020102F004021980D1B2214B19B1198841F0040202E0188820F004021A801D4BAA
:20574000002018701848C27832B100211A4BC1701A7842F001011970007938B1124B00223D
:2057600015491A71087840F001020A700E4B5979B1B1002058711149012305E098791049D0
:2057800008B9012300E000230B7009E01B7A0D490D4A1BB1012008709B0000E00B7013808D
:2057A000014B00221A707047180600207C0700204E060020180A00202E0A0020A406002081
:2057C0002F0A0020AC060020080600207047000070B52F4B1B681A7802F07F0101290AD18E
:2057E000062842D1597901293FD89B78222B3ED0212B3AD13DE0212937D101385C791A7980
:20580000D9789D78082830D8DFE800F0052D112F2F2F2F2F1A001F4A002110688669204694
:20582000B04710BB012C20D8012D1ED123E01948002106682046B3699847B0B916491DE04B
:20584000164EDB88022D347073800ED1022C0CD8012C03D1A1F11002022A06D81049092495
:205860000C7010490AE004B93AB1022070BD0E4904E00E4902E00E4900E00E49044C226896
:2058800000249161548220468847204670BD00BF5807002030070020795900089000002035
:2058A00018060020415B0008C95B0008A15B0008C95800089959000809B1022070470128F7
:2058C000FBD808467047000070B5294B1A689578D378517908BB49B9264883790BB904219B
:2058E00002E0012D29D10821118226E0012924D1012B01D109210EE0032B01D105210AE097
:20590000042B01D1022106E0102B01D1072102E0112B12D11421118270BD0024154A0026A9
:2059200002F1090026540134142CF7D139B99379E3B1012D1AD0022D17D0002070BD01297D
:20594000FBD1012B05D0032B03D0042B01D0102B03D1084800F8093F70BD112BEDD15372EE
:205960000A21FF239372D17270BD901C70BD00BF5807002018060020054B19684A7910B9B3
:2059800001230B8270470348002A08BF01387047580700201F06002020B9034B01221968E4
:2059A0000A827047014870475807002020060020054B1968CA78042A04D8044B03EBC201C2
:2059C000FEF77CBC0020704758070020940000200149FEF773BC00BFBC0000200149FEF748
:2059E0006DBC00BFC400002038B502F011FE344D344A2B68D079002458729C72DC72204662
:205A0000FEF7D6FF20464FF40071FEF7D9FF10212046FEF7E1FF18212046FFF78FF85821D4
:205A20002046FFF77BF82046FFF73BF82649204691F86810FFF7BCF82046FFF721F80120F2
:205A40004FF4C061FEF7BCFF01204FF48071FFF765F801201421FFF79DF801202146FEF72C
:205A6000BBFF01202146FEF7D4FF02204FF4C061FEF7A6FF02204FF4C071FFF74FF8022007
:205A80004021FFF787F802202146FEF7A5FF02202146FEF7BEFF2046FEF726FE0B480C4BAA
:205AA000296801221A608271C2714C72094A0A4B04720A490A4814700C801C70047038BD0C
:205AC0005807002044B000089000002018060020400600203906002038060020080600200C
:205AE000AC06002010B5FFF707FA02F0A1FC0F4B00241868847200F003F9FFF77DF80C48EA
:205B00000C490D4A0D4B0C60447084700471C47044712146204614701C70FEF75DFF20467B
:205B20002146BDE81040FEF774BF00BF580700201806002040060020390600203806002042
:205B400028B9114A114913684A881A827047012803D10F4948700F487047072803D10C4B9A
:205B60000122DA7004E0142804D109490120087109487047402804D1054B01225A71074805
:205B800070470020704700BF5807002090000020180600207C070020300A0020440A0020E0
:205BA000064B19684A790AB9054902E0012A02D10449FEF783BB0020704700BF58070020CA
:205BC000FC00002004010020064B19684A790AB9054902E0012A02D10449FEF76FBB002072
:205BE000704700BF580700200C0100201401002008B50A4B988820B90120FEF773FF01209A
:205C000006E0B0F5807F08D10220FEF76BFF02202021BDE80840FEF7DFBE08BD380700209A
:205C200010B5134B134C987A88B10521216001202021FEF7D1FE02202021FEF7CDFE012086
:205C4000FEF750FF0220BDE81040FEF74BBFFEF75BFF08B9012000E00420206000210120F3
:205C6000FEF7BAFE02200021BDE81040FEF7B4BE3807002040060020044B1868C278407951
:205C800010B903498A717047022070475807002018060020044B18688278407910B9034910
:205CA0000A72704702207047580700201806002010B5104B04461868027802F07F012129FB
:205CC00016D10A2C0ED00B2C12D10B4B40791A6800219369984758B908480470BDE8104058
:205CE000FFF7CABF05490C70BDE81040FFF7D2BF022010BD580700203007002018060020DC
:205D000008B50120FFF7EEF8064B0749012200201A601860086005494FF4E0520A801A60C4
:205D200008BD00BF405C0040445C00405C07002037B500250195EFF3108472B601F098FED4
:205D400040F2FF114D48FDF718FE4D4B19682B4603F1805202F5B85082001068494A80B254
:205D600042F823000133082BF2D188B2444B40F480621A6042F001004FF6FE720A4042F4DB
:205D8000806118601960404B18684105FBD54FF6FF311960002303F1805000F5B8513948BC
:205DA000890050F82300013380B2082B0860F2D1334942F481620A60086883B243F004024E
:205DC0000A6001F59E51086801900B6823F0030242F0010008602D4900200B6943F004020A
:205DE0000A612B4908704FF48040FEF78FF84FF48010FDF723FD4FF480400121FEF74AF88A
:205E0000244B1A68507A00F02001CBB253B14FF6FF70FDF713FD204A10686FEA10416FEA98
:205E20000143136084F31088194A507808B130BF0CE0154B124A4EF6FF71196010684FF637
:205E4000F77101401160019A144B1A600F48016921F0040202610E4B18781A4638B1597876
:205E600029B100201870FDF735FF30BFF3E700214FF480405170FEF70DF83EBD0000024093
:205E8000405C004084070020445C004000ED00E038060020580700200004014000700040FC
:205EA00010B50A4C4FF6FB73226813402360FEF7EBFF0120FDF7B0FD4FF43F400449206084
:205EC0000A68130C1804086010BD00BF405C004000040140254B072810B518BF18701A78AB
:205EE000224C052A3ED8DFE802F0030D1317202B1F4A516819B9FFF7D3FF062000E00520CA
:205F0000207010BDFFF7CCFF04202070012226E002215970032226E05978481EC2B25A70FA
:205F20005B780BBB0422114B1DE0124B1A6891B241F0100018600A2205232370627010BDE8
:205F40005878411ECAB25A705A786AB909494FF6EF730868034005480B6006210170044B8C
:205F60005A6010BD06221A7010BD00BF8007002038060020405C004030B54FF0805087B050
:205F80000121FDF78BFD0120FDF746FD0120FDF749FD4120FDF78EFD0028FAD04FF400306B
:205FA000FDF746FD0120FDF75BFDFDF709FF4FF490700024059006A87F2340F80C4D0493CD
:205FC000FDF7DAFE4FF48010FDF738FC012508224FF4801101A801918DF809208DF8084020
:205FE0008DF80A50FDF7EEFB032368468DF800308DF801408DF802408DF80350FDF7ACFB5C
:206000002046FDF7FFFE4FF47A70FDF70DFF4FF480402146FDF73EFF2846FDF711FF07B038
:2060200030BD00007FB507214FF4007000234FF48272ADF80E00ADF814100A4801A9ADF8ED
:206040000430ADF80620ADF80830ADF80A30ADF80C30ADF81030ADF81230FDF7A7FC07B08A
:2060600000BD00BF0038004010B50E4C01214FF48040FDF713FD20460D210522FDF77FFCBA
:2060800020460E210522FDF77AFC20460F210522FDF775FCFFF7C6FF03480121BDE810409B
:2060A000FDF7A3BC0004024000380040F8B505460E46174642F2107428463146FDF7A6FCF3
:2060C000B84205D0013CA4B2002CF5D12046F8BD0120F8BDF8B50F4616460221012204468D
:2060E000FFF7E4FF0128054601D00020F8BD20463946FDF789FC29462A462046FFF7D6FF3F
:2061000001280546F1D12046FDF77BFC30702846F8BD00001FB501210820FDF7B3FC01A84B
:20612000FDF704FD0C4B0D481A684FF6FF73B2FBF0F14C1EADF80440094C0022204601A91D
:206140000293ADF80C20ADF80620FDF7C3FC20460121FDF7FFFC1FBD0000002080841E00C6
:20616000000C0140FFF7D6BF054B40005A6A80B292B2596A891A89B28142FAD9704700BFD0
:20618000000C014070B5022086B00121264CFDF785FC02200121FDF769FC204600210222E4
:2061A000FDF7EDFB204601210222FDF7E8FB1F4B1F481A68A4F50034B2FBF0F14D1EADF8C2
:2061C00000502046002569464FF6FF760196ADF808500126ADF80250FDF77CFC6023204674
:2061E00003A9ADF80C30ADF80E600495ADF81450FDF7FAFC20460821FDF748FD204603A999
:20620000ADF80E600495FDF70EFD20460821FDF745FD20463146FDF791FC20463146FDF7DF
:2062200099FC06B070BD00BF000402400000002000127A0070B5022086B00121FDF72EFC78
:2062400002200121FDF712FC052102222048FDF796FB204B20481A684FF6FF75B2FBF0F125
:206260004C1EADF800401D4C01952046002569466026ADF80850ADF80250FDF72BFC0223DC
:20628000ADF80C602046012603A9ADF81430ADF80E600495FDF76AFC20460821FDF7E4FC62
:2062A000204603A9ADF81450ADF80E600495FDF77AFC20460821FDF7DFFC20463146FDF77E
:2062C0003DFC20463146FDF745FC06B070BD00BF000402400000002000127A00000400409B
:2062E00030B5012087B00146284CFDF7D7FB02200121FDF7BBFB20460A210122FDF73FFB10
:2063000020460B210122FDF73AFB214B21481A684FF6FF74B2FBF0F14D1E0194694600242F
:206320004FF08040ADF80050ADF808400125ADF80240FDF7CFFB602303A94FF08040ADF8DE
:206340000C30ADF80E500494ADF81440FDF74CFC08214FF08040FDF799FC03A94FF08040D5
:20636000ADF80E500494FDF75EFC08214FF08040FDF794FC29464FF08040FDF7DFFB4FF00D
:2063800080402946FDF7E6FB07B030BD000402400000002000127A0008B5FFF7F3FEFFF7C9
:2063A0009FFFBDE80840FFF745BF04F0E5B8000038B50024124BE05AE1180F281AD08D7800
:2063C00000F4407245B900F00F0101EB1212062101FB023319790BE0CD7800F00F0101EB03
:2063E0001212062101FB023359790DB141F0800104F079F80634B4F5C07FDBD138BD00BFF8
:206400009EBB000830B5012085B00146FDF73AFB02200021FDF76EFC02200121FDF76AFC31
:2064200002200146FDF766FC02200321FDF762FC02200421FDF75EFC02200521FDF75AFCDE
:2064400002200621FDF756FC02200721FDF752FC02200821FDF74EFC02200921FDF74AFC12
:2064600002200A21FDF746FC02200B21FDF742FC02200C21FDF73EFC02200D21FDF73AFC22
:2064800002200E21FDF736FC4FF6FF740F210220FDF730FC2046FDF7D1F900250C2302944D
:2064A00002A801248DF80D308DF80C508DF80E40FDF788F94FF4A060FDF744F90620032164
:2064C0008DF8040001A88DF805108DF806508DF80740FDF741F9072201A88DF80420FDF7AC
:2064E0003BF9082301A88DF80430FDF735F909208DF8040001A8FDF72FF90A2101A88DF8E9
:206500000410FDF729F9172201A88DF80420FDF723F9282301A88DF80430FDF71DF90348B4
:2065200001680A0C1304036005B030BD0004014001480421FDF721BA00040240014BD86371
:20654000704700BF00040040014B1864704700BF000400404FF08043D86370474FF0804309
:2065600018647047014B9863704700BF0004004008B1FFF7DDBF02480421FDF7FCB900BFC5
:206580000004024073B50F4C06460D46FFF7D0FF00210DF107022046FFF79CFD31460DF13C
:2065A00007022046FFF796FD29460DF107022046FFF790FD0020FFF7DBFF0120FFF7D4FDAC
:2065C0007CBD00BF0038004073B5104C06460D46FFF7AEFF01210DF107022046FFF77AFD89
:2065E00031460DF107022046FFF774FD00210DF107022046FFF76EFD0020FFF7B9FF9DF8FE
:20660000073001202B70FFF7AFFD7CBD00380040F7B507460C461E461546FFF789FF790033
:2066200001F0FE010DF107020E48FFF753FD21460C480DF10702FFF74DFD0024E3B2AB421F
:2066400009D2094A305D1178013441430548090AFDF7DAF9F2E70020FFF78AFF0120FFF787
:2066600083FDFEBD0038004046010020154B1A78194662B95B7853B9134A0020995C134AE6
:20668000013301390A2B02F81100F5D17047487880B100230E490D4A585C013301380021CB
:2066A000092B02F81010F5D1064883784BB182F8711070472AB1054B83F88600987483F81C
:2066C000E60070474406002092B00008340800209CB0000810B5134CFFF7C8FFE378FBB1D1
:2066E000114821798278427059B12120FF21FFF749FF0E4B01200021F022FFF789FF002304
:2067000023710848427942B10749094ACB78117800225943074B9963427102490020C87016
:2067200010BD00BF440600204601002034080020F809002000040040F7B580213248002450
:206740008DF80740FDF717F944F62060FFF70CFD2D480821FDF70FF94FF47A70FFF704FDF2
:20676000062508212848FDF708F94FF4FA70FFF7FBFC4CF2503608212348FDF7FCF8304610
:20678000FFF7F2FCA4F57250303880B2FFF7ECFC16208B21FFF7F6FE00200721FFF7F2FE48
:2067A00001200146FFF7EEFE01200DF10701FFF70BFF102008219DF80770FFF7E3FE2120EB
:2067C000FF21FFF7DFFE20200221FFF7DBFE42200DF10701FFF7F8FE9DF90730002B04DA6A
:2067E00017F1FF3618BF012606E004F5FA64A4B2B4428CBF00260126013D15F0FF0501D025
:20680000002EAED1FEBD00BF0004024007B5002302A901F8013D4220FFF7D6FE9DF8070082
:20682000C143C1F3C0100EBD37B500238DF80730062408212248FDF7A0F84FF4FA70FFF74E
:2068400093FC08211E48FDF796F84CF25030FFF78BFC16208B21FFF795FE00200721FFF7B4
:2068600091FE01200146FFF78DFE01200DF10701FFF7AAFE102008219DF80750FFF782FE20
:20688000104921200978FFF77DFE20200221FFF779FE42200DF10701FFF796FE9DF907000D
:2068A000002804DA15F1FF3218BF012200E00122013C14F0FF0401D0002ABAD13EBD00BF1A
:2068C000000402404601002000B5402191B00A46684603F06CFD9DF81E20124B9DF8340061
:2068E0001A701149821E062A0870104B07D8012207285A7001D002280ED19A700CE00A2814
:2069000001D1012007E00D38212802D80121597002E0002058701870054BFF201870D870B9
:2069200011B000BD620700206307002044060020460100200023034A98540233F02BFAD17E
:20694000704700BF34080020014B1870704700BFF809002010B5FFF789FE044B0120002127
:20696000F022BDE81040FFF753BE00BF340800202E4A08B593796BB12D484179C3790171B4
:206980008371417AC37A0172837250890023C14311819371254841890289914202D1838999
:2069A000002B3FD1808950B9FFF730FF38B121490A68052A03D1FFF737FFFFF7CBFF1B4B4B
:2069C0004FF47A7098815B89194A03F0020188B200B1107903F00401107388B2144A00B1FC
:2069E00090795073124A13F0010118BF117A03F0080398B291730E4B00B1987A0E49D873FE
:206A00000A787AB9187BFF2250430C49C863587B50430864987B4FF080415043C863DB7B01
:206A20005A430A6401484289028108BD4406002046010020400600207607002000040040D7
:206A400008B5054B187803F00BFA0449044BCA78504380B2986308BDF809002046010020B6
:206A60000004004038B5FFF72FFFFFF765FE00231A4900225A540133F02BF9D11848194C34
:206A8000C28122704282184A0125C821057445741180164D817D4FF6FF7383826B630546F3
:206AA00049B9FF20FFF746FF4FF0FF302070FFF751FFFFF7C5FFEB7D094A3BB10020012193
:206AC000118150819082094A506300E01381044B59891983BDE83840FFF74ABF3408002082
:206AE00044060020F8090020F60700200008004010B50A4B0A4A18780A4C10705A789B78ED
:206B000009492370094C0A70A076E2762377FFF711FFFFF71FFF0020607710BDE8070020CC
:206B2000DC09002040090020F80700204406002010B50B4A0B4913780B4C0B7051789278C0
:206B40000A4822700A4C0170E1770A49A3770B7084F82020FFF774FF002384F8213010BD68
:206B6000A4070020F4070020AE0700204309002044060020F8090020034B00221A705A709F
:206B80009A70FFF7B5BF00BFE8070020034B00221A705A709A70FFF7CBBF00BFA4070020DB
:206BA0001A4A10B5D18900292FD1137C8BB1184B18481C78117404705C78174804709C7853
:206BC00016480470DC781B7943EA0420144BC4091C80134A0D4C11880E48628CE181114993
:206BE00003788818C27C5A43FF2392FBF3F1C8B2A076FFF79FFEFFF7ADFE608C421C93B2B9
:206C00007F2B638401D90021618410BD44060020E8070020DC090020F80700204009002030
:206C20003E09002092B00008544B73B5DA89002A40F0A280187C002846D0514B5149187865
:206C4000514C087059789A782170504C00EB00202270DC781B7902EB022243EA04244C4B8D
:206C600001EB01211C808BB284B290B2ADF800404849ADF80230ADF80400684603F0FCF82A
:206C8000454C464861690029B4BF6FF07C424FF080620023C0FB01233D49D20E42EA431347
:206CA0000A883F4812093C49636103F0A5FA2069E061E3683A48A36161692162364903F06B
:206CC000CEFA2E4A002414742C4C1020A38CE08119B200290DDD30490D69CD61CE688E6170
:206CE000486908622E4803F0BAFAA38C591EA18403E013B15A1CA2843EE0274C94F82450BD
:206D000022692146E261E0682E46A06163692448236203F0A4FAA11D04F1180003F062F91A
:206D2000E188164B88B293F8261094F82420012916D1198D1031032D198504D1012A0FD118
:206D4000002119850CE0012D0AD1032A08D183F82A50144B1A88D1075CBF42F001021A80C1
:206D6000064B0022000A9876DA761A7703F078F8FFF7E0FDFFF7EEFD7CBD00BF440600202E
:206D8000E8070020DC090020F8070020400900203E0900205009002044090020FDFFFF0708
:206DA0007C090020A00A0020564B73B55A8A002A40F0A780587C002846D0534B534918785A
:206DC000534C087059789A782170524C00EB00202270DC781B7902EB022243EA04244E4B06
:206DE00001EB01211C808BB284B290B2ADF800404A49ADF80230ADF80400684603F03CF867
:206E0000474C484861690029B4BF6FF07C424FF080620023C0FB01233F49D20E42EA4313BF
:206E20000A88414812093E49636103F0E5F92069E061E3683C48A36161692162384903F0A2
:206E40000EFA304A002454742E4C1020E38D608219B200290DDD32490D69CD61CE688E61A6
:206E600048690862304803F0FAF9E38D591EE18503E013B15A1CE28543E0294C94F8245030
:206E800022692146E261E668A66160692062264803F0E5F9A11D04F1180003F0A3F8E3881A
:206EA00021899AB2174B60898EB294F8241093F8264080B2012C18D11C8E1034032D1C8698
:206EC00004D1012911D1002119860EE0012D0CD103290AD1022183F82A10144B198811F038
:206EE000010F04BF41F001011980064B120A310A000A9A77D97783F820000D4B1A70FFF76D
:206F00009FFD7CBD44060020A4070020F407002043090020AE070020F6070020C8070020FF
:206F2000BC070020FDFFFF0718080020A00A0020F8090020F8B51E4B40F21F255C6B9A6BE9
:206F4000A018010CA94228BF29461A4D9863D9638CB205F11506184B1A1992F8A90002F083
:206F60007FFF15F8013F6A7893420AD2124FF91891F8C9721149013F013301F81700DBB212
:206F8000F2E7182C94BF04F20724193CB542A4B2E1D1FFF7DFFC0648418C4B1C016C9AB200
:206FA0008A42428402D9002343848363F8BD00BF4406002024B1000892B000083408002033
:206FC000F8B51F4B40F21F255C6B9A6BA018010CA94228BF2946C1F507761A4D9863D96381
:206FE000F31C9CB205F11506174A101990F8A90002F036FF15F8013F6A7893420AD2124F00
:020000040800F2
:20700000F91891F8C9721149013F013301F81700DBB2F2E7182C94BF04F20724193CB54253
:20702000A4B2E1D1FFF796FC054B598C4A1C196C90B28842588402D900225A849A63F8BD2B
:207040004406002024B1000892B0000834080020F8B51E4B40F21F255C6B9A6BA018010C26
:20706000A94228BF29461A4D9863D9638CB205F10806184B1A1992F8A90002F0F1FE15F838
:20708000013F6A7893420AD2124FF91891F844731149013F013301F81700DBB2F2E7432CB8
:2070A00094BF04F2DB14443CB542A4B2E1D1FFF751FC0648418C4B1C016C9AB28A42428409
:2070C00002D9002343848363F8BD00BF44060020CEB3000892B0000834080020F8B51F4BE1
:2070E00040F21F255C6B9A6BA018010CA94228BF2946C1F507761A4D9863D963F31C9CB21A
:2071000005F10806174A101990F8A90002F0A8FE15F8013F6A7893420AD2124FF91891F83D
:2071200044731149013F013301F81700DBB2F2E7432C94BF04F2DB14443CB542A4B2E1D12E
:20714000FFF708FC054B598C4A1C196C90B28842588402D900225A849A63F8BD4406002036
:20716000CEB3000892B0000834080020F8B51E4B40F21F255C6B9A6BA018010CA94228BFF1
:2071800029461A4D9863D9638CB205F10B06184B1A1992F8A90002F063FE15F8013F6A7852
:2071A00093420AD2124FF91891F8C3731149013F013301F81700DBB2F2E7302C94BF04F501
:2071C000F774313CB542A4B2E1D1FFF7C3FB0648418C4B1C016C9AB28A42428402D9002359
:2071E00043848363F8BD00BF4406002049B4000892B0000834080020F8B51F4B40F21F25CC
:207200005C6B9A6BA018010CA94228BF2946C1F507761A4D9863D963F31C9CB205F10B0667
:20722000174A101990F8A90002F01AFE15F8013F6A7893420AD2124FF91891F8C37311491E
:20724000013F013301F81700DBB2F2E7302C94BF04F5F774313CB542A4B2E1D1FFF77AFB5A
:20726000054B598C4A1C196C90B28842588402D900225A849A63F8BD4406002049B400080A
:2072800092B0000834080020424B30B5D98900297ED11A7C002A2CD03F4A404814785578D6
:2072A00004703F4C3F4825709578D47805703E4D3E482C701479557904703D4C9079257042
:2072C000557AD27940EA052420093A4C102525804FF0087418649963B4FBF0F0197483F8EE
:2072E0004510598441F28831586383F84420A3F8461028482F4B90F844101A88C281002911
:207300003AD1B0F846304BB990F845204384511C41F2883280F84510A0F8462090F845009A
:20732000052803D91B4B002183F84510194A92F8450018B9BDE83040FFF7FCBD012803D129
:20734000BDE83040FFF73CBE022803D1BDE83040FFF77EBE032803D1BDE83040FFF7BEBE5D
:20736000042803D1BDE83040FFF700BF05280FD1BDE83040FFF740BF0129DBD00229E5D077
:207380000329EFD00629DBD00729E5D00829EEE730BD00BF44060020E8070020DC09002013
:2073A000F807002040090020BA070020DA090020F30700203E09002070B5002386B02248F8
:2073C000224A1C189918E578CE7845EA06000DF803000133152BF2D102F11904013A14F8EE
:2073E00001199442A170FAD1194D05F11A06A87805F8010FB542FAD1164B93F84840621C64
:2074000083F8482000241449655C144E301990F89430AB420DD91DF8040002F021FD7619C5
:2074200096F8C9320E4A591E013502F81100EDB2EBE70134152CE6D1FFF78CFA05494A8C75
:20744000501C488406B070BDDD090020FA070020DC0900204406002025B1000892B0000853
:2074600034080020274B30B5DA89002A48D1197C002939D0244B254A197811705978244ABD
:2074800011709978234A1170D9781B7943EA01222149224B0A8038B9214A997C587C1B7CFA
:2074A00011705070937017E0142807D11D4A197C587C9B7C1176507693760DE0184A1D7C58
:2074C000C41C111815555A7C9B7C8A704B70154908180D55027143710A49002281F848203A
:2074E0000A7481F845204A8406480B4B90F848201988182AC18103D8BDE83040FFF75CBFA8
:2075000030BD00BF44060020E8070020DC090020F8070020400900203E09002046010020EB
:20752000FA070020DD0900203B4A2DE9F041D18900296ED1137C63B93849374F0D88384EC9
:20754000FD81FFF707FA374B377893F800C0002332E0354E334C307875782070B378334F31
:20756000334C3D702370F57833792D4F314C3D7023707579294BB6792F4F1E8011745184F3
:207580003D70FFF7D7F9FFF7E5F92C487424426A2B4EB2FBF4F104FB11253378294F03F195
:2075A000140003F1280203F13C0450333D707070B270F4703371BFE72249234E585C4FF0B6
:2075C000FF08321892F837441D4A20489D5C013C7619F67C01357E43EDB296FBF8F615F035
:2075E000800F00F8146001D19D540BE000F814C00025124C9D54606A7422B0FBF2F402FBB4
:20760000140058540133052BD6D1BDE8F041FFF7A1B9BDE8F08100BF440600203E090020D3
:20762000BA070020DC090020E8070020F807002040090020DA090020F3070020000C014063
:2076400070090020B007002092B0000834080020074B597F59B1074A1378062B07D10649AC
:20766000064B0A78013803F81020FFF773B97047440600207A090020DC090020340800208C
:20768000074B597F59B1074A1378062B07D10649064B0A78013803F81020FFF75BB970478A
:2076A000440600207A090020BA070020340800200E4A10B5D189C1B9137CB3B10C4B0D48F0
:2076C0001C78117404705C780B4804709C780B480470DC780A4804701C790A4804705C795D
:2076E000094804709879094B188010BD44060020E8070020DC090020F807002040090020F5
:20770000BA070020DA090020F30700203E09002070B5134CE58915BB237C03B31149102261
:20772000114E0A80BB20114A41F2883320646663FF200126A4F846301070A563257484F8FA
:20774000455084F84460FFF77BF90949094B03200D70A5756584E58125856677187070BD1F
:20776000440600203E090020BAE80200F8090020AF0700207A09002008B53B4BDA89002A2A
:207780006BD1197C79B17D2144F6206019643749A3F846001020088035481A7483F8452015
:2077A0005A8458639A63304A92F84510052902D82E4B1888D081B2F846202B4BEAB901310D
:2077C000C9B244F62060082983F84510A3F8460088BF83F845205A84234B244893F84520C3
:2077E000052A08D810217D22018021481A64002258639A6301E0322101801B4B93F845106D
:2078000011B9FFF797FB28E0012902D1FFF7D8FB23E0022902D1FFF71BFC1EE0032902D13D
:20782000FFF75CFC19E0042902D1FFF79FFC14E0052902D1FFF7E0FC0FE006290AD10D4A59
:20784000FF2010700C490D4ACD230B701070FFF7A7F902E001D9FFF767FE0348438A13B961
:20786000074A0821118008BD440600203E0900201C5A0400DC090020F80700204009002060
:20788000F607002070B5484A8AB006460C461068516801AB03C31546118955F80A0F1980A5
:2078A000696804AB03C32889404D188052F8140F07AB5168128903C300201A8001236884A9
:2078C000E8812885A8752B746B77052E6AD8DFE806F0030B1E314458FF20FFF72BF8FFF79B
:2078E00039F800236B775DE0314B324A042C28BF04240AA9187001EB44040320107034F8A0
:20790000240C2D4B020A5A729871012223E0284A042C28BF042410700AA8264B00EB440431
:2079200034F8242C03211970234B110A9A715972062210E01E4A0AA9042C28BF04241D4BE5
:2079400001EB4404107034F8241C03221A701A4B080A58729971DA7124E0164B02221A70AF
:207960001349154B087058709870042C28BF04240AA800EB440434F8182CFF211970100AAC
:207980000EE00C48042C28BF04240AA9052201EB44040270094B14F80C2C0020DA74064B8F
:2079A000D8701A710AB070BD3EB5000844060020AF0700207A090020E807002046010020B9
:2079C00010B51D4C637FFBB11C48017806291BD8DFE801F004070A0D10161300FFF7CCF81F
:2079E00012E0FFF785F80FE0FFF71EF90CE0FFF74BFC09E0FFF798FD06E0FFF759FE03E073
:207A000094F84900FFF72EFD94F82120002A12D00B4B187801280AD005D302280BD1BDE82B
:207A20001040FFF7C1B9BDE81040FFF7AFB8BDE81040FFF77DB810BD440600207A0900203A
:207A4000DB09002008B5FEF793FF084BDA7D12B1FFF792FE06E0987D10B1FFF759FE01E001
:207A6000FFF7AEFFBDE80840FEF734BE440600200F4B10491A6810B54C8922F007001860C5
:207A80000C8300244C81FEF773FF0B4B4FF08042DC631C64D46314649C63084C80212046E0
:207AA000FBF76BFF20460821BDE81040FBF765BF10E000E04406002000040040000402400C
:207AC00008B5FEF739FEFEF7D1FD01200021F0220D4BFEF79DFD0D4B1878042803D10C4B80
:207AE00000229A6309E00B49087802F0B9F90A4A0749D378584380B288630848018B4181C1
:207B0000BDE80840FEF734BF340800202007002000040040F80900204601002044060020B7
:207B20000378022B08D10548054A0378D01890F8CA3400200B70704702207047630700208A
:207B400092B00008022300200B700122082348708A70C8700B7170470378022B15D843B91F
:207B60000120062288700B704B70CA700B7118467047012B4FF0000008D10B7002220323BA
:207B800048708A70CB70087170470220704710B50346007802284CD85A7878BB052A48D8C7
:207BA00008704A7088705B78012B04D1CB70052308714B711DE0022B0AD10A20C022C870E6
:207BC0000A7101230320E0224B718871CA7110E0032B08D10423DC22CB70E1230A714B715F
:207BE00088711E221CE0042B01D1052204E0052B01D0002010BD0B22CA7010BD022A18D806
:207C0000012400200C704A7088705B78022B09D10A23C022CB7003230A714C718B71E02271
:207C2000CA7110BD012BCB70E3D1052208714A7110BD022010BD000010B50378022B01D9C3
:207C4000022010BD4278FBB9052AF9D81C4C1D49A3751D4C0B702270C4181C49A4785C545E
:207C600001330A2BF8D1032A05D1C879021F012AE6D90828E4D81249002001234884C881E3
:207C800008850B744B7710BD032AD9D80C4C0021A1750C4C23700E4B1A700B46C2189178DA
:207CA0000C4A995401330A2BF8D10549002001228885488208864A7481F8212010BD00BF55
:207CC00044060020AF0700207A090020E8070020DB090020A407002037B543780220012BEE
:207CE0000C461CD100250D704B700422202101A802F05DFB9DF8040005280DD19DF8051040
:207D0000172909D19DF80620182A05D19DF80730132B01D1022000E00120A07000203EBD4C
:207D200013B54378012B2AD100240C704B7082788A708078012808D18DF804408DF80540BD
:207D40008DF806408DF807400DE0022812D105211723182213208DF804108DF805308DF8ED
:207D600006208DF8070001A82021042202F067FB204605E0002814BF0220002000E0022063
:207D80001CBD30B5037897B0022B05460C4600F21A8101A89021542202F009FB002840F0EE
:207DA0001081297821706A7862702B78002B40F081806978052900F20681DFE801F00315F5
:207DC00027394B639DF804309DF80610A3709DF805009DF807209DF808302171E070627136
:207DE000A3719DF8091094E09DF80A209DF80D10A2709DF80B309DF80C009DF80E206171C4
:207E0000E3702071A2719DF80F1082E09DF810109DF81120A1709DF812309DF814109DF8A4
:207E20001300A171E270237160719DF8151070E09DF816009DF81710A0709DF818209DF883
:207E400019309DF81A00E17022716371A0719DF81B105EE09DF81C109DF81D209DF81E30ED
:207E60009DF81F00A170E27023719DF820109DF821209DF822306071A171E27123729DF875
:207E800023009BE09DF824209DF825309DF82600A270E37020719DF827109DF82A009DF8B0
:207EA00028209DF8293020726171A271E3719DF82B0083E0012B40F087806878052800F23C
:207EC0008280DFE800F00315283A4C649DF82C009DF82D10A0709DF82E209DF82F309DF8B0
:207EE0003000E17022716371A0719DF8311010E09DF832309DF83410A3709DF833009DF883
:207F000035209DF8363021719DF83710E0706271A371E17153E09DF838209DF83B10A27008
:207F20009DF839309DF83A009DF83C206171E3702071A2719DF83D10EBE79DF83E009DF89E
:207F40003F10A0709DF840209DF841309DF84200E17022716371A0719DF84310D9E79DF8EA
:207F600044109DF845209DF846309DF84700A170E27023719DF848109DF849209DF84A30DB
:207F80006071A171E27123729DF84B0016E09DF84C109DF84D209DF84E309DF84F00A17045
:207FA000E27023719DF850109DF851209DF8523060719DF85300A171E27123726072002024
:207FC00002E0042000E0022017B030BD044B93F84A200A7093F8260048700020704700BF28
:207FE000440600200178012909D84278012A06D8044B002083F84A1083F8262070470220F2
:20800000704700BF440600200020704700207047002070470378022B01D9022070470B7025
:20802000007858B90A4A1378032BF6D8094B9A7E4A70DA7E1B7F8A70CB7070470548827F8A
:20804000C37F90F820004A70C8708B70002070477A0900204406002010B50378022B10D810
:208060000B7041788278047842EA012001B21022054B91FBF2F00CB9988400E0D885002028
:2080800010BD022010BD00BF4406002010B5134B93F82A20D10710D500240470198D02F016
:2080A000FE020C0A4470817083F82A209AB10C4B188840F0010119800DE002F00201C9B2D6
:2080C00049B101240470198E0C0A4470817022F0020083F82A00002010BD00BF44060020DC
:2080E000A00A00200020064A532308704B70137801228870C8700B7148718A71704700BF19
:20810000630700200278437843EA022004281ED003D8012809D0022802E010281FD04028BF
:2081200026D10020087005221CE00022114B0A70587808B1692304E01A780AB16D2300E0DF
:208140006823FF208870C8704B7000200EE0FF220020087048708A70CA700A717047002085
:2081600008700122FF234A708B70C870087170470120704744060020064B012283F84B2089
:2081800002780A7043784B7082788A70C078C87000207047440600202DE9F0410278437854
:2081A000002443EA0223554A012B947530D11578034603241A79161F612E09D902F1200625
:2081C000F6B2072E04D902F17906F6B2042E15D845B1E72A01D164221A711E79E62E05D141
:2081E000E72702E0882A01D187271F711A79444E5F79B21892F80125424EB754013C043347
:2082000014F0FF04D6D13D4B01221A715C7769E0102B14D103795A1E012A02D842793A4B05
:208220001A70027A531E012B02D8427A364B1A70324B01225A71002283F8212052E0022B52
:2082400019D1024600F10C05147900232F4E9E5DA64209D12A4C4679E31893F8EE45294B9E
:20826000013C03F8146002E00133052BEED10432AA42E9D131E0402B34D1254D0346AC7811
:2082800095F80B8095F805C0EF796E7A04251A79012A04D15C791B4A82F8964010E0022AC2
:2082A00002D193F805800BE0032A02D193F805C006E0042A01D15F7902E0052A08BF5E7933
:2082C0000435EDB20433102DE1D1114A947082F80B8082F805C0D7715672084B01221A71EC
:2082E00000225A7703780B7042784A7083788B70C078C8700020BDE8F08100BF440600205C
:2083000092B0000834080020F80900207BB600084601002070B502784378284C43EA0223D6
:20832000002213F0010FA2750ED0254C145DFF2C02D08678234D2E550132E82AF5D11F4ACF
:20834000012414710024547703F0100292B242B184781D4A1470194A01245471002482F876
:208360002140022B0BD10023184C85781A5D0133541E144A052B02F81450F5D10CE0402BE9
:208380000FD182780F4C124B84F896209A708278DA725A71DA715A72084B01221A710022C4
:2083A0005A7703780B7042784A7083788B70C278CA7000790871002070BD00BF44060020B0
:2083C00093B5000834080020F809002080B600084601002010B5084A034601240020907581
:2083E000D47094711A780A705A784A709A788A70DB78CB7010BD00BF4406002008B545F218
:208400005550FBF755FC0320FBF758FC40F2E730FBF75AFCFBF75EFCBDE80840FBF762BC31
:20842000024B002214201A7058707047FA090020084A00230849585C0021002808BF2020A3
:20844000013302F8020C02F8011C02320D2BF1D1704700BF2400002022B8000870B50C4688
:20846000062800F2CD80DFE810F007004A0063007A0089009F00B500624D2978624D284650
:2084800029B30021142202F021FC2278A178E07802F0070301EB002210B22B706FF07E0348
:2084A0009842B8BF1846617922797F28A8BF7F20687002EB012001B29942A8BF0B467F2B15
:2084C000A8BF7F23AB70A3790422EB7013E0142202F0FCFB22786378A078E1782A706B706E
:2084E00022796379A870E970A079E1792A716B71A871E971082245480270012070BD414D32
:208500002D78002D7CD1404E29461422304602F0DDFB012232702378294673703A4B60181A
:208520004278C81801310629C270F7D10922E2E7344A1178002963D1334D1422284602F0D8
:20854000C5FB03232B702088687021880A0AAA7063880522EB706088010A2971CBE7294B23
:20856000197800294CD1284D1422284602F0AEFB04202870217802226970BCE7214D2D7868
:20858000002D3DD1204E29461422304602F09EFB2278294632701C4B60184278C818013136
:2085A00013294270F7D129E0164D2D7845BB164E29463046142202F089FB20782946307058
:2085C000114863185A780B18013106295A70F7D1072290E70B4B1D7895B90B4E29463046C8
:2085E000142202F073FB207829463070064B62185078CA18013113295070F7D114227AE73C
:20860000002070BD2F0A0020010A0020170A0020044B05491A7800206FF300021A70087093
:20862000704700BF2E0A00202F0A00202DE9F043814B0446187889B0C30734D57F4B804A84
:2086400003F1140153F8040B8B4242F8040BF9D1794B7B491A786FF300021A700878102817
:2086600005D011281FD18DF80C0000230EE08DF804000023724901A8C21858184178013313
:20868000062B5170F6D1082001A90AE06C4903AAD0185A1851780133132B4170F6D10720CF
:2086A00003A900F0A3FA674A1078002800F00B81654B664E93F800900025B9F1120F93F8AA
:2086C0000180357093F802C0DF781E795D799979DA7940F0F880B8F1FF0F40F0F480BCF14E
:2086E0000C0F40F0F08007F0F000302840F0EB8045EA0623012B34D1554B19780823524A64
:20870000D05C032802D9D05C65280DD9D25CDF2A03D94D48C25CE72A06D94B4AD05C862863
:208720001BD9D25C8B2A18D8474DE85C49B1E72801D16420E854ED5CE62D06D1E722424D34
:2087400002E0882801D18722EA543F4A5D1CD05C555D404A125C404885540433402BCED154
:20876000A6E0102B15D13D4808230178364AD05C20B1D05C022801D8591C515C0433402BB9
:20878000F4D1364A012011703549364B0870002093E0022B1ED142EA01208200531DD8B203
:2087A0000823834280F08480002227492E4ECD5C965DAE4208D15D1C4D5D2C498A5C511E75
:2087C000254A02F8115002E00132052AEDD10433DBB2E6E7402B71D1254F1F4D2549264BD0
:2087E000264E274A97F8008095F896000F781D7896F800C016780922134B511E13F80190D6
:20880000B9F1010F02D1985C80463FE013F80190B9F1020F02D113F802C037E013F8019048
:20882000B9F1030F01D19F5C30E013F80190B9F1040F27D19E5C29E02E0A0020300A002099
:20884000180A0020A4060020440A00205A0600204406002093B5000834080020F8090020E7
:2088600049060020650600207BB6000880B60008480100204B0100204F01002051010020D0
:208880004D010020595C052908BF9D5C04321D2AB2D18D4B8D4983F8008081F896008C4A39
:2088A0008C488D4B8D4980F800C017701E700D708B4A01218B4B1170002018708A49002281
:2088C00001200A704870012C40F0FB80874B1978F9B1874800221A700270864BD118013286
:2088E00000231A2A4B70F8D1834A012010708349834A087010708348834903704370834A04
:2089000083480B70037011888248037041F01C0313800120FCF79AF8202840F0D280764AB5
:208920001178002931D0724B7B481A7800234270837079496F4A581899184A780133062BE7
:20894000C270F6D10022134673481118C97819B1C0180133C170DBB20132062AF4D1052B92
:2089600006D86D4A0021D0180133C170DBB2F6E76A4908220A7081206949FCF74DF9012086
:20898000FCF76DF85C4B002018700220FCF75EF8202840F09680594F3F7887B35E4B0121D3
:2089A000597000235C4A534998185A18D1790133142B8170F6D100221346574811188978AE
:2089C00019B1C01801338170DBB20132142AF4D1132B06D8504A0021D01801338170DBB29C
:2089E000F6E74E4915220A7082204D49FCF714F90220FCF734F8414B0020187061E0404ED6
:208A000035788DB1404B44491A78444802248A704C700470013122468220FCF7FDF820465B
:208A2000FCF71DF837704CE02F4CA2785AB13D495A20087014228220FCF7EEF80220FCF77D
:208A40000EF8A5703DE000F09FF848B1334A822031491278FCF7E0F80220FCF700F830E053
:208A60006478DCB111248DF80C4001222E49885C03A950540132082AF8D10023C818013354
:208A800000240C2B0472F9D114228220FCF7C4F80220FBF7E4FF14494C7012E0234D2978A1
:208AA00079B1234940228220FCF7B6F80220FBF7D6FF2C7023461E4A002098540133402B7A
:208AC000F9D109B0BDE8F08348010020340800204B010020510100204D0100204F0100207A
:208AE0004806002061060020A406002022070020930D00205E0D0020980D002078070020BF
:208B000077070020140D0020130D0020A00A00202307002024070020010A0020170A00206B
:208B2000020A0020840A0020440A0020A10600209A090020014B01221A707047990A0020F0
:208B400038B5094C054614F83030012B09D104EBC00251685278FFF781FC002104F835100D
:208B600038BD002038BD00BF5C010020044A002313700448002119540833502BF9D17047AA
:208B8000AE0600205C01002038B507250B4C2078FFF7D6FF2378591CCAB228B1062A88BFD5
:208BA00000222270012038BD062A94BF22702070013D15F0FF05E9D1284638BDAE0600200E
:208BC000054B13F83020012A03D103EBC000406870470020704700BF5C010020024B00225C
:208BE00003F83020704700BF5C01002038B5084C054614F830304BB904EBC0025068527808
:208C000001F0B6FF012004F8350038BD002038BD5C0100200E4A002111800E480E4A01809C
:208C200011700E480E4A018011700E480E4A017011700E480E4A0180117051709170D170B0
:208C4000117151719171D1711181518111737047A40A00209E0A0020A60A00209C0A0020C1
:208C60009A0A0020A20A0020980A0020A00A00200E070020024B00221A70FFF7CBBF00BF6B
:208C8000990A0020022837B540D004D8012872D10022134631E010284BD040286BD1364C9E
:208CA000364A2078364C1378364A8DF800002078354C8DF8013013788DF8020020788DF88C
:208CC000033000238DF804001A4641E0C8B283420FD32E48951C00F825302D4D00EB8200B8
:208CE0002C5D0132D2B244728472C4720D2A88BFE8230133DBB2E72B3DD82648C45CFF2C28
:208D0000E4D1002AF5D1013189B2F2E71F4B00222149505C21491872505C1D49013811F87E
:208D20001000013258729872D8720433052AEFD121E011F0FF0F1ED1194A14491378012041
:208D400008724B728B72CB7215E00133052B12D0DCB2C8B28442F8D30C48951C013400F89C
:208D600025401DF8034000EB8200013244728472C472D2B2E9E73EBD470100205501002087
:208D80005201002053010020540100209A0900203408002093B500087BB6000880B6000891
:208DA000F809002030B507208DB0FFF709FF98B30420FFF705FF044670BB0720FFF700FF51
:208DC00005460720FFF70AFF681C0DF1090101F057FC404B1A780AB31C703F4B12211970A6
:208DE00020463D4C0CAA1118031911F8274C013007285C70F5D19DF80C409DF80E109DF8F2
:208E00000D209DF80F3042EA042043EA0121334CFFF738FF01202070002407E011208DF894
:208E2000080002A90420FFF7E1FE01240820FFF7C7FE38B30520FFF7C3FE18BB0820FFF7C6
:208E4000BFFE044601340820FFF7C8FE204601F0DFFB50B10DF10901204601F011FC112221
:208E60008DF80820042002A909E00DF10101204601F0D6FB10218DF8001005206946FFF7D5
:208E8000B5FE01240620FFF79BFE00BB144B1988E9B1CA0703D48B0719D5012500E0054677
:208EA0000CAC112204F8142D2846611C01F0C6FBFF2021468DF81D0001240620FFF796FEF0
:208EC00004FA05F1064B1D8825EA01051D8020460DB030BD8F0600209A090020A1060020A7
:208EE000A00A0020F8B55B485B4B012240F2FF114FF0AA344FF6FF751A600027018342838D
:208F0000C0F80848A0F814580026544A0025BB189D530236122EF8D11237B7F5A27FF3D17E
:208F20004F48002129520235122D0C46F8D14D4E4D4A4E4B1127317017704D4E19804D4879
:208F40004D494E4D4E4F4F4A34700C704C7004702C703C7014700A26474C4B4821786378C4
:208F600061704FF48071A370FAF7FFFC012505FA00F000F00207FFB24FF400714248277059
:208F8000FAF7F3FC47EA0002D0B220706278A47844EA0203224040EA03011040354A01F033
:208FA00003031478204303403448022B1370027813D0032B15D0AB4222D0022A06D1314A80
:208FC000117899B92A4A107844192AE0012A2BD12C490C78012C19D120E0032A03D01ABB47
:208FE00008E0012A04D1274A117869B1002418E0022A19D1234A1478012C0FD0157013E0C6
:020000040800F2
:2090000032B92049087808B9194A08E00A700BE0032A09D11B4A1478012C04D1184A107827
:20902000441C147000E01370144A11481449137002780B78D41A002C02DD511E017004E098
:20904000981A002801DD5A1E0A70013E16F0FF0682D1F8BD00000240100C0020B00A0020BC
:20906000F40B00200B0C0020070C0020AC0A0020080C0020090C0020A80A00200A0C002020
:20908000060C00200C0C00200004024070B5364D00232B70344D354A2B78082B54D8344C38
:2090A00012780920268A00FB0233F143314E40F2FF1226F81310304E01203283FDF754F852
:2090C000206840F0553323600120FDF74DF80021236821602D78294C072D02D82068420054
:2090E00000E0012222602388254C738320781F4C092202FB005320781E4902FB005231F8E4
:20910000134031F812001F4B044033F81500002301EB45011A46CD5A1233B3F5A27F42EABD
:209120000502F8D104432240174C18492280424017480D4D02800B6898472A78208811499D
:20914000531C21F81200A4E71078102802D8431CD9B200E00021117011B14A1ED0B200E058
:2091600011200749087070BDAE0A00200B0C002000080240B00A002000000240100C002018
:20918000070C0020F40B0020AC0A0020940D00200E0C002070B5484C4FF4007120786378CC
:2091A00060704648A370FAF7E0FB012505FA00F101F00206F6B24FF4807140482670FAF778
:2091C000D4FB46EA0002D0B220706278A47844EA0203224040EA03011040394A01F00303F9
:2091E0001478204303403748022B1370027813D0032B15D0AB4222D0022A06D1324A1178B7
:2092000099B9324A107844192AE0012A2BD12E490C78012C19D120E0032A03D01ABB08E09B
:20922000012A04D1284A117869B1002418E0022A19D1254A1478012C0FD0157013E032B97D
:209240002149087808B9214A08E00A700BE0032A09D11D4A1478012C04D11D4A1078441C60
:20926000147000E01370174A184C19481370217802788B1A002B174B07DD1878013920F05B
:209280002002217042F0100210E0511A002907DD511E0170187820F0100242F0200205E0A4
:2092A000187810F0300F05D020F030021A700A4B0121197070BD00BFA80A0020000402403A
:2092C000090C00200A0C00200C0C0020080C0020060C0020130D0020770700200023074A33
:2092E00002EB83014988814202D112F8230070470133062BF3D10020704700BF160D0020B0
:2093000000230C4A02EB4301C989814211D069B902EB4302D0810848017841F00203037096
:209320000648028842F00201018070470133052BE7D170477A0D0020920D0020A00A0020E5
:2093400010B500231449DAB201EB4304E48984421ED1181D01EB40010023CB80042A0CD00D
:209360000D49541D01EB4403DC88501C01EB42020021D481D980C2B2F0E70848084B0278BC
:2093800042F002010170188840F002021A8010BD0133052BD6D110BD7A0D0020920D0020AE
:2093A000A00A00200B4B1B78FF2B0BD0002291B29942094908D20132891811F8011C8142CC
:2093C000F5D105E002207047024AC854581C1070002070471C070020140C0020084A094BAD
:2093E00009491A60094A0A4B00200870107018700849094A094B087010701870704700BF6B
:2094000009970008940D0020980D0020780700207907002077070020930D0020130D002041
:20942000084B1A78002399B2914208D206490133591811F8011C8142F5D101207047002091
:20944000704700BF1C070020140C0020072910B504460DD100230A4A02EB83014888A0425C
:2094600002D112F8230010BD01330C2BF3D105E00C2903D1BDE81040FFF730BF002010BD3B
:209480002E0D00200A4B1B78052B0FD101EB0010084901EB8003D878411ECBB2142B98BFFB
:2094A000054A064898BF137001220270704700BF7A09002054B800088D0600205406002046
:2094C00030B50C4A0C4B1278197800230B4CE418657835B9062B28BF012138BF012260707A
:2094E0001A230133DBB2192BF0D90348017001490A7030BD980D0020780700205E0D002005
:209500001F4B5B7893B1E32801D0E7280ED11D491D4B08181A7810F8E01C11422FD022EA1E
:2095200001021A70194B01221A707047184B1B8819421449144B084410F8E00C19780ED00A
:2095400008431870114B1348012119700178124B02EB011203EB82008078FEF779B821EA67
:2095600000011970094B0B490120187008780A4B02EB001203EB82018878FEF781B87047E6
:209580001C0700204CB80008930D0020980D0020AC0A0020AE0A002054B8000807290246BD
:2095A00017D100230D4931F81300904215D060B921F813200A490B4B0A7842F0010008701C
:2095C000198841F002021A8070470133072BE9D170470C2901D1FFF793BE70477A0D0020E1
:2095E000920D0020A00A0020072910B5044626D10023164AD9B232F81300A0421BD1002073
:2096000022F813000B46062B0AD010495A1C31F8120021F81300002321F81230D3B2F2E7AF
:209620000B490C480A7842F001030B70018841F00202028010BD0133072BDAD110BD0C292F
:2096400003D1BDE81040FFF77BBE10BD7A0D0020920D0020A00A002030B50D4A0D4B1278F7
:20966000197800230C4C1C196578854207D1DDB2052D98BF012288BF01210025657001335B
:209680001A2BEFD10348017001490A7030BD00BF980D0020780700205E0D00201E3808B597
:2096A00010282BD8DFE800F00B0D0F11132A2A2A2A092A2A2A2A2A1D1700002208E0012289
:2096C00006E0022204E0032202E0042200E005220B4B1A700AE00A4B5A78032A06D8511CFF
:2096E00003E0074B587808B1411E5970044908784978FEF7C7F8034A0020907008BD00BF51
:20970000AC0100201C0700202DE9F843924B1888002800F08B81002501268F490A88164239
:2097200000F07E818D4C8E4B94F800808D4805EB081713F8274047789946D7B12046FFF7A4
:209740006FFEB0B1884F894A3978127800238848C0184778A74207D1062B28BF012138BFDA
:209760000122002343701A23581CC3B2192BEED91EE005EB081109EB81025378002B56D124
:20978000DFB1652C19D1784C784A217812787848C0184478652C07D1062B28BF012138BF27
:2097A0000122002343701A23581CC3B2192BEED96D4801706D490A7032E16E490B881E426C
:2097C0001DD068492046CB78012B02D1FFF766FF26E10721FFF73AFEC10702D42046FFF791
:2097E0006FFE20460721FFF731FE00F00202D0B2002854D020460721FFF7D0FE4FE00721DE
:209800002046FFF723FEC20702D42046FFF724FF20460721FFF71AFE00F00202D0B2002873
:2098200000F0FE8020460721FFF7DEFEF8E0032B3BD1514B1878F0B1E72C4E4F06D1E620EE
:2098400031462A46FFF75CFE38881EE0E62C0ED1398888200E4207D0FFF732FE3F4B294673
:209860001878FFF70FFE15E0FFF7F6FE12E0204631462A460CE0414920460B782A463146F1
:2098800033B1FFF73DFE3B4A1088064202D0E5E7FFF736FE374A1088064200F0C1802F497C
:2098A00008782946FFF7EEFDBAE0022B31D1344F385DFFF713FDC30715D42E483F190388E5
:2098C00030481E427979027807D041EA0203037029464046FFF7D6FD02E022EA01020270A9
:2098E000294901200870264A145D2046FFF7F6FC00F00203D8B2002800F092801D492046B9
:209900000A88164202D0FFF7FBFC89E0FFF718FD86E0072B3ED117490B881E4214D0114AF1
